{
    "contractName": "GameManager",
    "abi": [
        {
            "anonymous": false,
            "inputs": [
                {
                    "indexed": false,
                    "internalType": "uint8",
                    "name": "version",
                    "type": "uint8"
                }
            ],
            "name": "Initialized",
            "type": "event"
        },
        {
            "anonymous": false,
            "inputs": [
                {
                    "indexed": true,
                    "internalType": "bytes32",
                    "name": "role",
                    "type": "bytes32"
                },
                {
                    "indexed": true,
                    "internalType": "bytes32",
                    "name": "previousAdminRole",
                    "type": "bytes32"
                },
                {
                    "indexed": true,
                    "internalType": "bytes32",
                    "name": "newAdminRole",
                    "type": "bytes32"
                }
            ],
            "name": "RoleAdminChanged",
            "type": "event"
        },
        {
            "anonymous": false,
            "inputs": [
                {
                    "indexed": true,
                    "internalType": "bytes32",
                    "name": "role",
                    "type": "bytes32"
                },
                {
                    "indexed": true,
                    "internalType": "address",
                    "name": "account",
                    "type": "address"
                },
                {
                    "indexed": true,
                    "internalType": "address",
                    "name": "sender",
                    "type": "address"
                }
            ],
            "name": "RoleGranted",
            "type": "event"
        },
        {
            "anonymous": false,
            "inputs": [
                {
                    "indexed": true,
                    "internalType": "bytes32",
                    "name": "role",
                    "type": "bytes32"
                },
                {
                    "indexed": true,
                    "internalType": "address",
                    "name": "account",
                    "type": "address"
                },
                {
                    "indexed": true,
                    "internalType": "address",
                    "name": "sender",
                    "type": "address"
                }
            ],
            "name": "RoleRevoked",
            "type": "event"
        },
        {
            "inputs": [],
            "name": "DEFAULT_ADMIN_ROLE",
            "outputs": [
                {
                    "internalType": "bytes32",
                    "name": "",
                    "type": "bytes32"
                }
            ],
            "stateMutability": "view",
            "type": "function"
        },
        {
            "inputs": [],
            "name": "MASTER_ROLE",
            "outputs": [
                {
                    "internalType": "bytes32",
                    "name": "",
                    "type": "bytes32"
                }
            ],
            "stateMutability": "view",
            "type": "function"
        },
        {
            "inputs": [],
            "name": "PAUSER_ROLE",
            "outputs": [
                {
                    "internalType": "bytes32",
                    "name": "",
                    "type": "bytes32"
                }
            ],
            "stateMutability": "view",
            "type": "function"
        },
        {
            "inputs": [
                {
                    "components": [
                        {
                            "internalType": "enum GameManager.ContractType",
                            "name": "contractType",
                            "type": "uint8"
                        },
                        {
                            "internalType": "enum GameManager.ActionType",
                            "name": "actionType",
                            "type": "uint8"
                        },
                        {
                            "internalType": "address",
                            "name": "contractAddress",
                            "type": "address"
                        },
                        {
                            "internalType": "address",
                            "name": "spender",
                            "type": "address"
                        },
                        {
                            "internalType": "address",
                            "name": "recipient",
                            "type": "address"
                        },
                        {
                            "internalType": "uint256",
                            "name": "tokenId",
                            "type": "uint256"
                        },
                        {
                            "internalType": "uint256",
                            "name": "amount",
                            "type": "uint256"
                        },
                        {
                            "internalType": "bytes",
                            "name": "data",
                            "type": "bytes"
                        }
                    ],
                    "internalType": "struct GameManager.Action[]",
                    "name": "actions",
                    "type": "tuple[]"
                }
            ],
            "name": "executeActions",
            "outputs": [],
            "stateMutability": "nonpayable",
            "type": "function"
        },
        {
            "inputs": [
                {
                    "internalType": "bytes32",
                    "name": "role",
                    "type": "bytes32"
                }
            ],
            "name": "getRoleAdmin",
            "outputs": [
                {
                    "internalType": "bytes32",
                    "name": "",
                    "type": "bytes32"
                }
            ],
            "stateMutability": "view",
            "type": "function"
        },
        {
            "inputs": [
                {
                    "internalType": "bytes32",
                    "name": "role",
                    "type": "bytes32"
                },
                {
                    "internalType": "uint256",
                    "name": "index",
                    "type": "uint256"
                }
            ],
            "name": "getRoleMember",
            "outputs": [
                {
                    "internalType": "address",
                    "name": "",
                    "type": "address"
                }
            ],
            "stateMutability": "view",
            "type": "function"
        },
        {
            "inputs": [
                {
                    "internalType": "bytes32",
                    "name": "role",
                    "type": "bytes32"
                }
            ],
            "name": "getRoleMemberCount",
            "outputs": [
                {
                    "internalType": "uint256",
                    "name": "",
                    "type": "uint256"
                }
            ],
            "stateMutability": "view",
            "type": "function"
        },
        {
            "inputs": [
                {
                    "internalType": "bytes32",
                    "name": "role",
                    "type": "bytes32"
                },
                {
                    "internalType": "address",
                    "name": "account",
                    "type": "address"
                }
            ],
            "name": "grantRole",
            "outputs": [],
            "stateMutability": "nonpayable",
            "type": "function"
        },
        {
            "inputs": [
                {
                    "internalType": "bytes32",
                    "name": "role",
                    "type": "bytes32"
                },
                {
                    "internalType": "address",
                    "name": "account",
                    "type": "address"
                }
            ],
            "name": "hasRole",
            "outputs": [
                {
                    "internalType": "bool",
                    "name": "",
                    "type": "bool"
                }
            ],
            "stateMutability": "view",
            "type": "function"
        },
        {
            "inputs": [],
            "name": "initialize",
            "outputs": [],
            "stateMutability": "nonpayable",
            "type": "function"
        },
        {
            "inputs": [
                {
                    "internalType": "bytes32",
                    "name": "role",
                    "type": "bytes32"
                },
                {
                    "internalType": "address",
                    "name": "account",
                    "type": "address"
                }
            ],
            "name": "renounceRole",
            "outputs": [],
            "stateMutability": "nonpayable",
            "type": "function"
        },
        {
            "inputs": [
                {
                    "internalType": "bytes32",
                    "name": "role",
                    "type": "bytes32"
                },
                {
                    "internalType": "address",
                    "name": "account",
                    "type": "address"
                }
            ],
            "name": "revokeRole",
            "outputs": [],
            "stateMutability": "nonpayable",
            "type": "function"
        },
        {
            "inputs": [
                {
                    "internalType": "bytes4",
                    "name": "interfaceId",
                    "type": "bytes4"
                }
            ],
            "name": "supportsInterface",
            "outputs": [
                {
                    "internalType": "bool",
                    "name": "",
                    "type": "bool"
                }
            ],
            "stateMutability": "view",
            "type": "function"
        }
    ],
    "bytecode": "608060405234801561001057600080fd5b5061155b806100206000396000f3fe608060405234801561001057600080fd5b50600436106100cf5760003560e01c806391d148541161008c578063ca15c87311610066578063ca15c873146101b6578063d547741f146101c9578063dc224863146101dc578063e63ab1e91461020357600080fd5b806391d1485414610188578063a217fddf1461019b578063b7761697146101a357600080fd5b806301ffc9a7146100d4578063248a9ca3146100fc5780632f2ff15d1461012d57806336568abe146101425780638129fc1c146101555780639010d07c1461015d575b600080fd5b6100e76100e2366004610fe9565b61022a565b60405190151581526020015b60405180910390f35b61011f61010a366004611013565b60009081526065602052604090206001015490565b6040519081526020016100f3565b61014061013b366004611048565b610255565b005b610140610150366004611048565b61027f565b610140610302565b61017061016b366004611074565b610472565b6040516001600160a01b0390911681526020016100f3565b6100e7610196366004611048565b610491565b61011f600081565b6101406101b1366004611096565b6104bc565b61011f6101c4366004611013565b610a13565b6101406101d7366004611048565b610a2a565b61011f7f8b8c0776df2c2176edf6f82391c35ea4891146d7a976ee36fd07f1a6fb4ead4c81565b61011f7f65d7a28e3265b37a6474929f336521b332c1681b933f6cb9f3376673440d862a81565b60006001600160e01b03198216635a05180f60e01b148061024f575061024f82610a4f565b92915050565b60008281526065602052604090206001015461027081610a84565b61027a8383610a8e565b505050565b6001600160a01b03811633146102f45760405162461bcd60e51b815260206004820152602f60248201527f416363657373436f6e74726f6c3a2063616e206f6e6c792072656e6f756e636560448201526e103937b632b9903337b91039b2b63360891b60648201526084015b60405180910390fd5b6102fe8282610ab0565b5050565b600054610100900460ff16158080156103225750600054600160ff909116105b8061033c5750303b15801561033c575060005460ff166001145b61039f5760405162461bcd60e51b815260206004820152602e60248201527f496e697469616c697a61626c653a20636f6e747261637420697320616c72656160448201526d191e481a5b9a5d1a585b1a5e995960921b60648201526084016102eb565b6000805460ff1916600117905580156103c2576000805461ff0019166101001790555b6103ca610ad2565b6103d5600033610b3f565b6103ff7f8b8c0776df2c2176edf6f82391c35ea4891146d7a976ee36fd07f1a6fb4ead4c33610b3f565b6104297f65d7a28e3265b37a6474929f336521b332c1681b933f6cb9f3376673440d862a33610b3f565b801561046f576000805461ff0019169055604051600181527f7f26b83ff96e1f2b6a682f133852f6798a09c465da95921460cefb38474024989060200160405180910390a15b50565b600082815260976020526040812061048a9083610b49565b9392505050565b60009182526065602090815260408084206001600160a01b0393909316845291905290205460ff1690565b7f8b8c0776df2c2176edf6f82391c35ea4891146d7a976ee36fd07f1a6fb4ead4c6104e681610a84565b60005b82811015610a0d5760008484838181106105055761050561110b565b90506020028101906105179190611121565b6105209061121d565b9050600081516002811115610537576105376112cd565b036106f0576040810151600082602001516002811115610559576105596112cd565b036105dd57606082015160c083015160405163079cc67960e41b81526001600160a01b038416926379cc6790926105a6926004016001600160a01b03929092168252602082015260400190565b600060405180830381600087803b1580156105c057600080fd5b505af11580156105d4573d6000803e3d6000fd5b505050506106ea565b6001826020015160028111156105f5576105f56112cd565b0361064257608082015160c08301516040516340c10f1960e01b81526001600160a01b038416926340c10f19926105a6926004016001600160a01b03929092168252602082015260400190565b60028260200151600281111561065a5761065a6112cd565b036106ea576060820151608083015160c08401516040516323b872dd60e01b81526001600160a01b03938416600482015291831660248301526044820152908216906323b872dd906064016020604051808303816000875af11580156106c4573d6000803e3d6000fd5b505050506040513d601f19601f820116820180604052508101906106e891906112e3565b505b506109fa565b600181516002811115610705576107056112cd565b03610847576040810151600082602001516002811115610727576107276112cd565b0361075f5760a0820151604051630852cd8d60e31b815260048101919091526001600160a01b038216906342966c68906024016105a6565b600182602001516002811115610777576107776112cd565b036107b05760808201516040516335313c2160e11b81526001600160a01b03918216600482015290821690636a627842906024016105a6565b6002826020015160028111156107c8576107c86112cd565b036106ea576060820151608083015160a084015160e0850151604051635c46a7ef60e11b81526001600160a01b0386169463b88d4fde9461080f9491939092600401611355565b600060405180830381600087803b15801561082957600080fd5b505af115801561083d573d6000803e3d6000fd5b50505050506109fa565b60028151600281111561085c5761085c6112cd565b036109fa57604081015160008260200151600281111561087e5761087e6112cd565b0361090157606082015160a083015160c0840151604051637a94c56560e11b81526001600160a01b039384166004820152602481019290925260448201529082169063f5298aca906064015b600060405180830381600087803b1580156108e457600080fd5b505af11580156108f8573d6000803e3d6000fd5b505050506109f8565b600182602001516002811115610919576109196112cd565b0361096057608082015160a083015160c084015160e085015160405163731133e960e01b81526001600160a01b0386169463731133e9946108ca9491939092600401611392565b600282602001516002811115610978576109786112cd565b036109f857806001600160a01b031663f242432a836060015184608001518560a001518660c001518760e001516040518663ffffffff1660e01b81526004016109c59594939291906113bf565b600060405180830381600087803b1580156109df57600080fd5b505af11580156109f3573d6000803e3d6000fd5b505050505b505b5080610a058161141a565b9150506104e9565b50505050565b600081815260976020526040812061024f90610b55565b600082815260656020526040902060010154610a4581610a84565b61027a8383610ab0565b60006001600160e01b03198216637965db0b60e01b148061024f57506301ffc9a760e01b6001600160e01b031983161461024f565b61046f8133610b5f565b610a988282610bb8565b600082815260976020526040902061027a9082610c3e565b610aba8282610c53565b600082815260976020526040902061027a9082610cba565b600054610100900460ff16610b3d5760405162461bcd60e51b815260206004820152602b60248201527f496e697469616c697a61626c653a20636f6e7472616374206973206e6f74206960448201526a6e697469616c697a696e6760a81b60648201526084016102eb565b565b6102fe8282610a8e565b600061048a8383610ccf565b600061024f825490565b610b698282610491565b6102fe57610b7681610cf9565b610b81836020610d0b565b604051602001610b92929190611433565b60408051601f198184030181529082905262461bcd60e51b82526102eb916004016114a8565b610bc28282610491565b6102fe5760008281526065602090815260408083206001600160a01b03851684529091529020805460ff19166001179055610bfa3390565b6001600160a01b0316816001600160a01b0316837f2f8788117e7eff1d82e926ec794901d17c78024a50270940304540a733656f0d60405160405180910390a45050565b600061048a836001600160a01b038416610ea7565b610c5d8282610491565b156102fe5760008281526065602090815260408083206001600160a01b0385168085529252808320805460ff1916905551339285917ff6391f5c32d9c69d2a47ea670b442974b53935d1edc7fd64eb21e047a839171b9190a45050565b600061048a836001600160a01b038416610ef6565b6000826000018281548110610ce657610ce661110b565b9060005260206000200154905092915050565b606061024f6001600160a01b03831660145b60606000610d1a8360026114bb565b610d259060026114d2565b67ffffffffffffffff811115610d3d57610d3d611141565b6040519080825280601f01601f191660200182016040528015610d67576020820181803683370190505b509050600360fc1b81600081518110610d8257610d8261110b565b60200101906001600160f81b031916908160001a905350600f60fb1b81600181518110610db157610db161110b565b60200101906001600160f81b031916908160001a9053506000610dd58460026114bb565b610de09060016114d2565b90505b6001811115610e58576f181899199a1a9b1b9c1cb0b131b232b360811b85600f1660108110610e1457610e1461110b565b1a60f81b828281518110610e2a57610e2a61110b565b60200101906001600160f81b031916908160001a90535060049490941c93610e51816114e5565b9050610de3565b50831561048a5760405162461bcd60e51b815260206004820181905260248201527f537472696e67733a20686578206c656e67746820696e73756666696369656e7460448201526064016102eb565b6000818152600183016020526040812054610eee5750815460018181018455600084815260208082209093018490558454848252828601909352604090209190915561024f565b50600061024f565b60008181526001830160205260408120548015610fdf576000610f1a6001836114fc565b8554909150600090610f2e906001906114fc565b9050818114610f93576000866000018281548110610f4e57610f4e61110b565b9060005260206000200154905080876000018481548110610f7157610f7161110b565b6000918252602080832090910192909255918252600188019052604090208390555b8554869080610fa457610fa461150f565b60019003818190600052602060002001600090559055856001016000868152602001908152602001600020600090556001935050505061024f565b600091505061024f565b600060208284031215610ffb57600080fd5b81356001600160e01b03198116811461048a57600080fd5b60006020828403121561102557600080fd5b5035919050565b80356001600160a01b038116811461104357600080fd5b919050565b6000806040838503121561105b57600080fd5b8235915061106b6020840161102c565b90509250929050565b6000806040838503121561108757600080fd5b50508035926020909101359150565b600080602083850312156110a957600080fd5b823567ffffffffffffffff808211156110c157600080fd5b818501915085601f8301126110d557600080fd5b8135818111156110e457600080fd5b8660208260051b85010111156110f957600080fd5b60209290920196919550909350505050565b634e487b7160e01b600052603260045260246000fd5b6000823560fe1983360301811261113757600080fd5b9190910192915050565b634e487b7160e01b600052604160045260246000fd5b604051610100810167ffffffffffffffff8111828210171561117b5761117b611141565b60405290565b80356003811061104357600080fd5b600082601f8301126111a157600080fd5b813567ffffffffffffffff808211156111bc576111bc611141565b604051601f8301601f19908116603f011681019082821181831017156111e4576111e4611141565b816040528381528660208588010111156111fd57600080fd5b836020870160208301376000602085830101528094505050505092915050565b6000610100823603121561123057600080fd5b611238611157565b61124183611181565b815261124f60208401611181565b60208201526112606040840161102c565b60408201526112716060840161102c565b60608201526112826080840161102c565b608082015260a083013560a082015260c083013560c082015260e083013567ffffffffffffffff8111156112b557600080fd5b6112c136828601611190565b60e08301525092915050565b634e487b7160e01b600052602160045260246000fd5b6000602082840312156112f557600080fd5b8151801515811461048a57600080fd5b60005b83811015611320578181015183820152602001611308565b50506000910152565b60008151808452611341816020860160208601611305565b601f01601f19169290920160200192915050565b6001600160a01b038581168252841660208201526040810183905260806060820181905260009061138890830184611329565b9695505050505050565b60018060a01b03851681528360208201528260408201526080606082015260006113886080830184611329565b6001600160a01b03868116825285166020820152604081018490526060810183905260a0608082018190526000906113f990830184611329565b979650505050505050565b634e487b7160e01b600052601160045260246000fd5b60006001820161142c5761142c611404565b5060010190565b7f416363657373436f6e74726f6c3a206163636f756e742000000000000000000081526000835161146b816017850160208801611305565b7001034b99036b4b9b9b4b733903937b6329607d1b601791840191820152835161149c816028840160208801611305565b01602801949350505050565b60208152600061048a6020830184611329565b808202811582820484141761024f5761024f611404565b8082018082111561024f5761024f611404565b6000816114f4576114f4611404565b506000190190565b8181038181111561024f5761024f611404565b634e487b7160e01b600052603160045260246000fdfea26469706673582212201a2be80b7658a055499e5f02e1371c1a62499939a6e24b537a9e1ddc784483c764736f6c63430008130033",
    "sourcePath": "c:/Users/EddyB/source/repos/youtpout/HeroContracts/contracts/GameManager.sol",
    "compiler": {
        "name": "solc",
        "version": "0.8.19+commit.7dd6d404"
    },
    "functionHashes": {
        "DEFAULT_ADMIN_ROLE()": "a217fddf",
        "MASTER_ROLE()": "dc224863",
        "PAUSER_ROLE()": "e63ab1e9",
        "executeActions((uint8,uint8,address,address,address,uint256,uint256,bytes)[])": "b7761697",
        "getRoleAdmin(bytes32)": "248a9ca3",
        "getRoleMember(bytes32,uint256)": "9010d07c",
        "getRoleMemberCount(bytes32)": "ca15c873",
        "grantRole(bytes32,address)": "2f2ff15d",
        "hasRole(bytes32,address)": "91d14854",
        "initialize()": "8129fc1c",
        "renounceRole(bytes32,address)": "36568abe",
        "revokeRole(bytes32,address)": "d547741f",
        "supportsInterface(bytes4)": "01ffc9a7"
    },
    "gasEstimates": {
        "creation": {
            "codeDepositCost": "1093400",
            "executionCost": "1134",
            "totalCost": "1094534"
        },
        "external": {
            "DEFAULT_ADMIN_ROLE()": "240",
            "MASTER_ROLE()": "261",
            "PAUSER_ROLE()": "283",
            "executeActions((uint8,uint8,address,address,address,uint256,uint256,bytes)[])": "infinite",
            "getRoleAdmin(bytes32)": "2467",
            "getRoleMember(bytes32,uint256)": "infinite",
            "getRoleMemberCount(bytes32)": "infinite",
            "grantRole(bytes32,address)": "infinite",
            "hasRole(bytes32,address)": "2677",
            "initialize()": "infinite",
            "renounceRole(bytes32,address)": "infinite",
            "revokeRole(bytes32,address)": "infinite",
            "supportsInterface(bytes4)": "infinite"
        }
    }
}