{
    "contractName": "GameManagerV2",
    "abi": [
        {
            "anonymous": false,
            "inputs": [
                {
                    "indexed": false,
                    "internalType": "uint8",
                    "name": "version",
                    "type": "uint8"
                }
            ],
            "name": "Initialized",
            "type": "event"
        },
        {
            "anonymous": false,
            "inputs": [
                {
                    "indexed": true,
                    "internalType": "bytes32",
                    "name": "role",
                    "type": "bytes32"
                },
                {
                    "indexed": true,
                    "internalType": "bytes32",
                    "name": "previousAdminRole",
                    "type": "bytes32"
                },
                {
                    "indexed": true,
                    "internalType": "bytes32",
                    "name": "newAdminRole",
                    "type": "bytes32"
                }
            ],
            "name": "RoleAdminChanged",
            "type": "event"
        },
        {
            "anonymous": false,
            "inputs": [
                {
                    "indexed": true,
                    "internalType": "bytes32",
                    "name": "role",
                    "type": "bytes32"
                },
                {
                    "indexed": true,
                    "internalType": "address",
                    "name": "account",
                    "type": "address"
                },
                {
                    "indexed": true,
                    "internalType": "address",
                    "name": "sender",
                    "type": "address"
                }
            ],
            "name": "RoleGranted",
            "type": "event"
        },
        {
            "anonymous": false,
            "inputs": [
                {
                    "indexed": true,
                    "internalType": "bytes32",
                    "name": "role",
                    "type": "bytes32"
                },
                {
                    "indexed": true,
                    "internalType": "address",
                    "name": "account",
                    "type": "address"
                },
                {
                    "indexed": true,
                    "internalType": "address",
                    "name": "sender",
                    "type": "address"
                }
            ],
            "name": "RoleRevoked",
            "type": "event"
        },
        {
            "inputs": [],
            "name": "DEFAULT_ADMIN_ROLE",
            "outputs": [
                {
                    "internalType": "bytes32",
                    "name": "",
                    "type": "bytes32"
                }
            ],
            "stateMutability": "view",
            "type": "function"
        },
        {
            "inputs": [],
            "name": "MASTER_ROLE",
            "outputs": [
                {
                    "internalType": "bytes32",
                    "name": "",
                    "type": "bytes32"
                }
            ],
            "stateMutability": "view",
            "type": "function"
        },
        {
            "inputs": [],
            "name": "PAUSER_ROLE",
            "outputs": [
                {
                    "internalType": "bytes32",
                    "name": "",
                    "type": "bytes32"
                }
            ],
            "stateMutability": "view",
            "type": "function"
        },
        {
            "inputs": [
                {
                    "components": [
                        {
                            "internalType": "enum GameManagerV2.ContractType",
                            "name": "contractType",
                            "type": "uint8"
                        },
                        {
                            "internalType": "enum GameManagerV2.ActionType",
                            "name": "actionType",
                            "type": "uint8"
                        },
                        {
                            "internalType": "address",
                            "name": "contractAddress",
                            "type": "address"
                        },
                        {
                            "internalType": "address",
                            "name": "spender",
                            "type": "address"
                        },
                        {
                            "internalType": "address",
                            "name": "recipient",
                            "type": "address"
                        },
                        {
                            "internalType": "uint256",
                            "name": "tokenId",
                            "type": "uint256"
                        },
                        {
                            "internalType": "uint256",
                            "name": "amount",
                            "type": "uint256"
                        },
                        {
                            "internalType": "bytes",
                            "name": "data",
                            "type": "bytes"
                        }
                    ],
                    "internalType": "struct GameManagerV2.Action[]",
                    "name": "actions",
                    "type": "tuple[]"
                }
            ],
            "name": "executeActions",
            "outputs": [],
            "stateMutability": "nonpayable",
            "type": "function"
        },
        {
            "inputs": [
                {
                    "internalType": "bytes32",
                    "name": "role",
                    "type": "bytes32"
                }
            ],
            "name": "getRoleAdmin",
            "outputs": [
                {
                    "internalType": "bytes32",
                    "name": "",
                    "type": "bytes32"
                }
            ],
            "stateMutability": "view",
            "type": "function"
        },
        {
            "inputs": [
                {
                    "internalType": "bytes32",
                    "name": "role",
                    "type": "bytes32"
                },
                {
                    "internalType": "uint256",
                    "name": "index",
                    "type": "uint256"
                }
            ],
            "name": "getRoleMember",
            "outputs": [
                {
                    "internalType": "address",
                    "name": "",
                    "type": "address"
                }
            ],
            "stateMutability": "view",
            "type": "function"
        },
        {
            "inputs": [
                {
                    "internalType": "bytes32",
                    "name": "role",
                    "type": "bytes32"
                }
            ],
            "name": "getRoleMemberCount",
            "outputs": [
                {
                    "internalType": "uint256",
                    "name": "",
                    "type": "uint256"
                }
            ],
            "stateMutability": "view",
            "type": "function"
        },
        {
            "inputs": [
                {
                    "internalType": "bytes32",
                    "name": "role",
                    "type": "bytes32"
                },
                {
                    "internalType": "address",
                    "name": "account",
                    "type": "address"
                }
            ],
            "name": "grantRole",
            "outputs": [],
            "stateMutability": "nonpayable",
            "type": "function"
        },
        {
            "inputs": [
                {
                    "internalType": "bytes32",
                    "name": "role",
                    "type": "bytes32"
                },
                {
                    "internalType": "address",
                    "name": "account",
                    "type": "address"
                }
            ],
            "name": "hasRole",
            "outputs": [
                {
                    "internalType": "bool",
                    "name": "",
                    "type": "bool"
                }
            ],
            "stateMutability": "view",
            "type": "function"
        },
        {
            "inputs": [],
            "name": "initialize",
            "outputs": [],
            "stateMutability": "nonpayable",
            "type": "function"
        },
        {
            "inputs": [
                {
                    "internalType": "bytes32",
                    "name": "role",
                    "type": "bytes32"
                },
                {
                    "internalType": "address",
                    "name": "account",
                    "type": "address"
                }
            ],
            "name": "renounceRole",
            "outputs": [],
            "stateMutability": "nonpayable",
            "type": "function"
        },
        {
            "inputs": [
                {
                    "internalType": "bytes32",
                    "name": "role",
                    "type": "bytes32"
                },
                {
                    "internalType": "address",
                    "name": "account",
                    "type": "address"
                }
            ],
            "name": "revokeRole",
            "outputs": [],
            "stateMutability": "nonpayable",
            "type": "function"
        },
        {
            "inputs": [
                {
                    "internalType": "bytes4",
                    "name": "interfaceId",
                    "type": "bytes4"
                }
            ],
            "name": "supportsInterface",
            "outputs": [
                {
                    "internalType": "bool",
                    "name": "",
                    "type": "bool"
                }
            ],
            "stateMutability": "view",
            "type": "function"
        }
    ],
    "bytecode": "608060405234801561001057600080fd5b506115e1806100206000396000f3fe608060405234801561001057600080fd5b50600436106100cf5760003560e01c806391d148541161008c578063ca15c87311610066578063ca15c873146101b6578063d547741f146101c9578063dc224863146101dc578063e63ab1e91461020357600080fd5b806391d1485414610188578063a217fddf1461019b578063b7761697146101a357600080fd5b806301ffc9a7146100d4578063248a9ca3146100fc5780632f2ff15d1461012d57806336568abe146101425780638129fc1c146101555780639010d07c1461015d575b600080fd5b6100e76100e236600461105d565b61022a565b60405190151581526020015b60405180910390f35b61011f61010a366004611087565b60009081526065602052604090206001015490565b6040519081526020016100f3565b61014061013b3660046110bc565b610255565b005b6101406101503660046110bc565b61027f565b610140610302565b61017061016b3660046110e8565b610472565b6040516001600160a01b0390911681526020016100f3565b6100e76101963660046110bc565b610491565b61011f600081565b6101406101b136600461110a565b6104bc565b61011f6101c4366004611087565b610a87565b6101406101d73660046110bc565b610a9e565b61011f7f8b8c0776df2c2176edf6f82391c35ea4891146d7a976ee36fd07f1a6fb4ead4c81565b61011f7f65d7a28e3265b37a6474929f336521b332c1681b933f6cb9f3376673440d862a81565b60006001600160e01b03198216635a05180f60e01b148061024f575061024f82610ac3565b92915050565b60008281526065602052604090206001015461027081610af8565b61027a8383610b02565b505050565b6001600160a01b03811633146102f45760405162461bcd60e51b815260206004820152602f60248201527f416363657373436f6e74726f6c3a2063616e206f6e6c792072656e6f756e636560448201526e103937b632b9903337b91039b2b63360891b60648201526084015b60405180910390fd5b6102fe8282610b24565b5050565b600054610100900460ff16158080156103225750600054600160ff909116105b8061033c5750303b15801561033c575060005460ff166001145b61039f5760405162461bcd60e51b815260206004820152602e60248201527f496e697469616c697a61626c653a20636f6e747261637420697320616c72656160448201526d191e481a5b9a5d1a585b1a5e995960921b60648201526084016102eb565b6000805460ff1916600117905580156103c2576000805461ff0019166101001790555b6103ca610b46565b6103d5600033610bb3565b6103ff7f8b8c0776df2c2176edf6f82391c35ea4891146d7a976ee36fd07f1a6fb4ead4c33610bb3565b6104297f65d7a28e3265b37a6474929f336521b332c1681b933f6cb9f3376673440d862a33610bb3565b801561046f576000805461ff0019169055604051600181527f7f26b83ff96e1f2b6a682f133852f6798a09c465da95921460cefb38474024989060200160405180910390a15b50565b600082815260976020526040812061048a9083610bbd565b9392505050565b60009182526065602090815260408084206001600160a01b0393909316845291905290205460ff1690565b7f8b8c0776df2c2176edf6f82391c35ea4891146d7a976ee36fd07f1a6fb4ead4c6104e681610af8565b60005b82811015610a815760008484838181106105055761050561117f565b90506020028101906105179190611195565b61052090611291565b905060008151600381111561053757610537611341565b036106f057604081015160008260200151600381111561055957610559611341565b036105dd57606082015160c083015160405163079cc67960e41b81526001600160a01b038416926379cc6790926105a6926004016001600160a01b03929092168252602082015260400190565b600060405180830381600087803b1580156105c057600080fd5b505af11580156105d4573d6000803e3d6000fd5b505050506106ea565b6001826020015160038111156105f5576105f5611341565b0361064257608082015160c08301516040516340c10f1960e01b81526001600160a01b038416926340c10f19926105a6926004016001600160a01b03929092168252602082015260400190565b60028260200151600381111561065a5761065a611341565b036106ea576060820151608083015160c08401516040516323b872dd60e01b81526001600160a01b03938416600482015291831660248301526044820152908216906323b872dd906064016020604051808303816000875af11580156106c4573d6000803e3d6000fd5b505050506040513d601f19601f820116820180604052508101906106e89190611357565b505b50610a6e565b60018151600381111561070557610705611341565b0361084757604081015160008260200151600381111561072757610727611341565b0361075f5760a0820151604051630852cd8d60e31b815260048101919091526001600160a01b038216906342966c68906024016105a6565b60018260200151600381111561077757610777611341565b036107b05760808201516040516335313c2160e11b81526001600160a01b03918216600482015290821690636a627842906024016105a6565b6002826020015160038111156107c8576107c8611341565b036106ea576060820151608083015160a084015160e0850151604051635c46a7ef60e11b81526001600160a01b0386169463b88d4fde9461080f94919390926004016113c9565b600060405180830381600087803b15801561082957600080fd5b505af115801561083d573d6000803e3d6000fd5b5050505050610a6e565b60028151600381111561085c5761085c611341565b0361099257604081015160008260200151600381111561087e5761087e611341565b036108ce57606082015160a083015160c0840151604051637a94c56560e11b81526001600160a01b039384166004820152602481019290925260448201529082169063f5298aca906064016105a6565b6001826020015160038111156108e6576108e6611341565b0361092d57608082015160a083015160c084015160e085015160405163731133e960e01b81526001600160a01b0386169463731133e9946105a69491939092600401611406565b60028260200151600381111561094557610945611341565b036106ea57806001600160a01b031663f242432a836060015184608001518560a001518660c001518760e001516040518663ffffffff1660e01b815260040161080f959493929190611433565b6003815160038111156109a7576109a7611341565b03610a6e576003816020015160038111156109c4576109c4611341565b03610a6e57600081604001516001600160a01b03168260e001516040516109eb9190611478565b6000604051808303816000865af19150503d8060008114610a28576040519150601f19603f3d011682016040523d82523d6000602084013e610a2d565b606091505b5050905080610a6c5760405162461bcd60e51b815260206004820152600b60248201526a10d85b1b0819985a5b195960aa1b60448201526064016102eb565b505b5080610a79816114a0565b9150506104e9565b50505050565b600081815260976020526040812061024f90610bc9565b600082815260656020526040902060010154610ab981610af8565b61027a8383610b24565b60006001600160e01b03198216637965db0b60e01b148061024f57506301ffc9a760e01b6001600160e01b031983161461024f565b61046f8133610bd3565b610b0c8282610c2c565b600082815260976020526040902061027a9082610cb2565b610b2e8282610cc7565b600082815260976020526040902061027a9082610d2e565b600054610100900460ff16610bb15760405162461bcd60e51b815260206004820152602b60248201527f496e697469616c697a61626c653a20636f6e7472616374206973206e6f74206960448201526a6e697469616c697a696e6760a81b60648201526084016102eb565b565b6102fe8282610b02565b600061048a8383610d43565b600061024f825490565b610bdd8282610491565b6102fe57610bea81610d6d565b610bf5836020610d7f565b604051602001610c069291906114b9565b60408051601f198184030181529082905262461bcd60e51b82526102eb9160040161152e565b610c368282610491565b6102fe5760008281526065602090815260408083206001600160a01b03851684529091529020805460ff19166001179055610c6e3390565b6001600160a01b0316816001600160a01b0316837f2f8788117e7eff1d82e926ec794901d17c78024a50270940304540a733656f0d60405160405180910390a45050565b600061048a836001600160a01b038416610f1b565b610cd18282610491565b156102fe5760008281526065602090815260408083206001600160a01b0385168085529252808320805460ff1916905551339285917ff6391f5c32d9c69d2a47ea670b442974b53935d1edc7fd64eb21e047a839171b9190a45050565b600061048a836001600160a01b038416610f6a565b6000826000018281548110610d5a57610d5a61117f565b9060005260206000200154905092915050565b606061024f6001600160a01b03831660145b60606000610d8e836002611541565b610d99906002611558565b67ffffffffffffffff811115610db157610db16111b5565b6040519080825280601f01601f191660200182016040528015610ddb576020820181803683370190505b509050600360fc1b81600081518110610df657610df661117f565b60200101906001600160f81b031916908160001a905350600f60fb1b81600181518110610e2557610e2561117f565b60200101906001600160f81b031916908160001a9053506000610e49846002611541565b610e54906001611558565b90505b6001811115610ecc576f181899199a1a9b1b9c1cb0b131b232b360811b85600f1660108110610e8857610e8861117f565b1a60f81b828281518110610e9e57610e9e61117f565b60200101906001600160f81b031916908160001a90535060049490941c93610ec58161156b565b9050610e57565b50831561048a5760405162461bcd60e51b815260206004820181905260248201527f537472696e67733a20686578206c656e67746820696e73756666696369656e7460448201526064016102eb565b6000818152600183016020526040812054610f625750815460018181018455600084815260208082209093018490558454848252828601909352604090209190915561024f565b50600061024f565b60008181526001830160205260408120548015611053576000610f8e600183611582565b8554909150600090610fa290600190611582565b9050818114611007576000866000018281548110610fc257610fc261117f565b9060005260206000200154905080876000018481548110610fe557610fe561117f565b6000918252602080832090910192909255918252600188019052604090208390555b855486908061101857611018611595565b60019003818190600052602060002001600090559055856001016000868152602001908152602001600020600090556001935050505061024f565b600091505061024f565b60006020828403121561106f57600080fd5b81356001600160e01b03198116811461048a57600080fd5b60006020828403121561109957600080fd5b5035919050565b80356001600160a01b03811681146110b757600080fd5b919050565b600080604083850312156110cf57600080fd5b823591506110df602084016110a0565b90509250929050565b600080604083850312156110fb57600080fd5b50508035926020909101359150565b6000806020838503121561111d57600080fd5b823567ffffffffffffffff8082111561113557600080fd5b818501915085601f83011261114957600080fd5b81358181111561115857600080fd5b8660208260051b850101111561116d57600080fd5b60209290920196919550909350505050565b634e487b7160e01b600052603260045260246000fd5b6000823560fe198336030181126111ab57600080fd5b9190910192915050565b634e487b7160e01b600052604160045260246000fd5b604051610100810167ffffffffffffffff811182821017156111ef576111ef6111b5565b60405290565b8035600481106110b757600080fd5b600082601f83011261121557600080fd5b813567ffffffffffffffff80821115611230576112306111b5565b604051601f8301601f19908116603f01168101908282118183101715611258576112586111b5565b8160405283815286602085880101111561127157600080fd5b836020870160208301376000602085830101528094505050505092915050565b600061010082360312156112a457600080fd5b6112ac6111cb565b6112b5836111f5565b81526112c3602084016111f5565b60208201526112d4604084016110a0565b60408201526112e5606084016110a0565b60608201526112f6608084016110a0565b608082015260a083013560a082015260c083013560c082015260e083013567ffffffffffffffff81111561132957600080fd5b61133536828601611204565b60e08301525092915050565b634e487b7160e01b600052602160045260246000fd5b60006020828403121561136957600080fd5b8151801515811461048a57600080fd5b60005b8381101561139457818101518382015260200161137c565b50506000910152565b600081518084526113b5816020860160208601611379565b601f01601f19169290920160200192915050565b6001600160a01b03858116825284166020820152604081018390526080606082018190526000906113fc9083018461139d565b9695505050505050565b60018060a01b03851681528360208201528260408201526080606082015260006113fc608083018461139d565b6001600160a01b03868116825285166020820152604081018490526060810183905260a06080820181905260009061146d9083018461139d565b979650505050505050565b600082516111ab818460208701611379565b634e487b7160e01b600052601160045260246000fd5b6000600182016114b2576114b261148a565b5060010190565b7f416363657373436f6e74726f6c3a206163636f756e74200000000000000000008152600083516114f1816017850160208801611379565b7001034b99036b4b9b9b4b733903937b6329607d1b6017918401918201528351611522816028840160208801611379565b01602801949350505050565b60208152600061048a602083018461139d565b808202811582820484141761024f5761024f61148a565b8082018082111561024f5761024f61148a565b60008161157a5761157a61148a565b506000190190565b8181038181111561024f5761024f61148a565b634e487b7160e01b600052603160045260246000fdfea2646970667358221220b7c3a3ab31165313724cfaad66e457ab6ba34cb7a17f2f8c0d9b5a846d8e474564736f6c63430008130033",
    "sourcePath": "c:/Users/EddyB/source/repos/youtpout/HeroContracts/contracts/GameManagerv2.sol",
    "compiler": {
        "name": "solc",
        "version": "0.8.19+commit.7dd6d404"
    },
    "functionHashes": {
        "DEFAULT_ADMIN_ROLE()": "a217fddf",
        "MASTER_ROLE()": "dc224863",
        "PAUSER_ROLE()": "e63ab1e9",
        "executeActions((uint8,uint8,address,address,address,uint256,uint256,bytes)[])": "b7761697",
        "getRoleAdmin(bytes32)": "248a9ca3",
        "getRoleMember(bytes32,uint256)": "9010d07c",
        "getRoleMemberCount(bytes32)": "ca15c873",
        "grantRole(bytes32,address)": "2f2ff15d",
        "hasRole(bytes32,address)": "91d14854",
        "initialize()": "8129fc1c",
        "renounceRole(bytes32,address)": "36568abe",
        "revokeRole(bytes32,address)": "d547741f",
        "supportsInterface(bytes4)": "01ffc9a7"
    },
    "gasEstimates": {
        "creation": {
            "codeDepositCost": "1120200",
            "executionCost": "1167",
            "totalCost": "1121367"
        },
        "external": {
            "DEFAULT_ADMIN_ROLE()": "240",
            "MASTER_ROLE()": "261",
            "PAUSER_ROLE()": "283",
            "executeActions((uint8,uint8,address,address,address,uint256,uint256,bytes)[])": "infinite",
            "getRoleAdmin(bytes32)": "2467",
            "getRoleMember(bytes32,uint256)": "infinite",
            "getRoleMemberCount(bytes32)": "infinite",
            "grantRole(bytes32,address)": "infinite",
            "hasRole(bytes32,address)": "2677",
            "initialize()": "infinite",
            "renounceRole(bytes32,address)": "infinite",
            "revokeRole(bytes32,address)": "infinite",
            "supportsInterface(bytes4)": "infinite"
        }
    }
}