{
    "contractName": "Hero",
    "abi": [
        {
            "inputs": [],
            "stateMutability": "nonpayable",
            "type": "constructor"
        },
        {
            "anonymous": false,
            "inputs": [
                {
                    "indexed": true,
                    "internalType": "address",
                    "name": "owner",
                    "type": "address"
                },
                {
                    "indexed": true,
                    "internalType": "address",
                    "name": "approved",
                    "type": "address"
                },
                {
                    "indexed": true,
                    "internalType": "uint256",
                    "name": "tokenId",
                    "type": "uint256"
                }
            ],
            "name": "Approval",
            "type": "event"
        },
        {
            "anonymous": false,
            "inputs": [
                {
                    "indexed": true,
                    "internalType": "address",
                    "name": "owner",
                    "type": "address"
                },
                {
                    "indexed": true,
                    "internalType": "address",
                    "name": "operator",
                    "type": "address"
                },
                {
                    "indexed": false,
                    "internalType": "bool",
                    "name": "approved",
                    "type": "bool"
                }
            ],
            "name": "ApprovalForAll",
            "type": "event"
        },
        {
            "anonymous": false,
            "inputs": [
                {
                    "indexed": true,
                    "internalType": "uint256",
                    "name": "recipientTokenId",
                    "type": "uint256"
                },
                {
                    "components": [
                        {
                            "internalType": "bool",
                            "name": "burn",
                            "type": "bool"
                        },
                        {
                            "internalType": "enum Hero.ContractType",
                            "name": "contractType",
                            "type": "uint8"
                        },
                        {
                            "internalType": "uint16",
                            "name": "position",
                            "type": "uint16"
                        },
                        {
                            "internalType": "address",
                            "name": "contractAddress",
                            "type": "address"
                        },
                        {
                            "internalType": "uint256",
                            "name": "tokenId",
                            "type": "uint256"
                        },
                        {
                            "internalType": "uint256",
                            "name": "recipientTokenId",
                            "type": "uint256"
                        }
                    ],
                    "indexed": true,
                    "internalType": "struct Hero.LinkInfo",
                    "name": "storeInfo",
                    "type": "tuple"
                }
            ],
            "name": "Delinked",
            "type": "event"
        },
        {
            "anonymous": false,
            "inputs": [
                {
                    "indexed": false,
                    "internalType": "uint8",
                    "name": "version",
                    "type": "uint8"
                }
            ],
            "name": "Initialized",
            "type": "event"
        },
        {
            "anonymous": false,
            "inputs": [
                {
                    "indexed": true,
                    "internalType": "uint256",
                    "name": "recipientTokenId",
                    "type": "uint256"
                },
                {
                    "components": [
                        {
                            "internalType": "bool",
                            "name": "burn",
                            "type": "bool"
                        },
                        {
                            "internalType": "enum Hero.ContractType",
                            "name": "contractType",
                            "type": "uint8"
                        },
                        {
                            "internalType": "uint16",
                            "name": "position",
                            "type": "uint16"
                        },
                        {
                            "internalType": "address",
                            "name": "contractAddress",
                            "type": "address"
                        },
                        {
                            "internalType": "uint256",
                            "name": "tokenId",
                            "type": "uint256"
                        },
                        {
                            "internalType": "uint256",
                            "name": "recipientTokenId",
                            "type": "uint256"
                        }
                    ],
                    "indexed": true,
                    "internalType": "struct Hero.LinkInfo",
                    "name": "storeInfo",
                    "type": "tuple"
                }
            ],
            "name": "Linked",
            "type": "event"
        },
        {
            "anonymous": false,
            "inputs": [
                {
                    "indexed": false,
                    "internalType": "address",
                    "name": "account",
                    "type": "address"
                }
            ],
            "name": "Paused",
            "type": "event"
        },
        {
            "anonymous": false,
            "inputs": [
                {
                    "indexed": true,
                    "internalType": "bytes32",
                    "name": "role",
                    "type": "bytes32"
                },
                {
                    "indexed": true,
                    "internalType": "bytes32",
                    "name": "previousAdminRole",
                    "type": "bytes32"
                },
                {
                    "indexed": true,
                    "internalType": "bytes32",
                    "name": "newAdminRole",
                    "type": "bytes32"
                }
            ],
            "name": "RoleAdminChanged",
            "type": "event"
        },
        {
            "anonymous": false,
            "inputs": [
                {
                    "indexed": true,
                    "internalType": "bytes32",
                    "name": "role",
                    "type": "bytes32"
                },
                {
                    "indexed": true,
                    "internalType": "address",
                    "name": "account",
                    "type": "address"
                },
                {
                    "indexed": true,
                    "internalType": "address",
                    "name": "sender",
                    "type": "address"
                }
            ],
            "name": "RoleGranted",
            "type": "event"
        },
        {
            "anonymous": false,
            "inputs": [
                {
                    "indexed": true,
                    "internalType": "bytes32",
                    "name": "role",
                    "type": "bytes32"
                },
                {
                    "indexed": true,
                    "internalType": "address",
                    "name": "account",
                    "type": "address"
                },
                {
                    "indexed": true,
                    "internalType": "address",
                    "name": "sender",
                    "type": "address"
                }
            ],
            "name": "RoleRevoked",
            "type": "event"
        },
        {
            "anonymous": false,
            "inputs": [
                {
                    "indexed": true,
                    "internalType": "address",
                    "name": "from",
                    "type": "address"
                },
                {
                    "indexed": true,
                    "internalType": "address",
                    "name": "to",
                    "type": "address"
                },
                {
                    "indexed": true,
                    "internalType": "uint256",
                    "name": "tokenId",
                    "type": "uint256"
                }
            ],
            "name": "Transfer",
            "type": "event"
        },
        {
            "anonymous": false,
            "inputs": [
                {
                    "indexed": false,
                    "internalType": "address",
                    "name": "account",
                    "type": "address"
                }
            ],
            "name": "Unpaused",
            "type": "event"
        },
        {
            "inputs": [],
            "name": "DEFAULT_ADMIN_ROLE",
            "outputs": [
                {
                    "internalType": "bytes32",
                    "name": "",
                    "type": "bytes32"
                }
            ],
            "stateMutability": "view",
            "type": "function"
        },
        {
            "inputs": [
                {
                    "internalType": "uint256",
                    "name": "tokenId",
                    "type": "uint256"
                },
                {
                    "internalType": "uint16",
                    "name": "position",
                    "type": "uint16"
                }
            ],
            "name": "DelinkNft",
            "outputs": [],
            "stateMutability": "nonpayable",
            "type": "function"
        },
        {
            "inputs": [],
            "name": "MASTER_ROLE",
            "outputs": [
                {
                    "internalType": "bytes32",
                    "name": "",
                    "type": "bytes32"
                }
            ],
            "stateMutability": "view",
            "type": "function"
        },
        {
            "inputs": [],
            "name": "MINTER_ROLE",
            "outputs": [
                {
                    "internalType": "bytes32",
                    "name": "",
                    "type": "bytes32"
                }
            ],
            "stateMutability": "view",
            "type": "function"
        },
        {
            "inputs": [],
            "name": "PAUSER_ROLE",
            "outputs": [
                {
                    "internalType": "bytes32",
                    "name": "",
                    "type": "bytes32"
                }
            ],
            "stateMutability": "view",
            "type": "function"
        },
        {
            "inputs": [
                {
                    "internalType": "address",
                    "name": "linkerAddress",
                    "type": "address"
                }
            ],
            "name": "addLinker",
            "outputs": [],
            "stateMutability": "nonpayable",
            "type": "function"
        },
        {
            "inputs": [
                {
                    "internalType": "address",
                    "name": "marketAddress",
                    "type": "address"
                }
            ],
            "name": "addMarketAddress",
            "outputs": [],
            "stateMutability": "nonpayable",
            "type": "function"
        },
        {
            "inputs": [
                {
                    "internalType": "address",
                    "name": "to",
                    "type": "address"
                },
                {
                    "internalType": "uint256",
                    "name": "tokenId",
                    "type": "uint256"
                }
            ],
            "name": "approve",
            "outputs": [],
            "stateMutability": "nonpayable",
            "type": "function"
        },
        {
            "inputs": [
                {
                    "internalType": "address",
                    "name": "",
                    "type": "address"
                }
            ],
            "name": "approvedLinker",
            "outputs": [
                {
                    "internalType": "bool",
                    "name": "",
                    "type": "bool"
                }
            ],
            "stateMutability": "view",
            "type": "function"
        },
        {
            "inputs": [
                {
                    "internalType": "address",
                    "name": "",
                    "type": "address"
                }
            ],
            "name": "approvedMarketplaces",
            "outputs": [
                {
                    "internalType": "bool",
                    "name": "",
                    "type": "bool"
                }
            ],
            "stateMutability": "view",
            "type": "function"
        },
        {
            "inputs": [
                {
                    "internalType": "address",
                    "name": "owner",
                    "type": "address"
                }
            ],
            "name": "balanceOf",
            "outputs": [
                {
                    "internalType": "uint256",
                    "name": "",
                    "type": "uint256"
                }
            ],
            "stateMutability": "view",
            "type": "function"
        },
        {
            "inputs": [],
            "name": "bank",
            "outputs": [
                {
                    "internalType": "address",
                    "name": "",
                    "type": "address"
                }
            ],
            "stateMutability": "view",
            "type": "function"
        },
        {
            "inputs": [
                {
                    "internalType": "uint256",
                    "name": "tokenId",
                    "type": "uint256"
                }
            ],
            "name": "burn",
            "outputs": [],
            "stateMutability": "nonpayable",
            "type": "function"
        },
        {
            "inputs": [
                {
                    "internalType": "address",
                    "name": "newBank",
                    "type": "address"
                }
            ],
            "name": "changeBank",
            "outputs": [],
            "stateMutability": "nonpayable",
            "type": "function"
        },
        {
            "inputs": [
                {
                    "internalType": "uint256",
                    "name": "tokenId",
                    "type": "uint256"
                }
            ],
            "name": "getApproved",
            "outputs": [
                {
                    "internalType": "address",
                    "name": "",
                    "type": "address"
                }
            ],
            "stateMutability": "view",
            "type": "function"
        },
        {
            "inputs": [
                {
                    "internalType": "uint256",
                    "name": "tokenId",
                    "type": "uint256"
                },
                {
                    "internalType": "uint16[]",
                    "name": "positions",
                    "type": "uint16[]"
                }
            ],
            "name": "getLinkedNft",
            "outputs": [
                {
                    "components": [
                        {
                            "internalType": "bool",
                            "name": "burn",
                            "type": "bool"
                        },
                        {
                            "internalType": "enum Hero.ContractType",
                            "name": "contractType",
                            "type": "uint8"
                        },
                        {
                            "internalType": "uint16",
                            "name": "position",
                            "type": "uint16"
                        },
                        {
                            "internalType": "address",
                            "name": "contractAddress",
                            "type": "address"
                        },
                        {
                            "internalType": "uint256",
                            "name": "tokenId",
                            "type": "uint256"
                        },
                        {
                            "internalType": "uint256",
                            "name": "recipientTokenId",
                            "type": "uint256"
                        }
                    ],
                    "internalType": "struct Hero.LinkInfo[]",
                    "name": "linkedInfos",
                    "type": "tuple[]"
                }
            ],
            "stateMutability": "view",
            "type": "function"
        },
        {
            "inputs": [
                {
                    "internalType": "bytes32",
                    "name": "role",
                    "type": "bytes32"
                }
            ],
            "name": "getRoleAdmin",
            "outputs": [
                {
                    "internalType": "bytes32",
                    "name": "",
                    "type": "bytes32"
                }
            ],
            "stateMutability": "view",
            "type": "function"
        },
        {
            "inputs": [
                {
                    "internalType": "bytes32",
                    "name": "role",
                    "type": "bytes32"
                },
                {
                    "internalType": "address",
                    "name": "account",
                    "type": "address"
                }
            ],
            "name": "grantRole",
            "outputs": [],
            "stateMutability": "nonpayable",
            "type": "function"
        },
        {
            "inputs": [
                {
                    "internalType": "bytes32",
                    "name": "role",
                    "type": "bytes32"
                },
                {
                    "internalType": "address",
                    "name": "account",
                    "type": "address"
                }
            ],
            "name": "hasRole",
            "outputs": [
                {
                    "internalType": "bool",
                    "name": "",
                    "type": "bool"
                }
            ],
            "stateMutability": "view",
            "type": "function"
        },
        {
            "inputs": [],
            "name": "initialize",
            "outputs": [],
            "stateMutability": "nonpayable",
            "type": "function"
        },
        {
            "inputs": [
                {
                    "internalType": "address",
                    "name": "owner",
                    "type": "address"
                },
                {
                    "internalType": "address",
                    "name": "operator",
                    "type": "address"
                }
            ],
            "name": "isApprovedForAll",
            "outputs": [
                {
                    "internalType": "bool",
                    "name": "",
                    "type": "bool"
                }
            ],
            "stateMutability": "view",
            "type": "function"
        },
        {
            "inputs": [
                {
                    "internalType": "uint256",
                    "name": "",
                    "type": "uint256"
                },
                {
                    "internalType": "uint16",
                    "name": "",
                    "type": "uint16"
                }
            ],
            "name": "linkNfts",
            "outputs": [
                {
                    "internalType": "bool",
                    "name": "burn",
                    "type": "bool"
                },
                {
                    "internalType": "enum Hero.ContractType",
                    "name": "contractType",
                    "type": "uint8"
                },
                {
                    "internalType": "uint16",
                    "name": "position",
                    "type": "uint16"
                },
                {
                    "internalType": "address",
                    "name": "contractAddress",
                    "type": "address"
                },
                {
                    "internalType": "uint256",
                    "name": "tokenId",
                    "type": "uint256"
                },
                {
                    "internalType": "uint256",
                    "name": "recipientTokenId",
                    "type": "uint256"
                }
            ],
            "stateMutability": "view",
            "type": "function"
        },
        {
            "inputs": [],
            "name": "name",
            "outputs": [
                {
                    "internalType": "string",
                    "name": "",
                    "type": "string"
                }
            ],
            "stateMutability": "view",
            "type": "function"
        },
        {
            "inputs": [
                {
                    "internalType": "address",
                    "name": "",
                    "type": "address"
                },
                {
                    "internalType": "address",
                    "name": "",
                    "type": "address"
                },
                {
                    "internalType": "uint256[]",
                    "name": "",
                    "type": "uint256[]"
                },
                {
                    "internalType": "uint256[]",
                    "name": "",
                    "type": "uint256[]"
                },
                {
                    "internalType": "bytes",
                    "name": "",
                    "type": "bytes"
                }
            ],
            "name": "onERC1155BatchReceived",
            "outputs": [
                {
                    "internalType": "bytes4",
                    "name": "",
                    "type": "bytes4"
                }
            ],
            "stateMutability": "nonpayable",
            "type": "function"
        },
        {
            "inputs": [
                {
                    "internalType": "address",
                    "name": "",
                    "type": "address"
                },
                {
                    "internalType": "address",
                    "name": "from",
                    "type": "address"
                },
                {
                    "internalType": "uint256",
                    "name": "id",
                    "type": "uint256"
                },
                {
                    "internalType": "uint256",
                    "name": "value",
                    "type": "uint256"
                },
                {
                    "internalType": "bytes",
                    "name": "data",
                    "type": "bytes"
                }
            ],
            "name": "onERC1155Received",
            "outputs": [
                {
                    "internalType": "bytes4",
                    "name": "",
                    "type": "bytes4"
                }
            ],
            "stateMutability": "nonpayable",
            "type": "function"
        },
        {
            "inputs": [
                {
                    "internalType": "address",
                    "name": "",
                    "type": "address"
                },
                {
                    "internalType": "address",
                    "name": "from",
                    "type": "address"
                },
                {
                    "internalType": "uint256",
                    "name": "tokenId",
                    "type": "uint256"
                },
                {
                    "internalType": "bytes",
                    "name": "data",
                    "type": "bytes"
                }
            ],
            "name": "onERC721Received",
            "outputs": [
                {
                    "internalType": "bytes4",
                    "name": "",
                    "type": "bytes4"
                }
            ],
            "stateMutability": "nonpayable",
            "type": "function"
        },
        {
            "inputs": [
                {
                    "internalType": "uint256",
                    "name": "tokenId",
                    "type": "uint256"
                }
            ],
            "name": "ownerOf",
            "outputs": [
                {
                    "internalType": "address",
                    "name": "",
                    "type": "address"
                }
            ],
            "stateMutability": "view",
            "type": "function"
        },
        {
            "inputs": [],
            "name": "pause",
            "outputs": [],
            "stateMutability": "nonpayable",
            "type": "function"
        },
        {
            "inputs": [],
            "name": "paused",
            "outputs": [
                {
                    "internalType": "bool",
                    "name": "",
                    "type": "bool"
                }
            ],
            "stateMutability": "view",
            "type": "function"
        },
        {
            "inputs": [
                {
                    "internalType": "address",
                    "name": "linkerAddress",
                    "type": "address"
                }
            ],
            "name": "removeLinker",
            "outputs": [],
            "stateMutability": "nonpayable",
            "type": "function"
        },
        {
            "inputs": [
                {
                    "internalType": "address",
                    "name": "marketAddress",
                    "type": "address"
                }
            ],
            "name": "removeMarketAddress",
            "outputs": [],
            "stateMutability": "nonpayable",
            "type": "function"
        },
        {
            "inputs": [
                {
                    "internalType": "bytes32",
                    "name": "role",
                    "type": "bytes32"
                },
                {
                    "internalType": "address",
                    "name": "account",
                    "type": "address"
                }
            ],
            "name": "renounceRole",
            "outputs": [],
            "stateMutability": "nonpayable",
            "type": "function"
        },
        {
            "inputs": [
                {
                    "internalType": "bytes32",
                    "name": "role",
                    "type": "bytes32"
                },
                {
                    "internalType": "address",
                    "name": "account",
                    "type": "address"
                }
            ],
            "name": "revokeRole",
            "outputs": [],
            "stateMutability": "nonpayable",
            "type": "function"
        },
        {
            "inputs": [],
            "name": "royalties",
            "outputs": [
                {
                    "internalType": "uint256",
                    "name": "",
                    "type": "uint256"
                }
            ],
            "stateMutability": "view",
            "type": "function"
        },
        {
            "inputs": [
                {
                    "internalType": "uint256",
                    "name": "",
                    "type": "uint256"
                },
                {
                    "internalType": "uint256",
                    "name": "value",
                    "type": "uint256"
                }
            ],
            "name": "royaltyInfo",
            "outputs": [
                {
                    "internalType": "address",
                    "name": "receiver",
                    "type": "address"
                },
                {
                    "internalType": "uint256",
                    "name": "royaltyAmount",
                    "type": "uint256"
                }
            ],
            "stateMutability": "view",
            "type": "function"
        },
        {
            "inputs": [
                {
                    "internalType": "address",
                    "name": "to",
                    "type": "address"
                }
            ],
            "name": "safeMint",
            "outputs": [],
            "stateMutability": "nonpayable",
            "type": "function"
        },
        {
            "inputs": [
                {
                    "internalType": "address",
                    "name": "from",
                    "type": "address"
                },
                {
                    "internalType": "address",
                    "name": "to",
                    "type": "address"
                },
                {
                    "internalType": "uint256",
                    "name": "tokenId",
                    "type": "uint256"
                }
            ],
            "name": "safeTransferFrom",
            "outputs": [],
            "stateMutability": "nonpayable",
            "type": "function"
        },
        {
            "inputs": [
                {
                    "internalType": "address",
                    "name": "from",
                    "type": "address"
                },
                {
                    "internalType": "address",
                    "name": "to",
                    "type": "address"
                },
                {
                    "internalType": "uint256",
                    "name": "tokenId",
                    "type": "uint256"
                },
                {
                    "internalType": "bytes",
                    "name": "data",
                    "type": "bytes"
                }
            ],
            "name": "safeTransferFrom",
            "outputs": [],
            "stateMutability": "nonpayable",
            "type": "function"
        },
        {
            "inputs": [
                {
                    "internalType": "address",
                    "name": "operator",
                    "type": "address"
                },
                {
                    "internalType": "bool",
                    "name": "approved",
                    "type": "bool"
                }
            ],
            "name": "setApprovalForAll",
            "outputs": [],
            "stateMutability": "nonpayable",
            "type": "function"
        },
        {
            "inputs": [
                {
                    "internalType": "string",
                    "name": "uri",
                    "type": "string"
                }
            ],
            "name": "setDefaultUri",
            "outputs": [],
            "stateMutability": "nonpayable",
            "type": "function"
        },
        {
            "inputs": [
                {
                    "internalType": "uint256",
                    "name": "newRoyalty",
                    "type": "uint256"
                }
            ],
            "name": "setRoyalties",
            "outputs": [],
            "stateMutability": "nonpayable",
            "type": "function"
        },
        {
            "inputs": [
                {
                    "internalType": "bytes4",
                    "name": "interfaceId",
                    "type": "bytes4"
                }
            ],
            "name": "supportsInterface",
            "outputs": [
                {
                    "internalType": "bool",
                    "name": "",
                    "type": "bool"
                }
            ],
            "stateMutability": "view",
            "type": "function"
        },
        {
            "inputs": [],
            "name": "symbol",
            "outputs": [
                {
                    "internalType": "string",
                    "name": "",
                    "type": "string"
                }
            ],
            "stateMutability": "view",
            "type": "function"
        },
        {
            "inputs": [
                {
                    "internalType": "uint256",
                    "name": "index",
                    "type": "uint256"
                }
            ],
            "name": "tokenByIndex",
            "outputs": [
                {
                    "internalType": "uint256",
                    "name": "",
                    "type": "uint256"
                }
            ],
            "stateMutability": "view",
            "type": "function"
        },
        {
            "inputs": [
                {
                    "internalType": "address",
                    "name": "owner",
                    "type": "address"
                },
                {
                    "internalType": "uint256",
                    "name": "index",
                    "type": "uint256"
                }
            ],
            "name": "tokenOfOwnerByIndex",
            "outputs": [
                {
                    "internalType": "uint256",
                    "name": "",
                    "type": "uint256"
                }
            ],
            "stateMutability": "view",
            "type": "function"
        },
        {
            "inputs": [
                {
                    "internalType": "uint256",
                    "name": "tokenId",
                    "type": "uint256"
                }
            ],
            "name": "tokenURI",
            "outputs": [
                {
                    "internalType": "string",
                    "name": "",
                    "type": "string"
                }
            ],
            "stateMutability": "view",
            "type": "function"
        },
        {
            "inputs": [],
            "name": "totalSupply",
            "outputs": [
                {
                    "internalType": "uint256",
                    "name": "",
                    "type": "uint256"
                }
            ],
            "stateMutability": "view",
            "type": "function"
        },
        {
            "inputs": [
                {
                    "internalType": "address",
                    "name": "from",
                    "type": "address"
                },
                {
                    "internalType": "address",
                    "name": "to",
                    "type": "address"
                },
                {
                    "internalType": "uint256",
                    "name": "tokenId",
                    "type": "uint256"
                }
            ],
            "name": "transferFrom",
            "outputs": [],
            "stateMutability": "nonpayable",
            "type": "function"
        },
        {
            "inputs": [],
            "name": "unpause",
            "outputs": [],
            "stateMutability": "nonpayable",
            "type": "function"
        }
    ],
    "bytecode": "6101f46101f85560c0604052601c60809081527f68747470733a2f2f6865726f2e6f76682f6170692f706c617965722f0000000060a0526101fa90620000469082620001cc565b503480156200005457600080fd5b506200005f62000065565b62000298565b600054610100900460ff1615620000d25760405162461bcd60e51b815260206004820152602760248201527f496e697469616c697a61626c653a20636f6e747261637420697320696e697469604482015266616c697a696e6760c81b606482015260840160405180910390fd5b60005460ff908116101562000125576000805460ff191660ff9081179091556040519081527f7f26b83ff96e1f2b6a682f133852f6798a09c465da95921460cefb38474024989060200160405180910390a15b565b634e487b7160e01b600052604160045260246000fd5b600181811c908216806200015257607f821691505b6020821081036200017357634e487b7160e01b600052602260045260246000fd5b50919050565b601f821115620001c757600081815260208120601f850160051c81016020861015620001a25750805b601f850160051c820191505b81811015620001c357828155600101620001ae565b5050505b505050565b81516001600160401b03811115620001e857620001e862000127565b6200020081620001f984546200013d565b8462000179565b602080601f8311600181146200023857600084156200021f5750858301515b600019600386901b1c1916600185901b178555620001c3565b600085815260208120601f198616915b82811015620002695788860151825594840194600190910190840162000248565b5085821015620002885787850151600019600388901b60f8161c191681555b5050505050600190811b01905550565b6139af80620002a86000396000f3fe608060405234801561001057600080fd5b50600436106102ba5760003560e01c806370a0823111610182578063ba492a34116100e9578063dc224863116100a2578063e985e9c51161007c578063e985e9c51461070e578063f053dc5c14610721578063f0ceb7861461072b578063f23a6e611461073e57600080fd5b8063dc224863146106bf578063dc945a58146106e6578063e63ab1e9146106f957600080fd5b8063ba492a34146105c3578063bc197c811461063b578063c87b56dd1461064e578063d539139314610661578063d547741f14610688578063d739cd231461069b57600080fd5b80638e1ab5101161013b5780638e1ab5101461056757806391d148541461057a57806395d89b411461058d578063a217fddf14610595578063a22cb4651461059d578063b88d4fde146105b057600080fd5b806370a08231146104fd57806376cdb03b14610510578063799ede3c146105245780638129fc1c146105445780638456cb591461054c57806384edbe631461055457600080fd5b80632f745c591161022657806342966c68116101df57806342966c6814610482578063466a18de146104955780634f6ccce7146104a8578063543a9eb9146104bb5780635c975abb146104df5780636352211e146104ea57600080fd5b80632f745c591461041b578063361d004f1461042e57806336568abe146104415780633f4ba83a1461045457806340d097c31461045c57806342842e0e1461046f57600080fd5b806318160ddd1161027857806318160ddd1461037b57806323b872dd1461038d578063248a9ca3146103a05780632a55205a146103c35780632b80183f146103f55780632f2ff15d1461040857600080fd5b80629aad1b146102bf57806301ffc9a7146102d457806306fdde03146102fc578063081812fc14610311578063095ea7b31461033c578063150b7a021461034f575b600080fd5b6102d26102cd366004612cb1565b610751565b005b6102e76102e2366004612ce2565b610782565b60405190151581526020015b60405180910390f35b6103046107ad565b6040516102f39190612d4f565b61032461031f366004612d62565b61083f565b6040516001600160a01b0390911681526020016102f3565b6102d261034a366004612d7b565b610866565b61036261035d366004612e5a565b610980565b6040516001600160e01b031990911681526020016102f3565b6099545b6040519081526020016102f3565b6102d261039b366004612ec1565b6109a1565b61037f6103ae366004612d62565b600090815260fb602052604090206001015490565b6103d66103d1366004612efd565b6109d3565b604080516001600160a01b0390931683526020830191909152016102f3565b6102d2610403366004612d62565b610a0f565b6102d2610416366004612f1f565b610a21565b61037f610429366004612d7b565b610a46565b6102d261043c366004612cb1565b610adc565b6102d261044f366004612f1f565b610b0b565b6102d2610b89565b6102d261046a366004612cb1565b610bac565b6102d261047d366004612ec1565b610bfd565b6102d2610490366004612d62565b610c18565b6102d26104a3366004612f4b565b610c46565b61037f6104b6366004612d62565b610c65565b6102e76104c9366004612cb1565b6101f66020526000908152604090205460ff1681565b60c95460ff166102e7565b6103246104f8366004612d62565b610cf8565b61037f61050b366004612cb1565b610d58565b6101fb54610324906001600160a01b031681565b610537610532366004612fbc565b610dde565b6040516102f39190613072565b6102d2610f6f565b6102d2611173565b6102d2610562366004612cb1565b611193565b6102d2610575366004612cb1565b6111c4565b6102e7610588366004612f1f565b6111f2565b61030461121d565b61037f600081565b6102d26105ab366004613110565b61122c565b6102d26105be366004612e5a565b611237565b6106296105d1366004613157565b6101f560209081526000928352604080842090915290825290208054600182015460029092015460ff8083169361010084049091169262010000810461ffff16926401000000009091046001600160a01b0316919086565b6040516102f39695949392919061317c565b610362610649366004613242565b611269565b61030461065c366004612d62565b6112a6565b61037f7f9f2df0fed2c77648de5860a4cc508cd0818c85b8b8a1ab4ceeef8d981c8956a681565b6102d2610696366004612f1f565b6112b1565b6102e76106a9366004612cb1565b6101f76020526000908152604090205460ff1681565b61037f7f8b8c0776df2c2176edf6f82391c35ea4891146d7a976ee36fd07f1a6fb4ead4c81565b6102d26106f4366004612cb1565b6112d6565b61037f60008051602061395a83398151915281565b6102e761071c3660046132eb565b611304565b61037f6101f85481565b6102d2610739366004613157565b611358565b61036261074c366004613315565b6116bc565b600061075c81611720565b506001600160a01b031660009081526101f760205260409020805460ff19166001179055565b60006001600160e01b0319821663152a902d60e11b14806107a757506107a78261172a565b92915050565b6060606580546107bc90613379565b80601f01602080910402602001604051908101604052809291908181526020018280546107e890613379565b80156108355780601f1061080a57610100808354040283529160200191610835565b820191906000526020600020905b81548152906001019060200180831161081857829003601f168201915b5050505050905090565b600061084a8261174f565b506000908152606960205260409020546001600160a01b031690565b600061087182610cf8565b9050806001600160a01b0316836001600160a01b0316036108e35760405162461bcd60e51b815260206004820152602160248201527f4552433732313a20617070726f76616c20746f2063757272656e74206f776e656044820152603960f91b60648201526084015b60405180910390fd5b336001600160a01b03821614806108ff57506108ff8133611304565b6109715760405162461bcd60e51b815260206004820152603d60248201527f4552433732313a20617070726f76652063616c6c6572206973206e6f7420746f60448201527f6b656e206f776e6572206f7220617070726f76656420666f7220616c6c00000060648201526084016108da565b61097b83836117ae565b505050565b600061098f848460008561181c565b50630a85bd0160e11b5b949350505050565b6109ac335b82611bd6565b6109c85760405162461bcd60e51b81526004016108da906133b3565b61097b838383611c34565b6101fb546101f85460009182916001600160a01b0390911690612710906109fa9086613416565b610a04919061342d565b915091509250929050565b6000610a1a81611720565b506101f855565b600082815260fb6020526040902060010154610a3c81611720565b61097b8383611da5565b6000610a5183610d58565b8210610ab35760405162461bcd60e51b815260206004820152602b60248201527f455243373231456e756d657261626c653a206f776e657220696e646578206f7560448201526a74206f6620626f756e647360a81b60648201526084016108da565b506001600160a01b03919091166000908152609760209081526040808320938352929052205490565b6000610ae781611720565b506101fb80546001600160a01b0319166001600160a01b0392909216919091179055565b6001600160a01b0381163314610b7b5760405162461bcd60e51b815260206004820152602f60248201527f416363657373436f6e74726f6c3a2063616e206f6e6c792072656e6f756e636560448201526e103937b632b9903337b91039b2b63360891b60648201526084016108da565b610b858282611e2b565b5050565b60008051602061395a833981519152610ba181611720565b610ba9611e92565b50565b7f9f2df0fed2c77648de5860a4cc508cd0818c85b8b8a1ab4ceeef8d981c8956a6610bd681611720565b6000610be26101f95490565b9050610bf36101f980546001019055565b61097b8382611ee4565b61097b83838360405180602001604052806000815250611237565b610c21336109a6565b610c3d5760405162461bcd60e51b81526004016108da906133b3565b610ba981611efe565b6000610c5181611720565b6101fa610c5f83858361349d565b50505050565b6000610c7060995490565b8210610cd35760405162461bcd60e51b815260206004820152602c60248201527f455243373231456e756d657261626c653a20676c6f62616c20696e646578206f60448201526b7574206f6620626f756e647360a01b60648201526084016108da565b60998281548110610ce657610ce661355c565b90600052602060002001549050919050565b6000818152606760205260408120546001600160a01b0316806107a75760405162461bcd60e51b8152602060048201526018602482015277115490cdcc8c4e881a5b9d985b1a59081d1bdad95b88125160421b60448201526064016108da565b60006001600160a01b038216610dc25760405162461bcd60e51b815260206004820152602960248201527f4552433732313a2061646472657373207a65726f206973206e6f7420612076616044820152683634b21037bbb732b960b91b60648201526084016108da565b506001600160a01b031660009081526068602052604090205490565b6060816001600160401b03811115610df857610df8612da5565b604051908082528060200260200182016040528015610e5857816020015b6040805160c08101825260008082526020808301829052928201819052606082018190526080820181905260a08201528252600019909201910181610e165790505b50905060005b82811015610f67576000848483818110610e7a57610e7a61355c565b9050602002016020810190610e8f9190613572565b60008781526101f56020908152604080832061ffff85168452825291829020825160c08101909352805460ff8082161515855294955092939092918401916101009004166001811115610ee457610ee461303a565b6001811115610ef557610ef561303a565b8152815462010000810461ffff16602083015264010000000090046001600160a01b03166040820152600182015460608201526002909101546080909101528351849084908110610f4857610f4861355c565b6020026020010181905250508080610f5f9061358f565b915050610e5e565b509392505050565b600054610100900460ff1615808015610f8f5750600054600160ff909116105b80610fa95750303b158015610fa9575060005460ff166001145b61100c5760405162461bcd60e51b815260206004820152602e60248201527f496e697469616c697a61626c653a20636f6e747261637420697320616c72656160448201526d191e481a5b9a5d1a585b1a5e995960921b60648201526084016108da565b6000805460ff19166001179055801561102f576000805461ff0019166101001790555b611071604051806040016040528060048152602001634865726f60e01b815250604051806040016040528060048152602001634865726f60e01b815250611f07565b611079611f38565b611081611f61565b611089611f38565b611091611f38565b611099611f38565b6110a1611f38565b6110ac600033611da5565b6110c460008051602061395a83398151915233611da5565b6110ee7f9f2df0fed2c77648de5860a4cc508cd0818c85b8b8a1ab4ceeef8d981c8956a633611da5565b6111187f8b8c0776df2c2176edf6f82391c35ea4891146d7a976ee36fd07f1a6fb4ead4c33611da5565b6101fb80546001600160a01b031916331790558015610ba9576000805461ff0019169055604051600181527f7f26b83ff96e1f2b6a682f133852f6798a09c465da95921460cefb38474024989060200160405180910390a150565b60008051602061395a83398151915261118b81611720565b610ba9611f90565b600061119e81611720565b506001600160a01b031660009081526101f660205260409020805460ff19166001179055565b60006111cf81611720565b506001600160a01b031660009081526101f760205260409020805460ff19169055565b600091825260fb602090815260408084206001600160a01b0393909316845291905290205460ff1690565b6060606680546107bc90613379565b610b85338383611fcd565b6112413383611bd6565b61125d5760405162461bcd60e51b81526004016108da906133b3565b610c5f8484848461209b565b60405162461bcd60e51b815260206004820152600f60248201526e139bdd081a5b5c1b195b595b9d1959608a1b60448201526000906064016108da565b60606107a7826120ce565b600082815260fb60205260409020600101546112cc81611720565b61097b8383611e2b565b60006112e181611720565b506001600160a01b031660009081526101f660205260409020805460ff19169055565b6001600160a01b03811660009081526101f6602052604081205460ff168061135157506001600160a01b038084166000908152606a602090815260408083209386168352929052205460ff165b9392505050565b611360612134565b61138a7f8b8c0776df2c2176edf6f82391c35ea4891146d7a976ee36fd07f1a6fb4ead4c336111f2565b806113a557503361139a83610cf8565b6001600160a01b0316145b6113e35760405162461bcd60e51b815260206004820152600f60248201526e2737ba103a37b5b2b71037bbb732b960891b60448201526064016108da565b60008281526101f56020908152604080832061ffff851684528252808320815160c08101909252805460ff8082161515845292939192918401916101009091041660018111156114355761143561303a565b60018111156114465761144661303a565b8152815462010000810461ffff16602083015264010000000090046001600160a01b03166040820152600182015460608201526002909101546080909101528051909150156114d75760405162461bcd60e51b815260206004820152601760248201527f43616e27742064656c696e6b206275726e6564206e667400000000000000000060448201526064016108da565b6000816020015160018111156114ef576114ef61303a565b036115825780606001516001600160a01b03166342842e0e3061151186610cf8565b60808501516040516001600160e01b031960e086901b1681526001600160a01b0393841660048201529290911660248301526044820152606401600060405180830381600087803b15801561156557600080fd5b505af1158015611579573d6000803e3d6000fd5b5050505061163e565b60018160200151600181111561159a5761159a61303a565b0361163e5780606001516001600160a01b031663f242432a306115bc86610cf8565b60808501516040516001600160e01b031960e086901b1681526001600160a01b03938416600482015292909116602483015260448201526001606482015260a06084820152600060a482015260c401600060405180830381600087803b15801561162557600080fd5b505af1158015611639573d6000803e3d6000fd5b505050505b60008381526101f56020908152604080832061ffff8616845290915280822080546001600160c01b03191681556001810183905560020191909155516116859082906135a8565b6040519081900381209084907f535e9127553c942ad2a92748a0f6e670726bdd7b4ba58caa37f5ddf27f5d1cea90600090a3505050565b6000826001146117015760405162461bcd60e51b815260206004820152601060248201526f125b98dbdc9c9958dd08185b5bdd5b9d60821b60448201526064016108da565b61170e858560018561181c565b5063f23a6e6160e01b95945050505050565b610ba9813361217a565b60006001600160e01b03198216630271189760e51b14806107a757506107a7826121d3565b6000818152606760205260409020546001600160a01b0316610ba95760405162461bcd60e51b8152602060048201526018602482015277115490cdcc8c4e881a5b9d985b1a59081d1bdad95b88125160421b60448201526064016108da565b600081815260696020526040902080546001600160a01b0319166001600160a01b03841690811790915581906117e382610cf8565b6001600160a01b03167f8c5be1e5ebec7d5bd14f71427d1e84f3dd0314c0f7b2291e5b200ac8c7c3b92560405160405180910390a45050565b611824612134565b60008180602001905181019061183a91906135fd565b9050846001600160a01b03166118538260400151610cf8565b6001600160a01b03161461189b5760405162461bcd60e51b815260206004820152600f60248201526e2737ba103a37b5b2b71037bbb732b960891b60448201526064016108da565b3360009081526101f7602052604090205460ff166118f15760405162461bcd60e51b81526020600482015260136024820152722737ba1030b8383937bb32b2103634b735b2b960691b60448201526064016108da565b60408082015160009081526101f560209081528282208185015161ffff1683528152828220835160c08101909452805460ff80821615158652939493919284019161010090910416600181111561194a5761194a61303a565b600181111561195b5761195b61303a565b8152815462010000810461ffff16602083015264010000000090046001600160a01b031660408201526001820154606082015260029091015460809182015281015190915015806119aa575080515b6119ed5760405162461bcd60e51b8152602060048201526014602482015273105b1c9958591e4818481b999d081b1a5b9ad95960621b60448201526064016108da565b815115611a5f5733604051637a94c56560e11b815230600482015260248101879052600160448201526001600160a01b03919091169063f5298aca90606401600060405180830381600087803b158015611a4657600080fd5b505af1158015611a5a573d6000803e3d6000fd5b505050505b60006040518060c00160405280846000015115158152602001866001811115611a8a57611a8a61303a565b8152602001846020015161ffff168152602001611aa43390565b6001600160a01b0316815260208082018990526040868101805193820193909352915160009081526101f582528281208783015161ffff1682528252919091208251815490151560ff198216811783559284015193945084939192839161ff001990911661ffff1990911617610100836001811115611b2557611b2561303a565b0217905550604082810151825460608501516001600160a01b031664010000000002640100000000600160c01b031961ffff90931662010000029290921662010000600160c01b0319909116171782556080830151600183015560a09092015160029091015551611b979082906135a8565b604080519182900382209085015190917f2f4cfb739f88fb6418464881830d2f8ca9b38c8365e3b1900ee406c6bc438f3090600090a350505050505050565b600080611be283610cf8565b9050806001600160a01b0316846001600160a01b03161480611c095750611c098185611304565b806109995750836001600160a01b0316611c228461083f565b6001600160a01b031614949350505050565b826001600160a01b0316611c4782610cf8565b6001600160a01b031614611c6d5760405162461bcd60e51b81526004016108da90613667565b6001600160a01b038216611ccf5760405162461bcd60e51b8152602060048201526024808201527f4552433732313a207472616e7366657220746f20746865207a65726f206164646044820152637265737360e01b60648201526084016108da565b611cdc83838360016121f8565b826001600160a01b0316611cef82610cf8565b6001600160a01b031614611d155760405162461bcd60e51b81526004016108da90613667565b600081815260696020908152604080832080546001600160a01b03199081169091556001600160a01b0387811680865260688552838620805460001901905590871680865283862080546001019055868652606790945282852080549092168417909155905184937fddf252ad1be2c89b69c2b068fc378daa952ba7f163c4a11628f55a4df523b3ef91a4505050565b611daf82826111f2565b610b8557600082815260fb602090815260408083206001600160a01b03851684529091529020805460ff19166001179055611de73390565b6001600160a01b0316816001600160a01b0316837f2f8788117e7eff1d82e926ec794901d17c78024a50270940304540a733656f0d60405160405180910390a45050565b611e3582826111f2565b15610b8557600082815260fb602090815260408083206001600160a01b0385168085529252808320805460ff1916905551339285917ff6391f5c32d9c69d2a47ea670b442974b53935d1edc7fd64eb21e047a839171b9190a45050565b611e9a61220c565b60c9805460ff191690557f5db9ee0a495bf2e6ff9c91a7834c1ba4fdd244a5e8aa4e537bd38aeae4b073aa335b6040516001600160a01b03909116815260200160405180910390a1565b610b85828260405180602001604052806000815250612255565b610ba981612288565b600054610100900460ff16611f2e5760405162461bcd60e51b81526004016108da906136ac565b610b85828261232b565b600054610100900460ff16611f5f5760405162461bcd60e51b81526004016108da906136ac565b565b600054610100900460ff16611f885760405162461bcd60e51b81526004016108da906136ac565b611f5f61236b565b611f98612134565b60c9805460ff191660011790557f62e78cea01bee320cd4e420270b5ea74000d11b0c9f74754ebdbfc544b05a258611ec73390565b816001600160a01b0316836001600160a01b03160361202e5760405162461bcd60e51b815260206004820152601960248201527f4552433732313a20617070726f766520746f2063616c6c65720000000000000060448201526064016108da565b6001600160a01b038381166000818152606a6020908152604080832094871680845294825291829020805460ff191686151590811790915591519182527f17307eab39ab6107e8899845ad3d59bd9653f200f220920489ca2b5937696c31910160405180910390a3505050565b6120a6848484611c34565b6120b28484848461239e565b610c5f5760405162461bcd60e51b81526004016108da906136f7565b60606120d98261174f565b60006120e361249c565b905060008151116121035760405180602001604052806000815250611351565b8061210d846124ac565b60405160200161211e929190613749565b6040516020818303038152906040529392505050565b60c95460ff1615611f5f5760405162461bcd60e51b815260206004820152601060248201526f14185d5cd8589b194e881c185d5cd95960821b60448201526064016108da565b61218482826111f2565b610b85576121918161253e565b61219c836020612550565b6040516020016121ad929190613778565b60408051601f198184030181529082905262461bcd60e51b82526108da91600401612d4f565b60006001600160e01b03198216637965db0b60e01b14806107a757506107a7826126eb565b612200612134565b610c5f84848484612710565b60c95460ff16611f5f5760405162461bcd60e51b815260206004820152601460248201527314185d5cd8589b194e881b9bdd081c185d5cd95960621b60448201526064016108da565b61225f8383612844565b61226c600084848461239e565b61097b5760405162461bcd60e51b81526004016108da906136f7565b600061229382610cf8565b90506122a38160008460016121f8565b6122ac82610cf8565b600083815260696020908152604080832080546001600160a01b03199081169091556001600160a01b0385168085526068845282852080546000190190558785526067909352818420805490911690555192935084927fddf252ad1be2c89b69c2b068fc378daa952ba7f163c4a11628f55a4df523b3ef908390a45050565b600054610100900460ff166123525760405162461bcd60e51b81526004016108da906136ac565b606561235e83826137ed565b50606661097b82826137ed565b600054610100900460ff166123925760405162461bcd60e51b81526004016108da906136ac565b60c9805460ff19169055565b60006001600160a01b0384163b1561249457604051630a85bd0160e11b81526001600160a01b0385169063150b7a02906123e29033908990889088906004016138ac565b6020604051808303816000875af192505050801561241d575060408051601f3d908101601f1916820190925261241a918101906138e9565b60015b61247a573d80801561244b576040519150601f19603f3d011682016040523d82523d6000602084013e612450565b606091505b5080516000036124725760405162461bcd60e51b81526004016108da906136f7565b805181602001fd5b6001600160e01b031916630a85bd0160e11b149050610999565b506001610999565b60606101fa80546107bc90613379565b606060006124b9836129dd565b60010190506000816001600160401b038111156124d8576124d8612da5565b6040519080825280601f01601f191660200182016040528015612502576020820181803683370190505b5090508181016020015b600019016f181899199a1a9b1b9c1cb0b131b232b360811b600a86061a8153600a850494508461250c57509392505050565b60606107a76001600160a01b03831660145b6060600061255f836002613416565b61256a906002613906565b6001600160401b0381111561258157612581612da5565b6040519080825280601f01601f1916602001820160405280156125ab576020820181803683370190505b509050600360fc1b816000815181106125c6576125c661355c565b60200101906001600160f81b031916908160001a905350600f60fb1b816001815181106125f5576125f561355c565b60200101906001600160f81b031916908160001a9053506000612619846002613416565b612624906001613906565b90505b600181111561269c576f181899199a1a9b1b9c1cb0b131b232b360811b85600f16601081106126585761265861355c565b1a60f81b82828151811061266e5761266e61355c565b60200101906001600160f81b031916908160001a90535060049490941c9361269581613919565b9050612627565b5083156113515760405162461bcd60e51b815260206004820181905260248201527f537472696e67733a20686578206c656e67746820696e73756666696369656e7460448201526064016108da565b60006001600160e01b0319821663780e9d6360e01b14806107a757506107a782612ab5565b600181111561277f5760405162461bcd60e51b815260206004820152603560248201527f455243373231456e756d657261626c653a20636f6e7365637574697665207472604482015274185b9cd9995c9cc81b9bdd081cdd5c1c1bdc9d1959605a1b60648201526084016108da565b816001600160a01b0385166127db576127d681609980546000838152609a60205260408120829055600182018355919091527f72a152ddfb8e864297c917af52ea6c1c68aead0fee1a62673fcc7e0c94979d000155565b6127fe565b836001600160a01b0316856001600160a01b0316146127fe576127fe8582612b05565b6001600160a01b03841661281a5761281581612ba2565b61283d565b846001600160a01b0316846001600160a01b03161461283d5761283d8482612c51565b5050505050565b6001600160a01b03821661289a5760405162461bcd60e51b815260206004820181905260248201527f4552433732313a206d696e7420746f20746865207a65726f206164647265737360448201526064016108da565b6000818152606760205260409020546001600160a01b0316156128ff5760405162461bcd60e51b815260206004820152601c60248201527f4552433732313a20746f6b656e20616c7265616479206d696e7465640000000060448201526064016108da565b61290d6000838360016121f8565b6000818152606760205260409020546001600160a01b0316156129725760405162461bcd60e51b815260206004820152601c60248201527f4552433732313a20746f6b656e20616c7265616479206d696e7465640000000060448201526064016108da565b6001600160a01b038216600081815260686020908152604080832080546001019055848352606790915280822080546001600160a01b0319168417905551839291907fddf252ad1be2c89b69c2b068fc378daa952ba7f163c4a11628f55a4df523b3ef908290a45050565b60008072184f03e93ff9f4daa797ed6e38ed64bf6a1f0160401b8310612a1c5772184f03e93ff9f4daa797ed6e38ed64bf6a1f0160401b830492506040015b6d04ee2d6d415b85acef81000000008310612a48576d04ee2d6d415b85acef8100000000830492506020015b662386f26fc100008310612a6657662386f26fc10000830492506010015b6305f5e1008310612a7e576305f5e100830492506008015b6127108310612a9257612710830492506004015b60648310612aa4576064830492506002015b600a83106107a75760010192915050565b60006001600160e01b031982166380ac58cd60e01b1480612ae657506001600160e01b03198216635b5e139f60e01b145b806107a757506301ffc9a760e01b6001600160e01b03198316146107a7565b60006001612b1284610d58565b612b1c9190613930565b600083815260986020526040902054909150808214612b6f576001600160a01b03841660009081526097602090815260408083208584528252808320548484528184208190558352609890915290208190555b5060009182526098602090815260408084208490556001600160a01b039094168352609781528383209183525290812055565b609954600090612bb490600190613930565b6000838152609a602052604081205460998054939450909284908110612bdc57612bdc61355c565b906000526020600020015490508060998381548110612bfd57612bfd61355c565b6000918252602080832090910192909255828152609a90915260408082208490558582528120556099805480612c3557612c35613943565b6001900381819060005260206000200160009055905550505050565b6000612c5c83610d58565b6001600160a01b039093166000908152609760209081526040808320868452825280832085905593825260989052919091209190915550565b80356001600160a01b0381168114612cac57600080fd5b919050565b600060208284031215612cc357600080fd5b61135182612c95565b6001600160e01b031981168114610ba957600080fd5b600060208284031215612cf457600080fd5b813561135181612ccc565b60005b83811015612d1a578181015183820152602001612d02565b50506000910152565b60008151808452612d3b816020860160208601612cff565b601f01601f19169290920160200192915050565b6020815260006113516020830184612d23565b600060208284031215612d7457600080fd5b5035919050565b60008060408385031215612d8e57600080fd5b612d9783612c95565b946020939093013593505050565b634e487b7160e01b600052604160045260246000fd5b604051601f8201601f191681016001600160401b0381118282101715612de357612de3612da5565b604052919050565b600082601f830112612dfc57600080fd5b81356001600160401b03811115612e1557612e15612da5565b612e28601f8201601f1916602001612dbb565b818152846020838601011115612e3d57600080fd5b816020850160208301376000918101602001919091529392505050565b60008060008060808587031215612e7057600080fd5b612e7985612c95565b9350612e8760208601612c95565b92506040850135915060608501356001600160401b03811115612ea957600080fd5b612eb587828801612deb565b91505092959194509250565b600080600060608486031215612ed657600080fd5b612edf84612c95565b9250612eed60208501612c95565b9150604084013590509250925092565b60008060408385031215612f1057600080fd5b50508035926020909101359150565b60008060408385031215612f3257600080fd5b82359150612f4260208401612c95565b90509250929050565b60008060208385031215612f5e57600080fd5b82356001600160401b0380821115612f7557600080fd5b818501915085601f830112612f8957600080fd5b813581811115612f9857600080fd5b866020828501011115612faa57600080fd5b60209290920196919550909350505050565b600080600060408486031215612fd157600080fd5b8335925060208401356001600160401b0380821115612fef57600080fd5b818601915086601f83011261300357600080fd5b81358181111561301257600080fd5b8760208260051b850101111561302757600080fd5b6020830194508093505050509250925092565b634e487b7160e01b600052602160045260246000fd5b6002811061306e57634e487b7160e01b600052602160045260246000fd5b9052565b602080825282518282018190526000919060409081850190868401855b828110156130f5578151805115158552868101516130af88870182613050565b508086015161ffff16858701526060808201516001600160a01b0316908601526080808201519086015260a0908101519085015260c0909301929085019060010161308f565b5091979650505050505050565b8015158114610ba957600080fd5b6000806040838503121561312357600080fd5b61312c83612c95565b9150602083013561313c81613102565b809150509250929050565b61ffff81168114610ba957600080fd5b6000806040838503121561316a57600080fd5b82359150602083013561313c81613147565b861515815260c081016131926020830188613050565b61ffff9590951660408201526001600160a01b03939093166060840152608083019190915260a09091015292915050565b600082601f8301126131d457600080fd5b813560206001600160401b038211156131ef576131ef612da5565b8160051b6131fe828201612dbb565b928352848101820192828101908785111561321857600080fd5b83870192505b848310156132375782358252918301919083019061321e565b979650505050505050565b600080600080600060a0868803121561325a57600080fd5b61326386612c95565b945061327160208701612c95565b935060408601356001600160401b038082111561328d57600080fd5b61329989838a016131c3565b945060608801359150808211156132af57600080fd5b6132bb89838a016131c3565b935060808801359150808211156132d157600080fd5b506132de88828901612deb565b9150509295509295909350565b600080604083850312156132fe57600080fd5b61330783612c95565b9150612f4260208401612c95565b600080600080600060a0868803121561332d57600080fd5b61333686612c95565b945061334460208701612c95565b9350604086013592506060860135915060808601356001600160401b0381111561336d57600080fd5b6132de88828901612deb565b600181811c9082168061338d57607f821691505b6020821081036133ad57634e487b7160e01b600052602260045260246000fd5b50919050565b6020808252602d908201527f4552433732313a2063616c6c6572206973206e6f7420746f6b656e206f776e6560408201526c1c881bdc88185c1c1c9bdd9959609a1b606082015260800190565b634e487b7160e01b600052601160045260246000fd5b80820281158282048414176107a7576107a7613400565b60008261344a57634e487b7160e01b600052601260045260246000fd5b500490565b601f82111561097b57600081815260208120601f850160051c810160208610156134765750805b601f850160051c820191505b8181101561349557828155600101613482565b505050505050565b6001600160401b038311156134b4576134b4612da5565b6134c8836134c28354613379565b8361344f565b6000601f8411600181146134fc57600085156134e45750838201355b600019600387901b1c1916600186901b17835561283d565b600083815260209020601f19861690835b8281101561352d578685013582556020948501946001909201910161350d565b508682101561354a5760001960f88860031b161c19848701351681555b505060018560011b0183555050505050565b634e487b7160e01b600052603260045260246000fd5b60006020828403121561358457600080fd5b813561135181613147565b6000600182016135a1576135a1613400565b5060010190565b8151151581526135bf602082016020840151613050565b60408281015161ffff16908201526060808301516001600160a01b0316908201526080808301519082015260a0918201519181019190915260c00190565b60006060828403121561360f57600080fd5b604051606081018181106001600160401b038211171561363157613631612da5565b604052825161363f81613102565b8152602083015161364f81613147565b60208201526040928301519281019290925250919050565b60208082526025908201527f4552433732313a207472616e736665722066726f6d20696e636f72726563742060408201526437bbb732b960d91b606082015260800190565b6020808252602b908201527f496e697469616c697a61626c653a20636f6e7472616374206973206e6f74206960408201526a6e697469616c697a696e6760a81b606082015260800190565b60208082526032908201527f4552433732313a207472616e7366657220746f206e6f6e20455243373231526560408201527131b2b4bb32b91034b6b83632b6b2b73a32b960711b606082015260800190565b6000835161375b818460208801612cff565b83519083019061376f818360208801612cff565b01949350505050565b7f416363657373436f6e74726f6c3a206163636f756e74200000000000000000008152600083516137b0816017850160208801612cff565b7001034b99036b4b9b9b4b733903937b6329607d1b60179184019182015283516137e1816028840160208801612cff565b01602801949350505050565b81516001600160401b0381111561380657613806612da5565b61381a816138148454613379565b8461344f565b602080601f83116001811461384f57600084156138375750858301515b600019600386901b1c1916600185901b178555613495565b600085815260208120601f198616915b8281101561387e5788860151825594840194600190910190840161385f565b508582101561389c5787850151600019600388901b60f8161c191681555b5050505050600190811b01905550565b6001600160a01b03858116825284166020820152604081018390526080606082018190526000906138df90830184612d23565b9695505050505050565b6000602082840312156138fb57600080fd5b815161135181612ccc565b808201808211156107a7576107a7613400565b60008161392857613928613400565b506000190190565b818103818111156107a7576107a7613400565b634e487b7160e01b600052603160045260246000fdfe65d7a28e3265b37a6474929f336521b332c1681b933f6cb9f3376673440d862aa26469706673582212209e184e492b8adfe4892946a5456ef71334c4db0219aa6b324438f9601ecd67dd64736f6c63430008130033",
    "sourcePath": "c:/Users/EddyB/source/repos/youtpout/HeroContracts/contracts/Hero.sol",
    "compiler": {
        "name": "solc",
        "version": "0.8.19+commit.7dd6d404"
    },
    "functionHashes": {
        "DEFAULT_ADMIN_ROLE()": "a217fddf",
        "DelinkNft(uint256,uint16)": "f0ceb786",
        "MASTER_ROLE()": "dc224863",
        "MINTER_ROLE()": "d5391393",
        "PAUSER_ROLE()": "e63ab1e9",
        "addLinker(address)": "009aad1b",
        "addMarketAddress(address)": "84edbe63",
        "approve(address,uint256)": "095ea7b3",
        "approvedLinker(address)": "d739cd23",
        "approvedMarketplaces(address)": "543a9eb9",
        "balanceOf(address)": "70a08231",
        "bank()": "76cdb03b",
        "burn(uint256)": "42966c68",
        "changeBank(address)": "361d004f",
        "getApproved(uint256)": "081812fc",
        "getLinkedNft(uint256,uint16[])": "799ede3c",
        "getRoleAdmin(bytes32)": "248a9ca3",
        "grantRole(bytes32,address)": "2f2ff15d",
        "hasRole(bytes32,address)": "91d14854",
        "initialize()": "8129fc1c",
        "isApprovedForAll(address,address)": "e985e9c5",
        "linkNfts(uint256,uint16)": "ba492a34",
        "name()": "06fdde03",
        "onERC1155BatchReceived(address,address,uint256[],uint256[],bytes)": "bc197c81",
        "onERC1155Received(address,address,uint256,uint256,bytes)": "f23a6e61",
        "onERC721Received(address,address,uint256,bytes)": "150b7a02",
        "ownerOf(uint256)": "6352211e",
        "pause()": "8456cb59",
        "paused()": "5c975abb",
        "removeLinker(address)": "8e1ab510",
        "removeMarketAddress(address)": "dc945a58",
        "renounceRole(bytes32,address)": "36568abe",
        "revokeRole(bytes32,address)": "d547741f",
        "royalties()": "f053dc5c",
        "royaltyInfo(uint256,uint256)": "2a55205a",
        "safeMint(address)": "40d097c3",
        "safeTransferFrom(address,address,uint256)": "42842e0e",
        "safeTransferFrom(address,address,uint256,bytes)": "b88d4fde",
        "setApprovalForAll(address,bool)": "a22cb465",
        "setDefaultUri(string)": "466a18de",
        "setRoyalties(uint256)": "2b80183f",
        "supportsInterface(bytes4)": "01ffc9a7",
        "symbol()": "95d89b41",
        "tokenByIndex(uint256)": "4f6ccce7",
        "tokenOfOwnerByIndex(address,uint256)": "2f745c59",
        "tokenURI(uint256)": "c87b56dd",
        "totalSupply()": "18160ddd",
        "transferFrom(address,address,uint256)": "23b872dd",
        "unpause()": "3f4ba83a"
    },
    "gasEstimates": {
        "creation": {
            "codeDepositCost": "2953400",
            "executionCost": "infinite",
            "totalCost": "infinite"
        },
        "external": {
            "DEFAULT_ADMIN_ROLE()": "306",
            "DelinkNft(uint256,uint16)": "infinite",
            "MASTER_ROLE()": "262",
            "MINTER_ROLE()": "306",
            "PAUSER_ROLE()": "infinite",
            "addLinker(address)": "infinite",
            "addMarketAddress(address)": "infinite",
            "approve(address,uint256)": "infinite",
            "approvedLinker(address)": "2675",
            "approvedMarketplaces(address)": "2631",
            "balanceOf(address)": "2635",
            "bank()": "2405",
            "burn(uint256)": "infinite",
            "changeBank(address)": "infinite",
            "getApproved(uint256)": "4837",
            "getLinkedNft(uint256,uint16[])": "infinite",
            "getRoleAdmin(bytes32)": "2534",
            "grantRole(bytes32,address)": "infinite",
            "hasRole(bytes32,address)": "2721",
            "initialize()": "infinite",
            "isApprovedForAll(address,address)": "infinite",
            "linkNfts(uint256,uint16)": "7203",
            "name()": "infinite",
            "onERC1155BatchReceived(address,address,uint256[],uint256[],bytes)": "infinite",
            "onERC1155Received(address,address,uint256,uint256,bytes)": "infinite",
            "onERC721Received(address,address,uint256,bytes)": "infinite",
            "ownerOf(uint256)": "2693",
            "pause()": "infinite",
            "paused()": "2426",
            "removeLinker(address)": "infinite",
            "removeMarketAddress(address)": "infinite",
            "renounceRole(bytes32,address)": "29091",
            "revokeRole(bytes32,address)": "infinite",
            "royalties()": "2383",
            "royaltyInfo(uint256,uint256)": "4883",
            "safeMint(address)": "infinite",
            "safeTransferFrom(address,address,uint256)": "infinite",
            "safeTransferFrom(address,address,uint256,bytes)": "infinite",
            "setApprovalForAll(address,bool)": "26845",
            "setDefaultUri(string)": "infinite",
            "setRoyalties(uint256)": "infinite",
            "supportsInterface(bytes4)": "infinite",
            "symbol()": "infinite",
            "tokenByIndex(uint256)": "6804",
            "tokenOfOwnerByIndex(address,uint256)": "4976",
            "tokenURI(uint256)": "infinite",
            "totalSupply()": "2327",
            "transferFrom(address,address,uint256)": "infinite",
            "unpause()": "infinite"
        },
        "internal": {
            "_baseURI()": "infinite",
            "_beforeTokenTransfer(address,address,uint256,uint256)": "infinite",
            "_burn(uint256)": "infinite",
            "_linkNft(address,uint256,enum Hero.ContractType,bytes memory)": "infinite"
        }
    }
}