{
    "contractName": "HeroSpell",
    "abi": [
        {
            "inputs": [],
            "stateMutability": "nonpayable",
            "type": "constructor"
        },
        {
            "anonymous": false,
            "inputs": [
                {
                    "indexed": true,
                    "internalType": "address",
                    "name": "account",
                    "type": "address"
                },
                {
                    "indexed": true,
                    "internalType": "address",
                    "name": "operator",
                    "type": "address"
                },
                {
                    "indexed": false,
                    "internalType": "bool",
                    "name": "approved",
                    "type": "bool"
                }
            ],
            "name": "ApprovalForAll",
            "type": "event"
        },
        {
            "anonymous": false,
            "inputs": [
                {
                    "indexed": false,
                    "internalType": "uint8",
                    "name": "version",
                    "type": "uint8"
                }
            ],
            "name": "Initialized",
            "type": "event"
        },
        {
            "anonymous": false,
            "inputs": [
                {
                    "indexed": false,
                    "internalType": "address",
                    "name": "account",
                    "type": "address"
                }
            ],
            "name": "Paused",
            "type": "event"
        },
        {
            "anonymous": false,
            "inputs": [
                {
                    "indexed": true,
                    "internalType": "bytes32",
                    "name": "role",
                    "type": "bytes32"
                },
                {
                    "indexed": true,
                    "internalType": "bytes32",
                    "name": "previousAdminRole",
                    "type": "bytes32"
                },
                {
                    "indexed": true,
                    "internalType": "bytes32",
                    "name": "newAdminRole",
                    "type": "bytes32"
                }
            ],
            "name": "RoleAdminChanged",
            "type": "event"
        },
        {
            "anonymous": false,
            "inputs": [
                {
                    "indexed": true,
                    "internalType": "bytes32",
                    "name": "role",
                    "type": "bytes32"
                },
                {
                    "indexed": true,
                    "internalType": "address",
                    "name": "account",
                    "type": "address"
                },
                {
                    "indexed": true,
                    "internalType": "address",
                    "name": "sender",
                    "type": "address"
                }
            ],
            "name": "RoleGranted",
            "type": "event"
        },
        {
            "anonymous": false,
            "inputs": [
                {
                    "indexed": true,
                    "internalType": "bytes32",
                    "name": "role",
                    "type": "bytes32"
                },
                {
                    "indexed": true,
                    "internalType": "address",
                    "name": "account",
                    "type": "address"
                },
                {
                    "indexed": true,
                    "internalType": "address",
                    "name": "sender",
                    "type": "address"
                }
            ],
            "name": "RoleRevoked",
            "type": "event"
        },
        {
            "anonymous": false,
            "inputs": [
                {
                    "indexed": true,
                    "internalType": "address",
                    "name": "operator",
                    "type": "address"
                },
                {
                    "indexed": true,
                    "internalType": "address",
                    "name": "from",
                    "type": "address"
                },
                {
                    "indexed": true,
                    "internalType": "address",
                    "name": "to",
                    "type": "address"
                },
                {
                    "indexed": false,
                    "internalType": "uint256[]",
                    "name": "ids",
                    "type": "uint256[]"
                },
                {
                    "indexed": false,
                    "internalType": "uint256[]",
                    "name": "values",
                    "type": "uint256[]"
                }
            ],
            "name": "TransferBatch",
            "type": "event"
        },
        {
            "anonymous": false,
            "inputs": [
                {
                    "indexed": true,
                    "internalType": "address",
                    "name": "operator",
                    "type": "address"
                },
                {
                    "indexed": true,
                    "internalType": "address",
                    "name": "from",
                    "type": "address"
                },
                {
                    "indexed": true,
                    "internalType": "address",
                    "name": "to",
                    "type": "address"
                },
                {
                    "indexed": false,
                    "internalType": "uint256",
                    "name": "id",
                    "type": "uint256"
                },
                {
                    "indexed": false,
                    "internalType": "uint256",
                    "name": "value",
                    "type": "uint256"
                }
            ],
            "name": "TransferSingle",
            "type": "event"
        },
        {
            "anonymous": false,
            "inputs": [
                {
                    "indexed": false,
                    "internalType": "string",
                    "name": "value",
                    "type": "string"
                },
                {
                    "indexed": true,
                    "internalType": "uint256",
                    "name": "id",
                    "type": "uint256"
                }
            ],
            "name": "URI",
            "type": "event"
        },
        {
            "anonymous": false,
            "inputs": [
                {
                    "indexed": false,
                    "internalType": "address",
                    "name": "account",
                    "type": "address"
                }
            ],
            "name": "Unpaused",
            "type": "event"
        },
        {
            "inputs": [],
            "name": "DEFAULT_ADMIN_ROLE",
            "outputs": [
                {
                    "internalType": "bytes32",
                    "name": "",
                    "type": "bytes32"
                }
            ],
            "stateMutability": "view",
            "type": "function"
        },
        {
            "inputs": [],
            "name": "MINTER_ROLE",
            "outputs": [
                {
                    "internalType": "bytes32",
                    "name": "",
                    "type": "bytes32"
                }
            ],
            "stateMutability": "view",
            "type": "function"
        },
        {
            "inputs": [],
            "name": "PAUSER_ROLE",
            "outputs": [
                {
                    "internalType": "bytes32",
                    "name": "",
                    "type": "bytes32"
                }
            ],
            "stateMutability": "view",
            "type": "function"
        },
        {
            "inputs": [],
            "name": "URI_SETTER_ROLE",
            "outputs": [
                {
                    "internalType": "bytes32",
                    "name": "",
                    "type": "bytes32"
                }
            ],
            "stateMutability": "view",
            "type": "function"
        },
        {
            "inputs": [
                {
                    "internalType": "address",
                    "name": "marketAddress",
                    "type": "address"
                }
            ],
            "name": "addMarketAddress",
            "outputs": [],
            "stateMutability": "nonpayable",
            "type": "function"
        },
        {
            "inputs": [
                {
                    "internalType": "address",
                    "name": "",
                    "type": "address"
                }
            ],
            "name": "approvedMarketplaces",
            "outputs": [
                {
                    "internalType": "bool",
                    "name": "",
                    "type": "bool"
                }
            ],
            "stateMutability": "view",
            "type": "function"
        },
        {
            "inputs": [
                {
                    "internalType": "address",
                    "name": "account",
                    "type": "address"
                },
                {
                    "internalType": "uint256",
                    "name": "id",
                    "type": "uint256"
                }
            ],
            "name": "balanceOf",
            "outputs": [
                {
                    "internalType": "uint256",
                    "name": "",
                    "type": "uint256"
                }
            ],
            "stateMutability": "view",
            "type": "function"
        },
        {
            "inputs": [
                {
                    "internalType": "address[]",
                    "name": "accounts",
                    "type": "address[]"
                },
                {
                    "internalType": "uint256[]",
                    "name": "ids",
                    "type": "uint256[]"
                }
            ],
            "name": "balanceOfBatch",
            "outputs": [
                {
                    "internalType": "uint256[]",
                    "name": "",
                    "type": "uint256[]"
                }
            ],
            "stateMutability": "view",
            "type": "function"
        },
        {
            "inputs": [],
            "name": "bank",
            "outputs": [
                {
                    "internalType": "address",
                    "name": "",
                    "type": "address"
                }
            ],
            "stateMutability": "view",
            "type": "function"
        },
        {
            "inputs": [
                {
                    "internalType": "address",
                    "name": "account",
                    "type": "address"
                },
                {
                    "internalType": "uint256",
                    "name": "id",
                    "type": "uint256"
                },
                {
                    "internalType": "uint256",
                    "name": "value",
                    "type": "uint256"
                }
            ],
            "name": "burn",
            "outputs": [],
            "stateMutability": "nonpayable",
            "type": "function"
        },
        {
            "inputs": [
                {
                    "internalType": "address",
                    "name": "account",
                    "type": "address"
                },
                {
                    "internalType": "uint256[]",
                    "name": "ids",
                    "type": "uint256[]"
                },
                {
                    "internalType": "uint256[]",
                    "name": "values",
                    "type": "uint256[]"
                }
            ],
            "name": "burnBatch",
            "outputs": [],
            "stateMutability": "nonpayable",
            "type": "function"
        },
        {
            "inputs": [
                {
                    "internalType": "address",
                    "name": "newBank",
                    "type": "address"
                }
            ],
            "name": "changeBank",
            "outputs": [],
            "stateMutability": "nonpayable",
            "type": "function"
        },
        {
            "inputs": [
                {
                    "internalType": "uint256",
                    "name": "id",
                    "type": "uint256"
                }
            ],
            "name": "exists",
            "outputs": [
                {
                    "internalType": "bool",
                    "name": "",
                    "type": "bool"
                }
            ],
            "stateMutability": "view",
            "type": "function"
        },
        {
            "inputs": [
                {
                    "internalType": "bytes32",
                    "name": "role",
                    "type": "bytes32"
                }
            ],
            "name": "getRoleAdmin",
            "outputs": [
                {
                    "internalType": "bytes32",
                    "name": "",
                    "type": "bytes32"
                }
            ],
            "stateMutability": "view",
            "type": "function"
        },
        {
            "inputs": [
                {
                    "internalType": "bytes32",
                    "name": "role",
                    "type": "bytes32"
                },
                {
                    "internalType": "address",
                    "name": "account",
                    "type": "address"
                }
            ],
            "name": "grantRole",
            "outputs": [],
            "stateMutability": "nonpayable",
            "type": "function"
        },
        {
            "inputs": [
                {
                    "internalType": "bytes32",
                    "name": "role",
                    "type": "bytes32"
                },
                {
                    "internalType": "address",
                    "name": "account",
                    "type": "address"
                }
            ],
            "name": "hasRole",
            "outputs": [
                {
                    "internalType": "bool",
                    "name": "",
                    "type": "bool"
                }
            ],
            "stateMutability": "view",
            "type": "function"
        },
        {
            "inputs": [],
            "name": "initialize",
            "outputs": [],
            "stateMutability": "nonpayable",
            "type": "function"
        },
        {
            "inputs": [
                {
                    "internalType": "address",
                    "name": "owner",
                    "type": "address"
                },
                {
                    "internalType": "address",
                    "name": "operator",
                    "type": "address"
                }
            ],
            "name": "isApprovedForAll",
            "outputs": [
                {
                    "internalType": "bool",
                    "name": "",
                    "type": "bool"
                }
            ],
            "stateMutability": "view",
            "type": "function"
        },
        {
            "inputs": [
                {
                    "internalType": "address",
                    "name": "account",
                    "type": "address"
                },
                {
                    "internalType": "uint256",
                    "name": "id",
                    "type": "uint256"
                },
                {
                    "internalType": "uint256",
                    "name": "amount",
                    "type": "uint256"
                },
                {
                    "internalType": "bytes",
                    "name": "data",
                    "type": "bytes"
                }
            ],
            "name": "mint",
            "outputs": [],
            "stateMutability": "nonpayable",
            "type": "function"
        },
        {
            "inputs": [
                {
                    "internalType": "address",
                    "name": "to",
                    "type": "address"
                },
                {
                    "internalType": "uint256[]",
                    "name": "ids",
                    "type": "uint256[]"
                },
                {
                    "internalType": "uint256[]",
                    "name": "amounts",
                    "type": "uint256[]"
                },
                {
                    "internalType": "bytes",
                    "name": "data",
                    "type": "bytes"
                }
            ],
            "name": "mintBatch",
            "outputs": [],
            "stateMutability": "nonpayable",
            "type": "function"
        },
        {
            "inputs": [],
            "name": "pause",
            "outputs": [],
            "stateMutability": "nonpayable",
            "type": "function"
        },
        {
            "inputs": [],
            "name": "paused",
            "outputs": [
                {
                    "internalType": "bool",
                    "name": "",
                    "type": "bool"
                }
            ],
            "stateMutability": "view",
            "type": "function"
        },
        {
            "inputs": [
                {
                    "internalType": "address",
                    "name": "marketAddress",
                    "type": "address"
                }
            ],
            "name": "removeMarketAddress",
            "outputs": [],
            "stateMutability": "nonpayable",
            "type": "function"
        },
        {
            "inputs": [
                {
                    "internalType": "bytes32",
                    "name": "role",
                    "type": "bytes32"
                },
                {
                    "internalType": "address",
                    "name": "account",
                    "type": "address"
                }
            ],
            "name": "renounceRole",
            "outputs": [],
            "stateMutability": "nonpayable",
            "type": "function"
        },
        {
            "inputs": [
                {
                    "internalType": "bytes32",
                    "name": "role",
                    "type": "bytes32"
                },
                {
                    "internalType": "address",
                    "name": "account",
                    "type": "address"
                }
            ],
            "name": "revokeRole",
            "outputs": [],
            "stateMutability": "nonpayable",
            "type": "function"
        },
        {
            "inputs": [],
            "name": "royalties",
            "outputs": [
                {
                    "internalType": "uint256",
                    "name": "",
                    "type": "uint256"
                }
            ],
            "stateMutability": "view",
            "type": "function"
        },
        {
            "inputs": [
                {
                    "internalType": "uint256",
                    "name": "",
                    "type": "uint256"
                },
                {
                    "internalType": "uint256",
                    "name": "value",
                    "type": "uint256"
                }
            ],
            "name": "royaltyInfo",
            "outputs": [
                {
                    "internalType": "address",
                    "name": "receiver",
                    "type": "address"
                },
                {
                    "internalType": "uint256",
                    "name": "royaltyAmount",
                    "type": "uint256"
                }
            ],
            "stateMutability": "view",
            "type": "function"
        },
        {
            "inputs": [
                {
                    "internalType": "address",
                    "name": "from",
                    "type": "address"
                },
                {
                    "internalType": "address",
                    "name": "to",
                    "type": "address"
                },
                {
                    "internalType": "uint256[]",
                    "name": "ids",
                    "type": "uint256[]"
                },
                {
                    "internalType": "uint256[]",
                    "name": "amounts",
                    "type": "uint256[]"
                },
                {
                    "internalType": "bytes",
                    "name": "data",
                    "type": "bytes"
                }
            ],
            "name": "safeBatchTransferFrom",
            "outputs": [],
            "stateMutability": "nonpayable",
            "type": "function"
        },
        {
            "inputs": [
                {
                    "internalType": "address",
                    "name": "from",
                    "type": "address"
                },
                {
                    "internalType": "address",
                    "name": "to",
                    "type": "address"
                },
                {
                    "internalType": "uint256",
                    "name": "id",
                    "type": "uint256"
                },
                {
                    "internalType": "uint256",
                    "name": "amount",
                    "type": "uint256"
                },
                {
                    "internalType": "bytes",
                    "name": "data",
                    "type": "bytes"
                }
            ],
            "name": "safeTransferFrom",
            "outputs": [],
            "stateMutability": "nonpayable",
            "type": "function"
        },
        {
            "inputs": [
                {
                    "internalType": "address",
                    "name": "operator",
                    "type": "address"
                },
                {
                    "internalType": "bool",
                    "name": "approved",
                    "type": "bool"
                }
            ],
            "name": "setApprovalForAll",
            "outputs": [],
            "stateMutability": "nonpayable",
            "type": "function"
        },
        {
            "inputs": [
                {
                    "internalType": "uint256",
                    "name": "newRoyalty",
                    "type": "uint256"
                }
            ],
            "name": "setRoyalties",
            "outputs": [],
            "stateMutability": "nonpayable",
            "type": "function"
        },
        {
            "inputs": [
                {
                    "internalType": "string",
                    "name": "newuri",
                    "type": "string"
                }
            ],
            "name": "setURI",
            "outputs": [],
            "stateMutability": "nonpayable",
            "type": "function"
        },
        {
            "inputs": [
                {
                    "internalType": "bytes4",
                    "name": "interfaceId",
                    "type": "bytes4"
                }
            ],
            "name": "supportsInterface",
            "outputs": [
                {
                    "internalType": "bool",
                    "name": "",
                    "type": "bool"
                }
            ],
            "stateMutability": "view",
            "type": "function"
        },
        {
            "inputs": [
                {
                    "internalType": "uint256",
                    "name": "id",
                    "type": "uint256"
                }
            ],
            "name": "totalSupply",
            "outputs": [
                {
                    "internalType": "uint256",
                    "name": "",
                    "type": "uint256"
                }
            ],
            "stateMutability": "view",
            "type": "function"
        },
        {
            "inputs": [],
            "name": "unpause",
            "outputs": [],
            "stateMutability": "nonpayable",
            "type": "function"
        },
        {
            "inputs": [
                {
                    "internalType": "uint256",
                    "name": "",
                    "type": "uint256"
                }
            ],
            "name": "uri",
            "outputs": [
                {
                    "internalType": "string",
                    "name": "",
                    "type": "string"
                }
            ],
            "stateMutability": "view",
            "type": "function"
        }
    ],
    "bytecode": "60806040526101f4610160553480156200001857600080fd5b506200002362000029565b620000eb565b600054610100900460ff1615620000965760405162461bcd60e51b815260206004820152602760248201527f496e697469616c697a61626c653a20636f6e747261637420697320696e697469604482015266616c697a696e6760c81b606482015260840160405180910390fd5b60005460ff9081161015620000e9576000805460ff191660ff9081179091556040519081527f7f26b83ff96e1f2b6a682f133852f6798a09c465da95921460cefb38474024989060200160405180910390a15b565b612e0880620000fb6000396000f3fe608060405234801561001057600080fd5b506004361061021b5760003560e01c8063731133e911610125578063bd85b039116100ad578063e63ab1e91161007c578063e63ab1e914610505578063e985e9c51461051a578063f053dc5c1461052d578063f242432a14610537578063f5298aca1461054a57600080fd5b8063bd85b039146104a9578063d5391393146104ca578063d547741f146104df578063dc945a58146104f257600080fd5b80638456cb59116100f45780638456cb591461046057806384edbe631461046857806391d148541461047b578063a217fddf1461048e578063a22cb4651461049657600080fd5b8063731133e9146103f257806376cdb03b146104055780637f345710146104315780638129fc1c1461045857600080fd5b80632f2ff15d116101a85780634e1273f4116101775780634e1273f41461036d5780634f558e791461038d578063543a9eb9146103b05780635c975abb146103d45780636b20c454146103df57600080fd5b80632f2ff15d1461032c578063361d004f1461033f57806336568abe146103525780633f4ba83a1461036557600080fd5b80631f7fdffa116101ef5780631f7fdffa1461029e578063248a9ca3146102b15780632a55205a146102d45780632b80183f146103065780632eb2c2d61461031957600080fd5b8062fdd58e1461022057806301ffc9a71461024657806302fe5305146102695780630e89341c1461027e575b600080fd5b61023361022e366004612021565b61055d565b6040519081526020015b60405180910390f35b610259610254366004612061565b6105f8565b604051901515815260200161023d565b61027c61027736600461211d565b61061d565b005b61029161028c36600461216d565b610654565b60405161023d91906121d6565b61027c6102ac36600461229d565b6106e8565b6102336102bf36600461216d565b60009081526097602052604090206001015490565b6102e76102e2366004612335565b610713565b604080516001600160a01b03909316835260208301919091520161023d565b61027c61031436600461216d565b61074f565b61027c610327366004612357565b610761565b61027c61033a366004612400565b6107a6565b61027c61034d36600461242c565b6107d0565b61027c610360366004612400565b6107ff565b61027c610879565b61038061037b366004612447565b61089c565b60405161023d919061254c565b61025961039b36600461216d565b600090815261012d6020526040902054151590565b6102596103be36600461242c565b61015f6020526000908152604090205460ff1681565b60c95460ff16610259565b61027c6103ed36600461255f565b6109c5565b61027c6104003660046125d2565b610a08565b61016154610419906001600160a01b031681565b6040516001600160a01b03909116815260200161023d565b6102337f7804d923f43a17d325d77e781528e0793b2edd9890ab45fc64efd7b4b427744c81565b61027c610a2c565b61027c610c0a565b61027c61047636600461242c565b610c2a565b610259610489366004612400565b610c5b565b610233600081565b61027c6104a4366004612626565b610c86565b6102336104b736600461216d565b600090815261012d602052604090205490565b610233600080516020612db383398151915281565b61027c6104ed366004612400565b610c91565b61027c61050036600461242c565b610cb6565b610233600080516020612d9383398151915281565b610259610528366004612662565b610ce4565b6102336101605481565b61027c61054536600461268c565b610d38565b61027c6105583660046126f0565b610d7d565b60006001600160a01b0383166105cd5760405162461bcd60e51b815260206004820152602a60248201527f455243313135353a2061646472657373207a65726f206973206e6f742061207660448201526930b634b21037bbb732b960b11b60648201526084015b60405180910390fd5b5060008181526065602090815260408083206001600160a01b03861684529091529020545b92915050565b60006001600160e01b0319821663152a902d60e11b14806105f257506105f282610dc0565b7f7804d923f43a17d325d77e781528e0793b2edd9890ab45fc64efd7b4b427744c61064781610de5565b61065082610def565b5050565b60606067805461066390612723565b80601f016020809104026020016040519081016040528092919081815260200182805461068f90612723565b80156106dc5780601f106106b1576101008083540402835291602001916106dc565b820191906000526020600020905b8154815290600101906020018083116106bf57829003601f168201915b50505050509050919050565b600080516020612db383398151915261070081610de5565b61070c85858585610dfb565b5050505050565b610161546101605460009182916001600160a01b03909116906127109061073a9086612773565b610744919061278a565b915091509250929050565b600061075a81610de5565b5061016055565b6001600160a01b03851633148061077d575061077d8533610ce4565b6107995760405162461bcd60e51b81526004016105c4906127ac565b61070c8585858585610f56565b6000828152609760205260409020600101546107c181610de5565b6107cb8383611103565b505050565b60006107db81610de5565b5061016180546001600160a01b0319166001600160a01b0392909216919091179055565b6001600160a01b038116331461086f5760405162461bcd60e51b815260206004820152602f60248201527f416363657373436f6e74726f6c3a2063616e206f6e6c792072656e6f756e636560448201526e103937b632b9903337b91039b2b63360891b60648201526084016105c4565b6106508282611189565b600080516020612d9383398151915261089181610de5565b6108996111f0565b50565b606081518351146109015760405162461bcd60e51b815260206004820152602960248201527f455243313135353a206163636f756e747320616e6420696473206c656e677468604482015268040dad2e6dac2e8c6d60bb1b60648201526084016105c4565b600083516001600160401b0381111561091c5761091c61207e565b604051908082528060200260200182016040528015610945578160200160208202803683370190505b50905060005b84518110156109bd57610990858281518110610969576109696127fa565b6020026020010151858381518110610983576109836127fa565b602002602001015161055d565b8282815181106109a2576109a26127fa565b60209081029190910101526109b681612810565b905061094b565b509392505050565b6001600160a01b0383163314806109e157506109e18333610ce4565b6109fd5760405162461bcd60e51b81526004016105c4906127ac565b6107cb838383611242565b600080516020612db3833981519152610a2081610de5565b61070c858585856113e2565b600054610100900460ff1615808015610a4c5750600054600160ff909116105b80610a665750303b158015610a66575060005460ff166001145b610ac95760405162461bcd60e51b815260206004820152602e60248201527f496e697469616c697a61626c653a20636f6e747261637420697320616c72656160448201526d191e481a5b9a5d1a585b1a5e995960921b60648201526084016105c4565b6000805460ff191660011790558015610aec576000805461ff0019166101001790555b610b2a6040518060400160405280601f81526020017f68747470733a2f2f6865726f2e6f76682f6170692f7370656c6c2f7b69647d008152506114cd565b610b326114fd565b610b3a611526565b610b426114fd565b610b4a6114fd565b610b55600033611103565b610b7f7f7804d923f43a17d325d77e781528e0793b2edd9890ab45fc64efd7b4b427744c33611103565b610b97600080516020612d9383398151915233611103565b610baf600080516020612db383398151915233611103565b61016180546001600160a01b031916331790558015610899576000805461ff0019169055604051600181527f7f26b83ff96e1f2b6a682f133852f6798a09c465da95921460cefb38474024989060200160405180910390a150565b600080516020612d93833981519152610c2281610de5565b610899611555565b6000610c3581610de5565b506001600160a01b0316600090815261015f60205260409020805460ff19166001179055565b60009182526097602090815260408084206001600160a01b0393909316845291905290205460ff1690565b610650338383611592565b600082815260976020526040902060010154610cac81610de5565b6107cb8383611189565b6000610cc181610de5565b506001600160a01b0316600090815261015f60205260409020805460ff19169055565b6001600160a01b038116600090815261015f602052604081205460ff1680610d3157506001600160a01b0380841660009081526066602090815260408083209386168352929052205460ff165b9392505050565b6001600160a01b038516331480610d545750610d548533610ce4565b610d705760405162461bcd60e51b81526004016105c4906127ac565b61070c8585858585611672565b6001600160a01b038316331480610d995750610d998333610ce4565b610db55760405162461bcd60e51b81526004016105c4906127ac565b6107cb8383836117ae565b60006001600160e01b03198216637965db0b60e01b14806105f257506105f2826118ca565b610899813361191a565b6067610650828261286f565b6001600160a01b038416610e215760405162461bcd60e51b81526004016105c49061292e565b8151835114610e425760405162461bcd60e51b81526004016105c49061296f565b33610e5281600087878787611973565b60005b8451811015610eee57838181518110610e7057610e706127fa565b602002602001015160656000878481518110610e8e57610e8e6127fa565b602002602001015181526020019081526020016000206000886001600160a01b03166001600160a01b031681526020019081526020016000206000828254610ed691906129b7565b90915550819050610ee681612810565b915050610e55565b50846001600160a01b031660006001600160a01b0316826001600160a01b03167f4a39dc06d4c0dbc64b70af90fd698a233a518aa5d07e595d983b8c0526c8f7fb8787604051610f3f9291906129ca565b60405180910390a461070c81600087878787611989565b8151835114610f775760405162461bcd60e51b81526004016105c49061296f565b6001600160a01b038416610f9d5760405162461bcd60e51b81526004016105c4906129f8565b33610fac818787878787611973565b60005b8451811015611095576000858281518110610fcc57610fcc6127fa565b602002602001015190506000858381518110610fea57610fea6127fa565b60209081029190910181015160008481526065835260408082206001600160a01b038e16835290935291909120549091508181101561103b5760405162461bcd60e51b81526004016105c490612a3d565b60008381526065602090815260408083206001600160a01b038e8116855292528083208585039055908b1682528120805484929061107a9084906129b7565b925050819055505050508061108e90612810565b9050610faf565b50846001600160a01b0316866001600160a01b0316826001600160a01b03167f4a39dc06d4c0dbc64b70af90fd698a233a518aa5d07e595d983b8c0526c8f7fb87876040516110e59291906129ca565b60405180910390a46110fb818787878787611989565b505050505050565b61110d8282610c5b565b6106505760008281526097602090815260408083206001600160a01b03851684529091529020805460ff191660011790556111453390565b6001600160a01b0316816001600160a01b0316837f2f8788117e7eff1d82e926ec794901d17c78024a50270940304540a733656f0d60405160405180910390a45050565b6111938282610c5b565b156106505760008281526097602090815260408083206001600160a01b0385168085529252808320805460ff1916905551339285917ff6391f5c32d9c69d2a47ea670b442974b53935d1edc7fd64eb21e047a839171b9190a45050565b6111f8611ae4565b60c9805460ff191690557f5db9ee0a495bf2e6ff9c91a7834c1ba4fdd244a5e8aa4e537bd38aeae4b073aa335b6040516001600160a01b03909116815260200160405180910390a1565b6001600160a01b0383166112685760405162461bcd60e51b81526004016105c490612a87565b80518251146112895760405162461bcd60e51b81526004016105c49061296f565b60003390506112ac81856000868660405180602001604052806000815250611973565b60005b83518110156113745760008482815181106112cc576112cc6127fa565b6020026020010151905060008483815181106112ea576112ea6127fa565b60209081029190910181015160008481526065835260408082206001600160a01b038c16835290935291909120549091508181101561133b5760405162461bcd60e51b81526004016105c490612aca565b60009283526065602090815260408085206001600160a01b038b168652909152909220910390558061136c81612810565b9150506112af565b5060006001600160a01b0316846001600160a01b0316826001600160a01b03167f4a39dc06d4c0dbc64b70af90fd698a233a518aa5d07e595d983b8c0526c8f7fb86866040516113c59291906129ca565b60405180910390a460408051602081019091526000905250505050565b6001600160a01b0384166114085760405162461bcd60e51b81526004016105c49061292e565b33600061141485611b2d565b9050600061142185611b2d565b905061143283600089858589611973565b60008681526065602090815260408083206001600160a01b038b168452909152812080548792906114649084906129b7565b909155505060408051878152602081018790526001600160a01b03808a1692600092918716917fc3d58168c5ae7397731d063d5bbf3d657854427343f4c083240f7aacaa2d0f62910160405180910390a46114c483600089898989611b78565b50505050505050565b600054610100900460ff166114f45760405162461bcd60e51b81526004016105c490612b0e565b61089981611c33565b600054610100900460ff166115245760405162461bcd60e51b81526004016105c490612b0e565b565b600054610100900460ff1661154d5760405162461bcd60e51b81526004016105c490612b0e565b611524611c63565b61155d611c96565b60c9805460ff191660011790557f62e78cea01bee320cd4e420270b5ea74000d11b0c9f74754ebdbfc544b05a2586112253390565b816001600160a01b0316836001600160a01b0316036116055760405162461bcd60e51b815260206004820152602960248201527f455243313135353a2073657474696e6720617070726f76616c20737461747573604482015268103337b91039b2b63360b91b60648201526084016105c4565b6001600160a01b03838116600081815260666020908152604080832094871680845294825291829020805460ff191686151590811790915591519182527f17307eab39ab6107e8899845ad3d59bd9653f200f220920489ca2b5937696c31910160405180910390a3505050565b6001600160a01b0384166116985760405162461bcd60e51b81526004016105c4906129f8565b3360006116a485611b2d565b905060006116b185611b2d565b90506116c1838989858589611973565b60008681526065602090815260408083206001600160a01b038c168452909152902054858110156117045760405162461bcd60e51b81526004016105c490612a3d565b60008781526065602090815260408083206001600160a01b038d8116855292528083208985039055908a168252812080548892906117439084906129b7565b909155505060408051888152602081018890526001600160a01b03808b16928c821692918816917fc3d58168c5ae7397731d063d5bbf3d657854427343f4c083240f7aacaa2d0f62910160405180910390a46117a3848a8a8a8a8a611b78565b505050505050505050565b6001600160a01b0383166117d45760405162461bcd60e51b81526004016105c490612a87565b3360006117e084611b2d565b905060006117ed84611b2d565b905061180d83876000858560405180602001604052806000815250611973565b60008581526065602090815260408083206001600160a01b038a168452909152902054848110156118505760405162461bcd60e51b81526004016105c490612aca565b60008681526065602090815260408083206001600160a01b038b81168086529184528285208a8703905582518b81529384018a90529092908816917fc3d58168c5ae7397731d063d5bbf3d657854427343f4c083240f7aacaa2d0f62910160405180910390a46040805160208101909152600090526114c4565b60006001600160e01b03198216636cdb3d1360e11b14806118fb57506001600160e01b031982166303a24d0760e21b145b806105f257506301ffc9a760e01b6001600160e01b03198316146105f2565b6119248282610c5b565b6106505761193181611cdc565b61193c836020611cee565b60405160200161194d929190612b59565b60408051601f198184030181529082905262461bcd60e51b82526105c4916004016121d6565b61197b611c96565b6110fb868686868686611e89565b6001600160a01b0384163b156110fb5760405163bc197c8160e01b81526001600160a01b0385169063bc197c81906119cd9089908990889088908890600401612bce565b6020604051808303816000875af1925050508015611a08575060408051601f3d908101601f19168201909252611a0591810190612c2c565b60015b611ab457611a14612c49565b806308c379a003611a4d5750611a28612c65565b80611a335750611a4f565b8060405162461bcd60e51b81526004016105c491906121d6565b505b60405162461bcd60e51b815260206004820152603460248201527f455243313135353a207472616e7366657220746f206e6f6e2d455243313135356044820152732932b1b2b4bb32b91034b6b83632b6b2b73a32b960611b60648201526084016105c4565b6001600160e01b0319811663bc197c8160e01b146114c45760405162461bcd60e51b81526004016105c490612cee565b60c95460ff166115245760405162461bcd60e51b815260206004820152601460248201527314185d5cd8589b194e881b9bdd081c185d5cd95960621b60448201526064016105c4565b60408051600180825281830190925260609160009190602080830190803683370190505090508281600081518110611b6757611b676127fa565b602090810291909101015292915050565b6001600160a01b0384163b156110fb5760405163f23a6e6160e01b81526001600160a01b0385169063f23a6e6190611bbc9089908990889088908890600401612d36565b6020604051808303816000875af1925050508015611bf7575060408051601f3d908101601f19168201909252611bf491810190612c2c565b60015b611c0357611a14612c49565b6001600160e01b0319811663f23a6e6160e01b146114c45760405162461bcd60e51b81526004016105c490612cee565b600054610100900460ff16611c5a5760405162461bcd60e51b81526004016105c490612b0e565b61089981610def565b600054610100900460ff16611c8a5760405162461bcd60e51b81526004016105c490612b0e565b60c9805460ff19169055565b60c95460ff16156115245760405162461bcd60e51b815260206004820152601060248201526f14185d5cd8589b194e881c185d5cd95960821b60448201526064016105c4565b60606105f26001600160a01b03831660145b60606000611cfd836002612773565b611d089060026129b7565b6001600160401b03811115611d1f57611d1f61207e565b6040519080825280601f01601f191660200182016040528015611d49576020820181803683370190505b509050600360fc1b81600081518110611d6457611d646127fa565b60200101906001600160f81b031916908160001a905350600f60fb1b81600181518110611d9357611d936127fa565b60200101906001600160f81b031916908160001a9053506000611db7846002612773565b611dc29060016129b7565b90505b6001811115611e3a576f181899199a1a9b1b9c1cb0b131b232b360811b85600f1660108110611df657611df66127fa565b1a60f81b828281518110611e0c57611e0c6127fa565b60200101906001600160f81b031916908160001a90535060049490941c93611e3381612d7b565b9050611dc5565b508315610d315760405162461bcd60e51b815260206004820181905260248201527f537472696e67733a20686578206c656e67746820696e73756666696369656e7460448201526064016105c4565b6001600160a01b038516611f115760005b8351811015611f0f57828181518110611eb557611eb56127fa565b602002602001015161012d6000868481518110611ed457611ed46127fa565b602002602001015181526020019081526020016000206000828254611ef991906129b7565b90915550611f08905081612810565b9050611e9a565b505b6001600160a01b0384166110fb5760005b83518110156114c4576000848281518110611f3f57611f3f6127fa565b602002602001015190506000848381518110611f5d57611f5d6127fa565b60200260200101519050600061012d600084815260200190815260200160002054905081811015611fe15760405162461bcd60e51b815260206004820152602860248201527f455243313135353a206275726e20616d6f756e74206578636565647320746f74604482015267616c537570706c7960c01b60648201526084016105c4565b600092835261012d602052604090922091039055611ffe81612810565b9050611f22565b80356001600160a01b038116811461201c57600080fd5b919050565b6000806040838503121561203457600080fd5b61203d83612005565b946020939093013593505050565b6001600160e01b03198116811461089957600080fd5b60006020828403121561207357600080fd5b8135610d318161204b565b634e487b7160e01b600052604160045260246000fd5b601f8201601f191681016001600160401b03811182821017156120b9576120b961207e565b6040525050565b60006001600160401b038311156120d9576120d961207e565b6040516120f0601f8501601f191660200182612094565b80915083815284848401111561210557600080fd5b83836020830137600060208583010152509392505050565b60006020828403121561212f57600080fd5b81356001600160401b0381111561214557600080fd5b8201601f8101841361215657600080fd5b612165848235602084016120c0565b949350505050565b60006020828403121561217f57600080fd5b5035919050565b60005b838110156121a1578181015183820152602001612189565b50506000910152565b600081518084526121c2816020860160208601612186565b601f01601f19169290920160200192915050565b602081526000610d3160208301846121aa565b60006001600160401b038211156122025761220261207e565b5060051b60200190565b600082601f83011261221d57600080fd5b8135602061222a826121e9565b6040516122378282612094565b83815260059390931b850182019282810191508684111561225757600080fd5b8286015b84811015612272578035835291830191830161225b565b509695505050505050565b600082601f83011261228e57600080fd5b610d31838335602085016120c0565b600080600080608085870312156122b357600080fd5b6122bc85612005565b935060208501356001600160401b03808211156122d857600080fd5b6122e48883890161220c565b945060408701359150808211156122fa57600080fd5b6123068883890161220c565b9350606087013591508082111561231c57600080fd5b506123298782880161227d565b91505092959194509250565b6000806040838503121561234857600080fd5b50508035926020909101359150565b600080600080600060a0868803121561236f57600080fd5b61237886612005565b945061238660208701612005565b935060408601356001600160401b03808211156123a257600080fd5b6123ae89838a0161220c565b945060608801359150808211156123c457600080fd5b6123d089838a0161220c565b935060808801359150808211156123e657600080fd5b506123f38882890161227d565b9150509295509295909350565b6000806040838503121561241357600080fd5b8235915061242360208401612005565b90509250929050565b60006020828403121561243e57600080fd5b610d3182612005565b6000806040838503121561245a57600080fd5b82356001600160401b038082111561247157600080fd5b818501915085601f83011261248557600080fd5b81356020612492826121e9565b60405161249f8282612094565b83815260059390931b85018201928281019150898411156124bf57600080fd5b948201945b838610156124e4576124d586612005565b825294820194908201906124c4565b965050860135925050808211156124fa57600080fd5b506125078582860161220c565b9150509250929050565b600081518084526020808501945080840160005b8381101561254157815187529582019590820190600101612525565b509495945050505050565b602081526000610d316020830184612511565b60008060006060848603121561257457600080fd5b61257d84612005565b925060208401356001600160401b038082111561259957600080fd5b6125a58783880161220c565b935060408601359150808211156125bb57600080fd5b506125c88682870161220c565b9150509250925092565b600080600080608085870312156125e857600080fd5b6125f185612005565b9350602085013592506040850135915060608501356001600160401b0381111561261a57600080fd5b6123298782880161227d565b6000806040838503121561263957600080fd5b61264283612005565b91506020830135801515811461265757600080fd5b809150509250929050565b6000806040838503121561267557600080fd5b61267e83612005565b915061242360208401612005565b600080600080600060a086880312156126a457600080fd5b6126ad86612005565b94506126bb60208701612005565b9350604086013592506060860135915060808601356001600160401b038111156126e457600080fd5b6123f38882890161227d565b60008060006060848603121561270557600080fd5b61270e84612005565b95602085013595506040909401359392505050565b600181811c9082168061273757607f821691505b60208210810361275757634e487b7160e01b600052602260045260246000fd5b50919050565b634e487b7160e01b600052601160045260246000fd5b80820281158282048414176105f2576105f261275d565b6000826127a757634e487b7160e01b600052601260045260246000fd5b500490565b6020808252602e908201527f455243313135353a2063616c6c6572206973206e6f7420746f6b656e206f776e60408201526d195c881bdc88185c1c1c9bdd995960921b606082015260800190565b634e487b7160e01b600052603260045260246000fd5b6000600182016128225761282261275d565b5060010190565b601f8211156107cb57600081815260208120601f850160051c810160208610156128505750805b601f850160051c820191505b818110156110fb5782815560010161285c565b81516001600160401b038111156128885761288861207e565b61289c816128968454612723565b84612829565b602080601f8311600181146128d157600084156128b95750858301515b600019600386901b1c1916600185901b1785556110fb565b600085815260208120601f198616915b82811015612900578886015182559484019460019091019084016128e1565b508582101561291e5787850151600019600388901b60f8161c191681555b5050505050600190811b01905550565b60208082526021908201527f455243313135353a206d696e7420746f20746865207a65726f206164647265736040820152607360f81b606082015260800190565b60208082526028908201527f455243313135353a2069647320616e6420616d6f756e7473206c656e677468206040820152670dad2e6dac2e8c6d60c31b606082015260800190565b808201808211156105f2576105f261275d565b6040815260006129dd6040830185612511565b82810360208401526129ef8185612511565b95945050505050565b60208082526025908201527f455243313135353a207472616e7366657220746f20746865207a65726f206164604082015264647265737360d81b606082015260800190565b6020808252602a908201527f455243313135353a20696e73756666696369656e742062616c616e636520666f60408201526939103a3930b739b332b960b11b606082015260800190565b60208082526023908201527f455243313135353a206275726e2066726f6d20746865207a65726f206164647260408201526265737360e81b606082015260800190565b60208082526024908201527f455243313135353a206275726e20616d6f756e7420657863656564732062616c604082015263616e636560e01b606082015260800190565b6020808252602b908201527f496e697469616c697a61626c653a20636f6e7472616374206973206e6f74206960408201526a6e697469616c697a696e6760a81b606082015260800190565b7f416363657373436f6e74726f6c3a206163636f756e7420000000000000000000815260008351612b91816017850160208801612186565b7001034b99036b4b9b9b4b733903937b6329607d1b6017918401918201528351612bc2816028840160208801612186565b01602801949350505050565b6001600160a01b0386811682528516602082015260a060408201819052600090612bfa90830186612511565b8281036060840152612c0c8186612511565b90508281036080840152612c2081856121aa565b98975050505050505050565b600060208284031215612c3e57600080fd5b8151610d318161204b565b600060033d1115612c625760046000803e5060005160e01c5b90565b600060443d1015612c735790565b6040516003193d81016004833e81513d6001600160401b038160248401118184111715612ca257505050505090565b8285019150815181811115612cba5750505050505090565b843d8701016020828501011115612cd45750505050505090565b612ce360208286010187612094565b509095945050505050565b60208082526028908201527f455243313135353a204552433131353552656365697665722072656a656374656040820152676420746f6b656e7360c01b606082015260800190565b6001600160a01b03868116825285166020820152604081018490526060810183905260a060808201819052600090612d70908301846121aa565b979650505050505050565b600081612d8a57612d8a61275d565b50600019019056fe65d7a28e3265b37a6474929f336521b332c1681b933f6cb9f3376673440d862a9f2df0fed2c77648de5860a4cc508cd0818c85b8b8a1ab4ceeef8d981c8956a6a2646970667358221220cb217bd52574e9bf8bc6b6c8bfd6f40e761872224a70e6618d66d513ca09d0ef64736f6c63430008130033",
    "sourcePath": "c:/Users/EddyB/source/repos/youtpout/HeroContracts/contracts/HeroSpell.sol",
    "compiler": {
        "name": "solc",
        "version": "0.8.19+commit.7dd6d404"
    },
    "functionHashes": {
        "DEFAULT_ADMIN_ROLE()": "a217fddf",
        "MINTER_ROLE()": "d5391393",
        "PAUSER_ROLE()": "e63ab1e9",
        "URI_SETTER_ROLE()": "7f345710",
        "addMarketAddress(address)": "84edbe63",
        "approvedMarketplaces(address)": "543a9eb9",
        "balanceOf(address,uint256)": "00fdd58e",
        "balanceOfBatch(address[],uint256[])": "4e1273f4",
        "bank()": "76cdb03b",
        "burn(address,uint256,uint256)": "f5298aca",
        "burnBatch(address,uint256[],uint256[])": "6b20c454",
        "changeBank(address)": "361d004f",
        "exists(uint256)": "4f558e79",
        "getRoleAdmin(bytes32)": "248a9ca3",
        "grantRole(bytes32,address)": "2f2ff15d",
        "hasRole(bytes32,address)": "91d14854",
        "initialize()": "8129fc1c",
        "isApprovedForAll(address,address)": "e985e9c5",
        "mint(address,uint256,uint256,bytes)": "731133e9",
        "mintBatch(address,uint256[],uint256[],bytes)": "1f7fdffa",
        "pause()": "8456cb59",
        "paused()": "5c975abb",
        "removeMarketAddress(address)": "dc945a58",
        "renounceRole(bytes32,address)": "36568abe",
        "revokeRole(bytes32,address)": "d547741f",
        "royalties()": "f053dc5c",
        "royaltyInfo(uint256,uint256)": "2a55205a",
        "safeBatchTransferFrom(address,address,uint256[],uint256[],bytes)": "2eb2c2d6",
        "safeTransferFrom(address,address,uint256,uint256,bytes)": "f242432a",
        "setApprovalForAll(address,bool)": "a22cb465",
        "setRoyalties(uint256)": "2b80183f",
        "setURI(string)": "02fe5305",
        "supportsInterface(bytes4)": "01ffc9a7",
        "totalSupply(uint256)": "bd85b039",
        "unpause()": "3f4ba83a",
        "uri(uint256)": "0e89341c"
    },
    "gasEstimates": {
        "creation": {
            "codeDepositCost": "2356800",
            "executionCost": "54228",
            "totalCost": "2411028"
        },
        "external": {
            "DEFAULT_ADMIN_ROLE()": "295",
            "MINTER_ROLE()": "infinite",
            "PAUSER_ROLE()": "infinite",
            "URI_SETTER_ROLE()": "274",
            "addMarketAddress(address)": "infinite",
            "approvedMarketplaces(address)": "2620",
            "balanceOf(address,uint256)": "2726",
            "balanceOfBatch(address[],uint256[])": "infinite",
            "bank()": "2405",
            "burn(address,uint256,uint256)": "infinite",
            "burnBatch(address,uint256[],uint256[])": "infinite",
            "changeBank(address)": "infinite",
            "exists(uint256)": "2517",
            "getRoleAdmin(bytes32)": "2501",
            "grantRole(bytes32,address)": "infinite",
            "hasRole(bytes32,address)": "2754",
            "initialize()": "infinite",
            "isApprovedForAll(address,address)": "infinite",
            "mint(address,uint256,uint256,bytes)": "infinite",
            "mintBatch(address,uint256[],uint256[],bytes)": "infinite",
            "pause()": "infinite",
            "paused()": "2415",
            "removeMarketAddress(address)": "infinite",
            "renounceRole(bytes32,address)": "29091",
            "revokeRole(bytes32,address)": "infinite",
            "royalties()": "2372",
            "royaltyInfo(uint256,uint256)": "4861",
            "safeBatchTransferFrom(address,address,uint256[],uint256[],bytes)": "infinite",
            "safeTransferFrom(address,address,uint256,uint256,bytes)": "infinite",
            "setApprovalForAll(address,bool)": "26816",
            "setRoyalties(uint256)": "infinite",
            "setURI(string)": "infinite",
            "supportsInterface(bytes4)": "infinite",
            "totalSupply(uint256)": "2472",
            "unpause()": "infinite",
            "uri(uint256)": "infinite"
        },
        "internal": {
            "_beforeTokenTransfer(address,address,address,uint256[] memory,uint256[] memory,bytes memory)": "infinite"
        }
    }
}