{
    "contractName": "Marketplace",
    "abi": [
        {
            "inputs": [],
            "stateMutability": "nonpayable",
            "type": "constructor"
        },
        {
            "anonymous": false,
            "inputs": [
                {
                    "indexed": false,
                    "internalType": "uint8",
                    "name": "version",
                    "type": "uint8"
                }
            ],
            "name": "Initialized",
            "type": "event"
        },
        {
            "anonymous": false,
            "inputs": [
                {
                    "indexed": true,
                    "internalType": "uint256",
                    "name": "id",
                    "type": "uint256"
                },
                {
                    "indexed": true,
                    "internalType": "address",
                    "name": "seller",
                    "type": "address"
                },
                {
                    "components": [
                        {
                            "internalType": "uint256",
                            "name": "id",
                            "type": "uint256"
                        },
                        {
                            "internalType": "uint256",
                            "name": "tokenId",
                            "type": "uint256"
                        },
                        {
                            "internalType": "uint256",
                            "name": "initialAmount",
                            "type": "uint256"
                        },
                        {
                            "internalType": "uint256",
                            "name": "currentAmount",
                            "type": "uint256"
                        },
                        {
                            "internalType": "uint256",
                            "name": "priceByUnit",
                            "type": "uint256"
                        },
                        {
                            "internalType": "address",
                            "name": "seller",
                            "type": "address"
                        },
                        {
                            "internalType": "address",
                            "name": "tokenAccepted",
                            "type": "address"
                        },
                        {
                            "internalType": "address",
                            "name": "contractAddress",
                            "type": "address"
                        },
                        {
                            "internalType": "enum Marketplace.OrderStatus",
                            "name": "status",
                            "type": "uint8"
                        },
                        {
                            "internalType": "enum Marketplace.ContractType",
                            "name": "contractType",
                            "type": "uint8"
                        },
                        {
                            "internalType": "bool",
                            "name": "sellByUnit",
                            "type": "bool"
                        }
                    ],
                    "indexed": false,
                    "internalType": "struct Marketplace.Order",
                    "name": "order",
                    "type": "tuple"
                }
            ],
            "name": "OrderAdded",
            "type": "event"
        },
        {
            "anonymous": false,
            "inputs": [
                {
                    "indexed": true,
                    "internalType": "uint256",
                    "name": "id",
                    "type": "uint256"
                },
                {
                    "indexed": true,
                    "internalType": "address",
                    "name": "buyer",
                    "type": "address"
                },
                {
                    "indexed": false,
                    "internalType": "uint256",
                    "name": "quantity",
                    "type": "uint256"
                }
            ],
            "name": "OrderBought",
            "type": "event"
        },
        {
            "anonymous": false,
            "inputs": [
                {
                    "indexed": true,
                    "internalType": "uint256",
                    "name": "id",
                    "type": "uint256"
                }
            ],
            "name": "OrderCanceled",
            "type": "event"
        },
        {
            "anonymous": false,
            "inputs": [
                {
                    "indexed": false,
                    "internalType": "address",
                    "name": "account",
                    "type": "address"
                }
            ],
            "name": "Paused",
            "type": "event"
        },
        {
            "anonymous": false,
            "inputs": [
                {
                    "indexed": true,
                    "internalType": "bytes32",
                    "name": "role",
                    "type": "bytes32"
                },
                {
                    "indexed": true,
                    "internalType": "bytes32",
                    "name": "previousAdminRole",
                    "type": "bytes32"
                },
                {
                    "indexed": true,
                    "internalType": "bytes32",
                    "name": "newAdminRole",
                    "type": "bytes32"
                }
            ],
            "name": "RoleAdminChanged",
            "type": "event"
        },
        {
            "anonymous": false,
            "inputs": [
                {
                    "indexed": true,
                    "internalType": "bytes32",
                    "name": "role",
                    "type": "bytes32"
                },
                {
                    "indexed": true,
                    "internalType": "address",
                    "name": "account",
                    "type": "address"
                },
                {
                    "indexed": true,
                    "internalType": "address",
                    "name": "sender",
                    "type": "address"
                }
            ],
            "name": "RoleGranted",
            "type": "event"
        },
        {
            "anonymous": false,
            "inputs": [
                {
                    "indexed": true,
                    "internalType": "bytes32",
                    "name": "role",
                    "type": "bytes32"
                },
                {
                    "indexed": true,
                    "internalType": "address",
                    "name": "account",
                    "type": "address"
                },
                {
                    "indexed": true,
                    "internalType": "address",
                    "name": "sender",
                    "type": "address"
                }
            ],
            "name": "RoleRevoked",
            "type": "event"
        },
        {
            "anonymous": false,
            "inputs": [
                {
                    "indexed": false,
                    "internalType": "address",
                    "name": "account",
                    "type": "address"
                }
            ],
            "name": "Unpaused",
            "type": "event"
        },
        {
            "inputs": [],
            "name": "DEFAULT_ADMIN_ROLE",
            "outputs": [
                {
                    "internalType": "bytes32",
                    "name": "",
                    "type": "bytes32"
                }
            ],
            "stateMutability": "view",
            "type": "function"
        },
        {
            "inputs": [],
            "name": "MASTER_ROLE",
            "outputs": [
                {
                    "internalType": "bytes32",
                    "name": "",
                    "type": "bytes32"
                }
            ],
            "stateMutability": "view",
            "type": "function"
        },
        {
            "inputs": [],
            "name": "MINTER_ROLE",
            "outputs": [
                {
                    "internalType": "bytes32",
                    "name": "",
                    "type": "bytes32"
                }
            ],
            "stateMutability": "view",
            "type": "function"
        },
        {
            "inputs": [],
            "name": "PAUSER_ROLE",
            "outputs": [
                {
                    "internalType": "bytes32",
                    "name": "",
                    "type": "bytes32"
                }
            ],
            "stateMutability": "view",
            "type": "function"
        },
        {
            "inputs": [
                {
                    "internalType": "address",
                    "name": "tokenAddress",
                    "type": "address"
                }
            ],
            "name": "addTokenAccepted",
            "outputs": [],
            "stateMutability": "nonpayable",
            "type": "function"
        },
        {
            "inputs": [
                {
                    "internalType": "address",
                    "name": "",
                    "type": "address"
                }
            ],
            "name": "approvedToken",
            "outputs": [
                {
                    "internalType": "bool",
                    "name": "",
                    "type": "bool"
                }
            ],
            "stateMutability": "view",
            "type": "function"
        },
        {
            "inputs": [
                {
                    "internalType": "address",
                    "name": "buyer",
                    "type": "address"
                },
                {
                    "internalType": "uint256",
                    "name": "orderId",
                    "type": "uint256"
                },
                {
                    "internalType": "uint256",
                    "name": "price",
                    "type": "uint256"
                },
                {
                    "internalType": "uint256",
                    "name": "amount",
                    "type": "uint256"
                }
            ],
            "name": "buyOrder",
            "outputs": [],
            "stateMutability": "payable",
            "type": "function"
        },
        {
            "inputs": [
                {
                    "internalType": "uint256",
                    "name": "orderId",
                    "type": "uint256"
                }
            ],
            "name": "cancelOrder",
            "outputs": [],
            "stateMutability": "nonpayable",
            "type": "function"
        },
        {
            "inputs": [
                {
                    "internalType": "uint256",
                    "name": "cursor",
                    "type": "uint256"
                },
                {
                    "internalType": "uint256",
                    "name": "howMany",
                    "type": "uint256"
                }
            ],
            "name": "fetchPageOrders",
            "outputs": [
                {
                    "components": [
                        {
                            "internalType": "uint256",
                            "name": "id",
                            "type": "uint256"
                        },
                        {
                            "internalType": "uint256",
                            "name": "tokenId",
                            "type": "uint256"
                        },
                        {
                            "internalType": "uint256",
                            "name": "initialAmount",
                            "type": "uint256"
                        },
                        {
                            "internalType": "uint256",
                            "name": "currentAmount",
                            "type": "uint256"
                        },
                        {
                            "internalType": "uint256",
                            "name": "priceByUnit",
                            "type": "uint256"
                        },
                        {
                            "internalType": "address",
                            "name": "seller",
                            "type": "address"
                        },
                        {
                            "internalType": "address",
                            "name": "tokenAccepted",
                            "type": "address"
                        },
                        {
                            "internalType": "address",
                            "name": "contractAddress",
                            "type": "address"
                        },
                        {
                            "internalType": "enum Marketplace.OrderStatus",
                            "name": "status",
                            "type": "uint8"
                        },
                        {
                            "internalType": "enum Marketplace.ContractType",
                            "name": "contractType",
                            "type": "uint8"
                        },
                        {
                            "internalType": "bool",
                            "name": "sellByUnit",
                            "type": "bool"
                        }
                    ],
                    "internalType": "struct Marketplace.Order[]",
                    "name": "values",
                    "type": "tuple[]"
                },
                {
                    "internalType": "uint256",
                    "name": "newCursor",
                    "type": "uint256"
                }
            ],
            "stateMutability": "view",
            "type": "function"
        },
        {
            "inputs": [
                {
                    "internalType": "address",
                    "name": "user",
                    "type": "address"
                },
                {
                    "internalType": "uint256",
                    "name": "cursor",
                    "type": "uint256"
                },
                {
                    "internalType": "uint256",
                    "name": "howMany",
                    "type": "uint256"
                }
            ],
            "name": "fetchPageOwned",
            "outputs": [
                {
                    "components": [
                        {
                            "internalType": "uint256",
                            "name": "id",
                            "type": "uint256"
                        },
                        {
                            "internalType": "uint256",
                            "name": "tokenId",
                            "type": "uint256"
                        },
                        {
                            "internalType": "uint256",
                            "name": "initialAmount",
                            "type": "uint256"
                        },
                        {
                            "internalType": "uint256",
                            "name": "currentAmount",
                            "type": "uint256"
                        },
                        {
                            "internalType": "uint256",
                            "name": "priceByUnit",
                            "type": "uint256"
                        },
                        {
                            "internalType": "address",
                            "name": "seller",
                            "type": "address"
                        },
                        {
                            "internalType": "address",
                            "name": "tokenAccepted",
                            "type": "address"
                        },
                        {
                            "internalType": "address",
                            "name": "contractAddress",
                            "type": "address"
                        },
                        {
                            "internalType": "enum Marketplace.OrderStatus",
                            "name": "status",
                            "type": "uint8"
                        },
                        {
                            "internalType": "enum Marketplace.ContractType",
                            "name": "contractType",
                            "type": "uint8"
                        },
                        {
                            "internalType": "bool",
                            "name": "sellByUnit",
                            "type": "bool"
                        }
                    ],
                    "internalType": "struct Marketplace.Order[]",
                    "name": "values",
                    "type": "tuple[]"
                },
                {
                    "internalType": "uint256",
                    "name": "newCursor",
                    "type": "uint256"
                }
            ],
            "stateMutability": "view",
            "type": "function"
        },
        {
            "inputs": [
                {
                    "internalType": "bytes32",
                    "name": "role",
                    "type": "bytes32"
                }
            ],
            "name": "getRoleAdmin",
            "outputs": [
                {
                    "internalType": "bytes32",
                    "name": "",
                    "type": "bytes32"
                }
            ],
            "stateMutability": "view",
            "type": "function"
        },
        {
            "inputs": [
                {
                    "internalType": "bytes32",
                    "name": "role",
                    "type": "bytes32"
                },
                {
                    "internalType": "address",
                    "name": "account",
                    "type": "address"
                }
            ],
            "name": "grantRole",
            "outputs": [],
            "stateMutability": "nonpayable",
            "type": "function"
        },
        {
            "inputs": [
                {
                    "internalType": "bytes32",
                    "name": "role",
                    "type": "bytes32"
                },
                {
                    "internalType": "address",
                    "name": "account",
                    "type": "address"
                }
            ],
            "name": "hasRole",
            "outputs": [
                {
                    "internalType": "bool",
                    "name": "",
                    "type": "bool"
                }
            ],
            "stateMutability": "view",
            "type": "function"
        },
        {
            "inputs": [],
            "name": "initialize",
            "outputs": [],
            "stateMutability": "nonpayable",
            "type": "function"
        },
        {
            "inputs": [
                {
                    "internalType": "address",
                    "name": "",
                    "type": "address"
                },
                {
                    "internalType": "address",
                    "name": "",
                    "type": "address"
                },
                {
                    "internalType": "uint256[]",
                    "name": "",
                    "type": "uint256[]"
                },
                {
                    "internalType": "uint256[]",
                    "name": "",
                    "type": "uint256[]"
                },
                {
                    "internalType": "bytes",
                    "name": "",
                    "type": "bytes"
                }
            ],
            "name": "onERC1155BatchReceived",
            "outputs": [
                {
                    "internalType": "bytes4",
                    "name": "",
                    "type": "bytes4"
                }
            ],
            "stateMutability": "nonpayable",
            "type": "function"
        },
        {
            "inputs": [
                {
                    "internalType": "address",
                    "name": "",
                    "type": "address"
                },
                {
                    "internalType": "address",
                    "name": "from",
                    "type": "address"
                },
                {
                    "internalType": "uint256",
                    "name": "id",
                    "type": "uint256"
                },
                {
                    "internalType": "uint256",
                    "name": "value",
                    "type": "uint256"
                },
                {
                    "internalType": "bytes",
                    "name": "data",
                    "type": "bytes"
                }
            ],
            "name": "onERC1155Received",
            "outputs": [
                {
                    "internalType": "bytes4",
                    "name": "",
                    "type": "bytes4"
                }
            ],
            "stateMutability": "nonpayable",
            "type": "function"
        },
        {
            "inputs": [
                {
                    "internalType": "address",
                    "name": "",
                    "type": "address"
                },
                {
                    "internalType": "address",
                    "name": "from",
                    "type": "address"
                },
                {
                    "internalType": "uint256",
                    "name": "tokenId",
                    "type": "uint256"
                },
                {
                    "internalType": "bytes",
                    "name": "data",
                    "type": "bytes"
                }
            ],
            "name": "onERC721Received",
            "outputs": [
                {
                    "internalType": "bytes4",
                    "name": "",
                    "type": "bytes4"
                }
            ],
            "stateMutability": "nonpayable",
            "type": "function"
        },
        {
            "inputs": [],
            "name": "orderCount",
            "outputs": [
                {
                    "internalType": "uint256",
                    "name": "",
                    "type": "uint256"
                }
            ],
            "stateMutability": "view",
            "type": "function"
        },
        {
            "inputs": [
                {
                    "internalType": "uint256",
                    "name": "",
                    "type": "uint256"
                }
            ],
            "name": "orders",
            "outputs": [
                {
                    "internalType": "uint256",
                    "name": "id",
                    "type": "uint256"
                },
                {
                    "internalType": "uint256",
                    "name": "tokenId",
                    "type": "uint256"
                },
                {
                    "internalType": "uint256",
                    "name": "initialAmount",
                    "type": "uint256"
                },
                {
                    "internalType": "uint256",
                    "name": "currentAmount",
                    "type": "uint256"
                },
                {
                    "internalType": "uint256",
                    "name": "priceByUnit",
                    "type": "uint256"
                },
                {
                    "internalType": "address",
                    "name": "seller",
                    "type": "address"
                },
                {
                    "internalType": "address",
                    "name": "tokenAccepted",
                    "type": "address"
                },
                {
                    "internalType": "address",
                    "name": "contractAddress",
                    "type": "address"
                },
                {
                    "internalType": "enum Marketplace.OrderStatus",
                    "name": "status",
                    "type": "uint8"
                },
                {
                    "internalType": "enum Marketplace.ContractType",
                    "name": "contractType",
                    "type": "uint8"
                },
                {
                    "internalType": "bool",
                    "name": "sellByUnit",
                    "type": "bool"
                }
            ],
            "stateMutability": "view",
            "type": "function"
        },
        {
            "inputs": [
                {
                    "internalType": "address",
                    "name": "",
                    "type": "address"
                },
                {
                    "internalType": "uint256",
                    "name": "",
                    "type": "uint256"
                }
            ],
            "name": "ownedOrders",
            "outputs": [
                {
                    "internalType": "uint256",
                    "name": "",
                    "type": "uint256"
                }
            ],
            "stateMutability": "view",
            "type": "function"
        },
        {
            "inputs": [],
            "name": "pause",
            "outputs": [],
            "stateMutability": "nonpayable",
            "type": "function"
        },
        {
            "inputs": [],
            "name": "paused",
            "outputs": [
                {
                    "internalType": "bool",
                    "name": "",
                    "type": "bool"
                }
            ],
            "stateMutability": "view",
            "type": "function"
        },
        {
            "inputs": [
                {
                    "internalType": "address",
                    "name": "tokenAddress",
                    "type": "address"
                }
            ],
            "name": "removeTokenAccepted",
            "outputs": [],
            "stateMutability": "nonpayable",
            "type": "function"
        },
        {
            "inputs": [
                {
                    "internalType": "bytes32",
                    "name": "role",
                    "type": "bytes32"
                },
                {
                    "internalType": "address",
                    "name": "account",
                    "type": "address"
                }
            ],
            "name": "renounceRole",
            "outputs": [],
            "stateMutability": "nonpayable",
            "type": "function"
        },
        {
            "inputs": [
                {
                    "internalType": "bytes32",
                    "name": "role",
                    "type": "bytes32"
                },
                {
                    "internalType": "address",
                    "name": "account",
                    "type": "address"
                }
            ],
            "name": "revokeRole",
            "outputs": [],
            "stateMutability": "nonpayable",
            "type": "function"
        },
        {
            "inputs": [
                {
                    "internalType": "bytes4",
                    "name": "interfaceId",
                    "type": "bytes4"
                }
            ],
            "name": "supportsInterface",
            "outputs": [
                {
                    "internalType": "bool",
                    "name": "",
                    "type": "bool"
                }
            ],
            "stateMutability": "view",
            "type": "function"
        },
        {
            "inputs": [],
            "name": "unpause",
            "outputs": [],
            "stateMutability": "nonpayable",
            "type": "function"
        }
    ],
    "bytecode": "60806040523480156200001157600080fd5b506200001c62000022565b620000e4565b600054610100900460ff16156200008f5760405162461bcd60e51b815260206004820152602760248201527f496e697469616c697a61626c653a20636f6e747261637420697320696e697469604482015266616c697a696e6760c81b606482015260840160405180910390fd5b60005460ff9081161015620000e2576000805460ff191660ff9081179091556040519081527f7f26b83ff96e1f2b6a682f133852f6798a09c465da95921460cefb38474024989060200160405180910390a15b565b612b8080620000f46000396000f3fe60806040526004361061019c5760003560e01c806391d14854116100ec578063d3a715e71161008a578063dc22486311610064578063dc2248631461053e578063e63ab1e914610560578063ea62ef8514610582578063f23a6e61146105a257600080fd5b8063d3a715e7146104d7578063d5391393146104ea578063d547741f1461051e57600080fd5b8063a217fddf116100c6578063a217fddf146103dc578063a85c38ef146103f1578063bc197c8114610497578063cbb2b611146104b757600080fd5b806391d148541461036e5780639b43cc341461038e578063a058fb63146103bc57600080fd5b80633f4ba83a116101595780635c975abb116101335780635c975abb1461030c57806379d937e2146103245780638129fc1c146103445780638456cb591461035957600080fd5b80633f4ba83a146102a65780634df87c09146102bb578063514fcac7146102ec57600080fd5b806301ffc9a7146101a1578063150b7a02146101d65780632453ffa81461020f578063248a9ca3146102345780632f2ff15d1461026457806336568abe14610286575b600080fd5b3480156101ad57600080fd5b506101c16101bc36600461222c565b6105c2565b60405190151581526020015b60405180910390f35b3480156101e257600080fd5b506101f66101f1366004612322565b6105d3565b6040516001600160e01b031990911681526020016101cd565b34801561021b57600080fd5b506102266101945481565b6040519081526020016101cd565b34801561024057600080fd5b5061022661024f36600461238e565b60009081526097602052604090206001015490565b34801561027057600080fd5b5061028461027f3660046123a7565b6105f5565b005b34801561029257600080fd5b506102846102a13660046123a7565b61061f565b3480156102b257600080fd5b506102846106a2565b3480156102c757600080fd5b506101c16102d63660046123d7565b6101916020526000908152604090205460ff1681565b3480156102f857600080fd5b5061028461030736600461238e565b6106c5565b34801561031857600080fd5b5060335460ff166101c1565b34801561033057600080fd5b5061028461033f3660046123d7565b6109a1565b34801561035057600080fd5b506102846109cf565b34801561036557600080fd5b50610284610b9a565b34801561037a57600080fd5b506101c16103893660046123a7565b610bba565b34801561039a57600080fd5b506103ae6103a93660046123f4565b610be5565b6040516101cd92919061251d565b3480156103c857600080fd5b506102266103d7366004612570565b610e01565b3480156103e857600080fd5b50610226600081565b3480156103fd57600080fd5b5061048061040c36600461238e565b6101926020526000908152604090208054600182015460028301546003840154600485015460058601546006870154600790970154959694959394929391926001600160a01b03918216929082169181169060ff600160a01b8204811691600160a81b8104821691600160b01b909104168b565b6040516101cd9b9a9998979695949392919061259c565b3480156104a357600080fd5b506101f66104b2366004612694565b610e33565b3480156104c357600080fd5b506103ae6104d2366004612742565b610e70565b6102846104e5366004612764565b61105b565b3480156104f657600080fd5b506102267f9f2df0fed2c77648de5860a4cc508cd0818c85b8b8a1ab4ceeef8d981c8956a681565b34801561052a57600080fd5b506102846105393660046123a7565b61189e565b34801561054a57600080fd5b50610226600080516020612b2b83398151915281565b34801561056c57600080fd5b50610226600080516020612b0b83398151915281565b34801561058e57600080fd5b5061028461059d3660046123d7565b6118c3565b3480156105ae57600080fd5b506101f66105bd36600461279f565b6118f4565b60006105cd82611916565b92915050565b60006105e48484600160008661193b565b50630a85bd0160e11b949350505050565b60008281526097602052604090206001015461061081611c0a565b61061a8383611c14565b505050565b6001600160a01b03811633146106945760405162461bcd60e51b815260206004820152602f60248201527f416363657373436f6e74726f6c3a2063616e206f6e6c792072656e6f756e636560448201526e103937b632b9903337b91039b2b63360891b60648201526084015b60405180910390fd5b61069e8282611c9a565b5050565b600080516020612b0b8339815191526106ba81611c0a565b6106c2611d01565b50565b6106cd611d53565b6106d5611dae565b600081815261019260205260408120906007820154600160a01b900460ff16600281111561070557610705612429565b146107525760405162461bcd60e51b815260206004820152601d60248201527f4f72646572206973206e6f206c6f6e67657220617661696c61626c6521000000604482015260640161068b565b61076a600080516020612b2b83398151915233610bba565b80610781575060058101546001600160a01b031633145b6107cd5760405162461bcd60e51b815260206004820181905260248201527f4f6e6c79207468652073656c6c65722063616e2063616e63656c206f72646572604482015260640161068b565b60008160030154116108105760405162461bcd60e51b815260206004820152600c60248201526b105b1c9958591e481cdbdb1960a21b604482015260640161068b565b60006007820154600160a81b900460ff16600181111561083257610832612429565b036108af57600781015460058201546001830154604051632142170760e11b81526001600160a01b03938416936342842e0e936108789330939290911691600401612808565b600060405180830381600087803b15801561089257600080fd5b505af11580156108a6573d6000803e3d6000fd5b5050505061094f565b60016007820154600160a81b900460ff1660018111156108d1576108d1612429565b0361094f576007810154600582015460018301546003840154604051637921219560e11b81526001600160a01b039485169463f242432a9461091c943094919092169260040161282c565b600060405180830381600087803b15801561093657600080fd5b505af115801561094a573d6000803e3d6000fd5b505050505b60006003820181905560078201805460ff60a01b1916600160a01b17905560405183917fc41f4ceb2938876c35e61b705e9d2f18a02c4a26ce5e049a6308a943d46851b391a2506106c2600161015f55565b60006109ac81611c0a565b506001600160a01b0316600090815261019160205260409020805460ff19169055565b600054610100900460ff16158080156109ef5750600054600160ff909116105b80610a095750303b158015610a09575060005460ff166001145b610a6c5760405162461bcd60e51b815260206004820152602e60248201527f496e697469616c697a61626c653a20636f6e747261637420697320616c72656160448201526d191e481a5b9a5d1a585b1a5e995960921b606482015260840161068b565b6000805460ff191660011790558015610a8f576000805461ff0019166101001790555b610a97611dfe565b610a9f611e2d565b610aa7611e54565b610aaf611e2d565b610ab7611e2d565b610ac2600033611c14565b610ada600080516020612b0b83398151915233611c14565b610b047f9f2df0fed2c77648de5860a4cc508cd0818c85b8b8a1ab4ceeef8d981c8956a633611c14565b610b1c600080516020612b2b83398151915233611c14565b600080526101916020527fece131a77f67ea9215fcec08eb2adca5672b17a236443a19a4cbf52eb1f837bd805460ff1916600117905580156106c2576000805461ff0019169055604051600181527f7f26b83ff96e1f2b6a682f133852f6798a09c465da95921460cefb38474024989060200160405180910390a150565b600080516020612b0b833981519152610bb281611c0a565b6106c2611e83565b60009182526097602090815260408084206001600160a01b0393909316845291905290205460ff1690565b6001600160a01b0383166000908152610193602052604081208054606092918491610c1190879061287a565b821115610c28578054610c2590879061287a565b91505b8167ffffffffffffffff811115610c4157610c4161226b565b604051908082528060200260200182016040528015610c7a57816020015b610c676121a6565b815260200190600190039081610c5f5790505b50935060005b82811015610de757600082610c95838a61288d565b81548110610ca557610ca56128a0565b600091825260208083209091015480835261019282526040928390208351610160810185528154815260018201549381019390935260028082015494840194909452600381015460608401526004810154608084015260058101546001600160a01b0390811660a08501526006820154811660c0850152600782015490811660e0850152919450919261010084019160ff600160a01b9091041690811115610d4f57610d4f612429565b6002811115610d6057610d60612429565b81526020016007820160159054906101000a900460ff166001811115610d8857610d88612429565b6001811115610d9957610d99612429565b815260079190910154600160b01b900460ff1615156020909101528651879084908110610dc857610dc86128a0565b6020026020010181905250508080610ddf906128b6565b915050610c80565b5083610df3838861288d565b935093505050935093915050565b6101936020528160005260406000208181548110610e1e57600080fd5b90600052602060002001600091509150505481565b60405162461bcd60e51b815260206004820152600f60248201526e139bdd081a5b5c1b195b595b9d1959608a1b604482015260009060640161068b565b60606000808390508461019454610e87919061287a565b811115610ea0578461019454610e9d919061287a565b90505b8067ffffffffffffffff811115610eb957610eb961226b565b604051908082528060200260200182016040528015610ef257816020015b610edf6121a6565b815260200190600190039081610ed75790505b50925060005b81811015611043576101926000610f0f838961288d565b815260208082019290925260409081016000208151610160810183528154815260018201549381019390935260028082015492840192909252600381015460608401526004810154608084015260058101546001600160a01b0390811660a08501526006820154811660c0850152600782015490811660e08501529091610100840191600160a01b900460ff1690811115610fac57610fac612429565b6002811115610fbd57610fbd612429565b81526020016007820160159054906101000a900460ff166001811115610fe557610fe5612429565b6001811115610ff657610ff6612429565b815260079190910154600160b01b900460ff1615156020909101528451859083908110611025576110256128a0565b6020026020010181905250808061103b906128b6565b915050610ef8565b508261104f828761288d565b92509250509250929050565b611063611d53565b61106b611dae565b600083815261019260205260409020611092600080516020612b2b83398151915233610bba565b806110a557506001600160a01b03851633145b6110ea5760405162461bcd60e51b81526020600482015260166024820152754f6e6c79207468652062757965722063616e2070617960501b604482015260640161068b565b60006007820154600160a01b900460ff16600281111561110c5761110c612429565b146111595760405162461bcd60e51b815260206004820152601d60248201527f4f72646572206973206e6f206c6f6e67657220617661696c61626c6521000000604482015260640161068b565b600082116111a15760405162461bcd60e51b8152602060048201526015602482015274596f752063616e277420627579206e6f7468696e6760581b604482015260640161068b565b81816003015410156111eb5760405162461bcd60e51b81526020600482015260136024820152724e6f7420656e6f756768207175616e7469747960681b604482015260640161068b565b6007810154600160b01b900460ff1661124557806003015482146112455760405162461bcd60e51b815260206004820152601160248201527010d85b89dd08189d5e48189e481d5b9a5d607a1b604482015260640161068b565b600082826004015461125791906128cf565b60068301549091506001600160a01b03166112c0573481146112bb5760405162461bcd60e51b815260206004820152601f60248201527f4275792070726963652069736e277420657175616c20746f2070726963652100604482015260640161068b565b61130f565b83811461130f5760405162461bcd60e51b815260206004820152601f60248201527f4275792070726963652069736e277420657175616c20746f2070726963652100604482015260640161068b565b6007820154600183015460405163152a902d60e11b815260009283926001600160a01b0390911691632a55205a91611354918790600401918252602082015260400190565b6040805180830381865afa158015611370573d6000803e3d6000fd5b505050506040513d601f19601f8201168201806040525081019061139491906128e6565b90925090506113a4600584612914565b8111156113e25760405162461bcd60e51b815260206004820152600c60248201526b0a8dede40daeac6d040e8c2f60a31b604482015260640161068b565b60006113ee828561287a565b60068601549091506001600160a01b03166115505781156114ae576000836001600160a01b03168360405160006040518083038185875af1925050503d8060008114611456576040519150601f19603f3d011682016040523d82523d6000602084013e61145b565b606091505b50509050806114ac5760405162461bcd60e51b815260206004820152601860248201527f4661696c656420746f2073656e64207461782045746865720000000000000000604482015260640161068b565b505b60058501546040516000916001600160a01b03169083908381818185875af1925050503d80600081146114fd576040519150601f19603f3d011682016040523d82523d6000602084013e611502565b606091505b505090508061154a5760405162461bcd60e51b81526020600482015260146024820152732330b4b632b2103a379039b2b7321022ba3432b960611b604482015260640161068b565b506116ea565b81156116215760068501546040516323b872dd60e01b81526000916001600160a01b0316906323b872dd9061158d908d9088908890600401612808565b6020604051808303816000875af11580156115ac573d6000803e3d6000fd5b505050506040513d601f19601f820116820180604052508101906115d0919061294b565b90508061161f5760405162461bcd60e51b815260206004820152601860248201527f4661696c656420746f2073656e64207461782045726332300000000000000000604482015260640161068b565b505b600685015460058601546040516323b872dd60e01b81526000926001600160a01b03908116926323b872dd9261165f928f9216908790600401612808565b6020604051808303816000875af115801561167e573d6000803e3d6000fd5b505050506040513d601f19601f820116820180604052508101906116a2919061294b565b9050806116e85760405162461bcd60e51b815260206004820152601460248201527304661696c656420746f2073656e642045524332360641b604482015260640161068b565b505b60006007860154600160a81b900460ff16600181111561170c5761170c612429565b036117815760078501546001860154604051632142170760e11b81526001600160a01b03909216916342842e0e9161174a9130918e91600401612808565b600060405180830381600087803b15801561176457600080fd5b505af1158015611778573d6000803e3d6000fd5b50505050611816565b60016007860154600160a81b900460ff1660018111156117a3576117a3612429565b036118165760078501546001860154604051637921219560e11b81526001600160a01b039092169163f242432a916117e39130918e918c9060040161282c565b600060405180830381600087803b1580156117fd57600080fd5b505af1158015611811573d6000803e3d6000fd5b505050505b6000868660030154611828919061287a565b60038701819055905060008190036118505760078601805460ff60a01b1916600160a11b1790555b60405187815233908a907f7ea4660ae6e06a06faef0a7a090c65be5febb413a3e28f13ba9b6d4a186166c09060200160405180910390a3505050505050611898600161015f55565b50505050565b6000828152609760205260409020600101546118b981611c0a565b61061a8383611c9a565b60006118ce81611c0a565b506001600160a01b0316600090815261019160205260409020805460ff19166001179055565b600061190485858560018661193b565b5063f23a6e6160e01b95945050505050565b60006001600160e01b03198216630271189760e51b14806105cd57506105cd82611ec0565b611943611d53565b61194b611dae565b6000818060200190518101906119619190612966565b6020808201516001600160a01b03166000908152610191909152604090205490915060ff166119c25760405162461bcd60e51b815260206004820152600d60248201526c24b73b30b634b2103a37b5b2b760991b604482015260640161068b565b61019480549060006119d3836128b6565b9190505550600060405180610160016040528061019454815260200187815260200186815260200186815260200183600001518152602001886001600160a01b0316815260200183602001516001600160a01b03168152602001611a343390565b6001600160a01b0316815260200160008152602001856001811115611a5b57611a5b612429565b81526040848101511515602092830152610194546000908152610192835281902083518155918301516001830155820151600280830191909155606083015160038301556080830151600483015560a08301516005830180546001600160a01b03199081166001600160a01b039384161790915560c0850151600685018054831691841691909117905560e08501516007850180549283169190931690811783556101008601519596508695936001600160a81b03199092161790600160a01b908490811115611b2d57611b2d612429565b021790555061012082015160078201805460ff60a81b1916600160a81b836001811115611b5c57611b5c612429565b0217905550610140919091015160079091018054911515600160b01b0260ff60b01b199092169190911790556001600160a01b03871660008181526101936020908152604080832061019480548254600181018455928652939094200191909155905490517f9245968e41c568f1c1d94eeeb4cfac3ac9e0eab48a2dae966cce919d1acff8cf90611bee9085906129cd565b60405180910390a35050611c03600161015f55565b5050505050565b6106c28133611ef5565b611c1e8282610bba565b61069e5760008281526097602090815260408083206001600160a01b03851684529091529020805460ff19166001179055611c563390565b6001600160a01b0316816001600160a01b0316837f2f8788117e7eff1d82e926ec794901d17c78024a50270940304540a733656f0d60405160405180910390a45050565b611ca48282610bba565b1561069e5760008281526097602090815260408083206001600160a01b0385168085529252808320805460ff1916905551339285917ff6391f5c32d9c69d2a47ea670b442974b53935d1edc7fd64eb21e047a839171b9190a45050565b611d09611f4e565b6033805460ff191690557f5db9ee0a495bf2e6ff9c91a7834c1ba4fdd244a5e8aa4e537bd38aeae4b073aa335b6040516001600160a01b03909116815260200160405180910390a1565b600261015f5403611da65760405162461bcd60e51b815260206004820152601f60248201527f5265656e7472616e637947756172643a207265656e7472616e742063616c6c00604482015260640161068b565b600261015f55565b60335460ff1615611df45760405162461bcd60e51b815260206004820152601060248201526f14185d5cd8589b194e881c185d5cd95960821b604482015260640161068b565b565b600161015f55565b600054610100900460ff16611e255760405162461bcd60e51b815260040161068b906129dc565b611df4611f97565b600054610100900460ff16611df45760405162461bcd60e51b815260040161068b906129dc565b600054610100900460ff16611e7b5760405162461bcd60e51b815260040161068b906129dc565b611df4611fca565b611e8b611dae565b6033805460ff191660011790557f62e78cea01bee320cd4e420270b5ea74000d11b0c9f74754ebdbfc544b05a258611d363390565b60006001600160e01b03198216637965db0b60e01b14806105cd57506301ffc9a760e01b6001600160e01b03198316146105cd565b611eff8282610bba565b61069e57611f0c81611ff1565b611f17836020612003565b604051602001611f28929190612a4b565b60408051601f198184030181529082905262461bcd60e51b825261068b91600401612ac0565b60335460ff16611df45760405162461bcd60e51b815260206004820152601460248201527314185d5cd8589b194e881b9bdd081c185d5cd95960621b604482015260640161068b565b600054610100900460ff16611fbe5760405162461bcd60e51b815260040161068b906129dc565b6033805460ff19169055565b600054610100900460ff16611df65760405162461bcd60e51b815260040161068b906129dc565b60606105cd6001600160a01b03831660145b606060006120128360026128cf565b61201d90600261288d565b67ffffffffffffffff8111156120355761203561226b565b6040519080825280601f01601f19166020018201604052801561205f576020820181803683370190505b509050600360fc1b8160008151811061207a5761207a6128a0565b60200101906001600160f81b031916908160001a905350600f60fb1b816001815181106120a9576120a96128a0565b60200101906001600160f81b031916908160001a90535060006120cd8460026128cf565b6120d890600161288d565b90505b6001811115612150576f181899199a1a9b1b9c1cb0b131b232b360811b85600f166010811061210c5761210c6128a0565b1a60f81b828281518110612122576121226128a0565b60200101906001600160f81b031916908160001a90535060049490941c9361214981612af3565b90506120db565b50831561219f5760405162461bcd60e51b815260206004820181905260248201527f537472696e67733a20686578206c656e67746820696e73756666696369656e74604482015260640161068b565b9392505050565b604051806101600160405280600081526020016000815260200160008152602001600081526020016000815260200160006001600160a01b0316815260200160006001600160a01b0316815260200160006001600160a01b031681526020016000600281111561221857612218612429565b815260200160008152600060209091015290565b60006020828403121561223e57600080fd5b81356001600160e01b03198116811461219f57600080fd5b6001600160a01b03811681146106c257600080fd5b634e487b7160e01b600052604160045260246000fd5b604051601f8201601f1916810167ffffffffffffffff811182821017156122aa576122aa61226b565b604052919050565b600082601f8301126122c357600080fd5b813567ffffffffffffffff8111156122dd576122dd61226b565b6122f0601f8201601f1916602001612281565b81815284602083860101111561230557600080fd5b816020850160208301376000918101602001919091529392505050565b6000806000806080858703121561233857600080fd5b843561234381612256565b9350602085013561235381612256565b925060408501359150606085013567ffffffffffffffff81111561237657600080fd5b612382878288016122b2565b91505092959194509250565b6000602082840312156123a057600080fd5b5035919050565b600080604083850312156123ba57600080fd5b8235915060208301356123cc81612256565b809150509250929050565b6000602082840312156123e957600080fd5b813561219f81612256565b60008060006060848603121561240957600080fd5b833561241481612256565b95602085013595506040909401359392505050565b634e487b7160e01b600052602160045260246000fd5b6003811061244f5761244f612429565b9052565b6002811061244f5761244f612429565b805182526020810151602083015260408101516040830152606081015160608301526080810151608083015260a08101516124a960a08401826001600160a01b03169052565b5060c08101516124c460c08401826001600160a01b03169052565b5060e08101516124df60e08401826001600160a01b03169052565b50610100808201516124f38285018261243f565b50506101208082015161250882850182612453565b50506101408181015180151584830152611898565b604080825283519082018190526000906020906060840190828701845b828110156125615761254d848351612463565b61016093909301929084019060010161253a565b50505092019290925292915050565b6000806040838503121561258357600080fd5b823561258e81612256565b946020939093013593505050565b8b8152602081018b9052604081018a905260608101899052608081018890526001600160a01b0387811660a083015286811660c0830152851660e082015261016081016125ed61010083018661243f565b6125fb610120830185612453565b8215156101408301529c9b505050505050505050505050565b600082601f83011261262557600080fd5b8135602067ffffffffffffffff8211156126415761264161226b565b8160051b612650828201612281565b928352848101820192828101908785111561266a57600080fd5b83870192505b8483101561268957823582529183019190830190612670565b979650505050505050565b600080600080600060a086880312156126ac57600080fd5b85356126b781612256565b945060208601356126c781612256565b9350604086013567ffffffffffffffff808211156126e457600080fd5b6126f089838a01612614565b9450606088013591508082111561270657600080fd5b61271289838a01612614565b9350608088013591508082111561272857600080fd5b50612735888289016122b2565b9150509295509295909350565b6000806040838503121561275557600080fd5b50508035926020909101359150565b6000806000806080858703121561277a57600080fd5b843561278581612256565b966020860135965060408601359560600135945092505050565b600080600080600060a086880312156127b757600080fd5b85356127c281612256565b945060208601356127d281612256565b93506040860135925060608601359150608086013567ffffffffffffffff8111156127fc57600080fd5b612735888289016122b2565b6001600160a01b039384168152919092166020820152604081019190915260600190565b6001600160a01b0394851681529290931660208301526040820152606081019190915260a06080820181905260009082015260c00190565b634e487b7160e01b600052601160045260246000fd5b818103818111156105cd576105cd612864565b808201808211156105cd576105cd612864565b634e487b7160e01b600052603260045260246000fd5b6000600182016128c8576128c8612864565b5060010190565b80820281158282048414176105cd576105cd612864565b600080604083850312156128f957600080fd5b825161290481612256565b6020939093015192949293505050565b60008261293157634e487b7160e01b600052601260045260246000fd5b500490565b8051801515811461294657600080fd5b919050565b60006020828403121561295d57600080fd5b61219f82612936565b60006060828403121561297857600080fd5b6040516060810181811067ffffffffffffffff8211171561299b5761299b61226b565b6040528251815260208301516129b081612256565b60208201526129c160408401612936565b60408201529392505050565b61016081016105cd8284612463565b6020808252602b908201527f496e697469616c697a61626c653a20636f6e7472616374206973206e6f74206960408201526a6e697469616c697a696e6760a81b606082015260800190565b60005b83811015612a42578181015183820152602001612a2a565b50506000910152565b7f416363657373436f6e74726f6c3a206163636f756e7420000000000000000000815260008351612a83816017850160208801612a27565b7001034b99036b4b9b9b4b733903937b6329607d1b6017918401918201528351612ab4816028840160208801612a27565b01602801949350505050565b6020815260008251806020840152612adf816040850160208701612a27565b601f01601f19169190910160400192915050565b600081612b0257612b02612864565b50600019019056fe65d7a28e3265b37a6474929f336521b332c1681b933f6cb9f3376673440d862a8b8c0776df2c2176edf6f82391c35ea4891146d7a976ee36fd07f1a6fb4ead4ca2646970667358221220af33f335927e912d601e482dddc1acf971047f722cb8748b61e4a1b94590f23964736f6c63430008130033",
    "sourcePath": "c:/Users/EddyB/source/repos/youtpout/HeroContracts/contracts/Marketplace.sol",
    "compiler": {
        "name": "solc",
        "version": "0.8.19+commit.7dd6d404"
    },
    "functionHashes": {
        "DEFAULT_ADMIN_ROLE()": "a217fddf",
        "MASTER_ROLE()": "dc224863",
        "MINTER_ROLE()": "d5391393",
        "PAUSER_ROLE()": "e63ab1e9",
        "addTokenAccepted(address)": "ea62ef85",
        "approvedToken(address)": "4df87c09",
        "buyOrder(address,uint256,uint256,uint256)": "d3a715e7",
        "cancelOrder(uint256)": "514fcac7",
        "fetchPageOrders(uint256,uint256)": "cbb2b611",
        "fetchPageOwned(address,uint256,uint256)": "9b43cc34",
        "getRoleAdmin(bytes32)": "248a9ca3",
        "grantRole(bytes32,address)": "2f2ff15d",
        "hasRole(bytes32,address)": "91d14854",
        "initialize()": "8129fc1c",
        "onERC1155BatchReceived(address,address,uint256[],uint256[],bytes)": "bc197c81",
        "onERC1155Received(address,address,uint256,uint256,bytes)": "f23a6e61",
        "onERC721Received(address,address,uint256,bytes)": "150b7a02",
        "orderCount()": "2453ffa8",
        "orders(uint256)": "a85c38ef",
        "ownedOrders(address,uint256)": "a058fb63",
        "pause()": "8456cb59",
        "paused()": "5c975abb",
        "removeTokenAccepted(address)": "79d937e2",
        "renounceRole(bytes32,address)": "36568abe",
        "revokeRole(bytes32,address)": "d547741f",
        "supportsInterface(bytes4)": "01ffc9a7",
        "unpause()": "3f4ba83a"
    },
    "gasEstimates": {
        "creation": {
            "codeDepositCost": "2227200",
            "executionCost": "31967",
            "totalCost": "2259167"
        },
        "external": {
            "DEFAULT_ADMIN_ROLE()": "240",
            "MASTER_ROLE()": "infinite",
            "MINTER_ROLE()": "262",
            "PAUSER_ROLE()": "infinite",
            "addTokenAccepted(address)": "infinite",
            "approvedToken(address)": "2582",
            "buyOrder(address,uint256,uint256,uint256)": "infinite",
            "cancelOrder(uint256)": "infinite",
            "fetchPageOrders(uint256,uint256)": "infinite",
            "fetchPageOwned(address,uint256,uint256)": "infinite",
            "getRoleAdmin(bytes32)": "2534",
            "grantRole(bytes32,address)": "infinite",
            "hasRole(bytes32,address)": "2699",
            "initialize()": "infinite",
            "onERC1155BatchReceived(address,address,uint256[],uint256[],bytes)": "infinite",
            "onERC1155Received(address,address,uint256,uint256,bytes)": "infinite",
            "onERC721Received(address,address,uint256,bytes)": "infinite",
            "orderCount()": "2363",
            "orders(uint256)": "infinite",
            "ownedOrders(address,uint256)": "4828",
            "pause()": "infinite",
            "paused()": "2338",
            "removeTokenAccepted(address)": "infinite",
            "renounceRole(bytes32,address)": "29134",
            "revokeRole(bytes32,address)": "infinite",
            "supportsInterface(bytes4)": "infinite",
            "unpause()": "infinite"
        },
        "internal": {
            "_sellNft(address,uint256,uint256,enum Marketplace.ContractType,bytes memory)": "infinite"
        }
    }
}