{
    "contractName": "Marketplace",
    "abi": [
        {
            "inputs": [],
            "stateMutability": "nonpayable",
            "type": "constructor"
        },
        {
            "anonymous": false,
            "inputs": [
                {
                    "indexed": false,
                    "internalType": "uint8",
                    "name": "version",
                    "type": "uint8"
                }
            ],
            "name": "Initialized",
            "type": "event"
        },
        {
            "anonymous": false,
            "inputs": [
                {
                    "indexed": true,
                    "internalType": "uint256",
                    "name": "id",
                    "type": "uint256"
                },
                {
                    "indexed": true,
                    "internalType": "address",
                    "name": "seller",
                    "type": "address"
                },
                {
                    "components": [
                        {
                            "internalType": "uint256",
                            "name": "id",
                            "type": "uint256"
                        },
                        {
                            "internalType": "uint256",
                            "name": "tokenId",
                            "type": "uint256"
                        },
                        {
                            "internalType": "uint256",
                            "name": "initialAmount",
                            "type": "uint256"
                        },
                        {
                            "internalType": "uint256",
                            "name": "currentAmount",
                            "type": "uint256"
                        },
                        {
                            "internalType": "uint256",
                            "name": "priceByUnit",
                            "type": "uint256"
                        },
                        {
                            "internalType": "address",
                            "name": "seller",
                            "type": "address"
                        },
                        {
                            "internalType": "address",
                            "name": "tokenAccepted",
                            "type": "address"
                        },
                        {
                            "internalType": "address",
                            "name": "contractAddress",
                            "type": "address"
                        },
                        {
                            "internalType": "enum Marketplace.OrderStatus",
                            "name": "status",
                            "type": "uint8"
                        },
                        {
                            "internalType": "enum Marketplace.ContractType",
                            "name": "contractType",
                            "type": "uint8"
                        },
                        {
                            "internalType": "bool",
                            "name": "sellByUnit",
                            "type": "bool"
                        }
                    ],
                    "indexed": false,
                    "internalType": "struct Marketplace.Order",
                    "name": "order",
                    "type": "tuple"
                }
            ],
            "name": "OrderAdded",
            "type": "event"
        },
        {
            "anonymous": false,
            "inputs": [
                {
                    "indexed": true,
                    "internalType": "uint256",
                    "name": "id",
                    "type": "uint256"
                },
                {
                    "indexed": true,
                    "internalType": "address",
                    "name": "buyer",
                    "type": "address"
                },
                {
                    "indexed": false,
                    "internalType": "uint256",
                    "name": "quantity",
                    "type": "uint256"
                }
            ],
            "name": "OrderBought",
            "type": "event"
        },
        {
            "anonymous": false,
            "inputs": [
                {
                    "indexed": true,
                    "internalType": "uint256",
                    "name": "id",
                    "type": "uint256"
                }
            ],
            "name": "OrderCanceled",
            "type": "event"
        },
        {
            "anonymous": false,
            "inputs": [
                {
                    "indexed": false,
                    "internalType": "address",
                    "name": "account",
                    "type": "address"
                }
            ],
            "name": "Paused",
            "type": "event"
        },
        {
            "anonymous": false,
            "inputs": [
                {
                    "indexed": true,
                    "internalType": "bytes32",
                    "name": "role",
                    "type": "bytes32"
                },
                {
                    "indexed": true,
                    "internalType": "bytes32",
                    "name": "previousAdminRole",
                    "type": "bytes32"
                },
                {
                    "indexed": true,
                    "internalType": "bytes32",
                    "name": "newAdminRole",
                    "type": "bytes32"
                }
            ],
            "name": "RoleAdminChanged",
            "type": "event"
        },
        {
            "anonymous": false,
            "inputs": [
                {
                    "indexed": true,
                    "internalType": "bytes32",
                    "name": "role",
                    "type": "bytes32"
                },
                {
                    "indexed": true,
                    "internalType": "address",
                    "name": "account",
                    "type": "address"
                },
                {
                    "indexed": true,
                    "internalType": "address",
                    "name": "sender",
                    "type": "address"
                }
            ],
            "name": "RoleGranted",
            "type": "event"
        },
        {
            "anonymous": false,
            "inputs": [
                {
                    "indexed": true,
                    "internalType": "bytes32",
                    "name": "role",
                    "type": "bytes32"
                },
                {
                    "indexed": true,
                    "internalType": "address",
                    "name": "account",
                    "type": "address"
                },
                {
                    "indexed": true,
                    "internalType": "address",
                    "name": "sender",
                    "type": "address"
                }
            ],
            "name": "RoleRevoked",
            "type": "event"
        },
        {
            "anonymous": false,
            "inputs": [
                {
                    "indexed": false,
                    "internalType": "address",
                    "name": "account",
                    "type": "address"
                }
            ],
            "name": "Unpaused",
            "type": "event"
        },
        {
            "inputs": [],
            "name": "DEFAULT_ADMIN_ROLE",
            "outputs": [
                {
                    "internalType": "bytes32",
                    "name": "",
                    "type": "bytes32"
                }
            ],
            "stateMutability": "view",
            "type": "function"
        },
        {
            "inputs": [],
            "name": "MASTER_ROLE",
            "outputs": [
                {
                    "internalType": "bytes32",
                    "name": "",
                    "type": "bytes32"
                }
            ],
            "stateMutability": "view",
            "type": "function"
        },
        {
            "inputs": [],
            "name": "MINTER_ROLE",
            "outputs": [
                {
                    "internalType": "bytes32",
                    "name": "",
                    "type": "bytes32"
                }
            ],
            "stateMutability": "view",
            "type": "function"
        },
        {
            "inputs": [],
            "name": "PAUSER_ROLE",
            "outputs": [
                {
                    "internalType": "bytes32",
                    "name": "",
                    "type": "bytes32"
                }
            ],
            "stateMutability": "view",
            "type": "function"
        },
        {
            "inputs": [
                {
                    "internalType": "address",
                    "name": "tokenAddress",
                    "type": "address"
                }
            ],
            "name": "addTokenAccepted",
            "outputs": [],
            "stateMutability": "nonpayable",
            "type": "function"
        },
        {
            "inputs": [
                {
                    "internalType": "address",
                    "name": "",
                    "type": "address"
                }
            ],
            "name": "approvedToken",
            "outputs": [
                {
                    "internalType": "bool",
                    "name": "",
                    "type": "bool"
                }
            ],
            "stateMutability": "view",
            "type": "function"
        },
        {
            "inputs": [
                {
                    "internalType": "address",
                    "name": "buyer",
                    "type": "address"
                },
                {
                    "internalType": "uint256",
                    "name": "orderId",
                    "type": "uint256"
                },
                {
                    "internalType": "uint256",
                    "name": "price",
                    "type": "uint256"
                },
                {
                    "internalType": "uint256",
                    "name": "amount",
                    "type": "uint256"
                }
            ],
            "name": "buyOrder",
            "outputs": [],
            "stateMutability": "payable",
            "type": "function"
        },
        {
            "inputs": [
                {
                    "internalType": "uint256",
                    "name": "orderId",
                    "type": "uint256"
                }
            ],
            "name": "cancelOrder",
            "outputs": [],
            "stateMutability": "nonpayable",
            "type": "function"
        },
        {
            "inputs": [
                {
                    "internalType": "bytes32",
                    "name": "role",
                    "type": "bytes32"
                }
            ],
            "name": "getRoleAdmin",
            "outputs": [
                {
                    "internalType": "bytes32",
                    "name": "",
                    "type": "bytes32"
                }
            ],
            "stateMutability": "view",
            "type": "function"
        },
        {
            "inputs": [
                {
                    "internalType": "bytes32",
                    "name": "role",
                    "type": "bytes32"
                },
                {
                    "internalType": "address",
                    "name": "account",
                    "type": "address"
                }
            ],
            "name": "grantRole",
            "outputs": [],
            "stateMutability": "nonpayable",
            "type": "function"
        },
        {
            "inputs": [
                {
                    "internalType": "bytes32",
                    "name": "role",
                    "type": "bytes32"
                },
                {
                    "internalType": "address",
                    "name": "account",
                    "type": "address"
                }
            ],
            "name": "hasRole",
            "outputs": [
                {
                    "internalType": "bool",
                    "name": "",
                    "type": "bool"
                }
            ],
            "stateMutability": "view",
            "type": "function"
        },
        {
            "inputs": [],
            "name": "initialize",
            "outputs": [],
            "stateMutability": "nonpayable",
            "type": "function"
        },
        {
            "inputs": [
                {
                    "internalType": "address",
                    "name": "",
                    "type": "address"
                },
                {
                    "internalType": "address",
                    "name": "",
                    "type": "address"
                },
                {
                    "internalType": "uint256[]",
                    "name": "",
                    "type": "uint256[]"
                },
                {
                    "internalType": "uint256[]",
                    "name": "",
                    "type": "uint256[]"
                },
                {
                    "internalType": "bytes",
                    "name": "",
                    "type": "bytes"
                }
            ],
            "name": "onERC1155BatchReceived",
            "outputs": [
                {
                    "internalType": "bytes4",
                    "name": "",
                    "type": "bytes4"
                }
            ],
            "stateMutability": "nonpayable",
            "type": "function"
        },
        {
            "inputs": [
                {
                    "internalType": "address",
                    "name": "",
                    "type": "address"
                },
                {
                    "internalType": "address",
                    "name": "from",
                    "type": "address"
                },
                {
                    "internalType": "uint256",
                    "name": "id",
                    "type": "uint256"
                },
                {
                    "internalType": "uint256",
                    "name": "value",
                    "type": "uint256"
                },
                {
                    "internalType": "bytes",
                    "name": "data",
                    "type": "bytes"
                }
            ],
            "name": "onERC1155Received",
            "outputs": [
                {
                    "internalType": "bytes4",
                    "name": "",
                    "type": "bytes4"
                }
            ],
            "stateMutability": "nonpayable",
            "type": "function"
        },
        {
            "inputs": [
                {
                    "internalType": "address",
                    "name": "",
                    "type": "address"
                },
                {
                    "internalType": "address",
                    "name": "from",
                    "type": "address"
                },
                {
                    "internalType": "uint256",
                    "name": "tokenId",
                    "type": "uint256"
                },
                {
                    "internalType": "bytes",
                    "name": "data",
                    "type": "bytes"
                }
            ],
            "name": "onERC721Received",
            "outputs": [
                {
                    "internalType": "bytes4",
                    "name": "",
                    "type": "bytes4"
                }
            ],
            "stateMutability": "nonpayable",
            "type": "function"
        },
        {
            "inputs": [],
            "name": "orderCount",
            "outputs": [
                {
                    "internalType": "uint256",
                    "name": "",
                    "type": "uint256"
                }
            ],
            "stateMutability": "view",
            "type": "function"
        },
        {
            "inputs": [
                {
                    "internalType": "uint256",
                    "name": "",
                    "type": "uint256"
                }
            ],
            "name": "orders",
            "outputs": [
                {
                    "internalType": "uint256",
                    "name": "id",
                    "type": "uint256"
                },
                {
                    "internalType": "uint256",
                    "name": "tokenId",
                    "type": "uint256"
                },
                {
                    "internalType": "uint256",
                    "name": "initialAmount",
                    "type": "uint256"
                },
                {
                    "internalType": "uint256",
                    "name": "currentAmount",
                    "type": "uint256"
                },
                {
                    "internalType": "uint256",
                    "name": "priceByUnit",
                    "type": "uint256"
                },
                {
                    "internalType": "address",
                    "name": "seller",
                    "type": "address"
                },
                {
                    "internalType": "address",
                    "name": "tokenAccepted",
                    "type": "address"
                },
                {
                    "internalType": "address",
                    "name": "contractAddress",
                    "type": "address"
                },
                {
                    "internalType": "enum Marketplace.OrderStatus",
                    "name": "status",
                    "type": "uint8"
                },
                {
                    "internalType": "enum Marketplace.ContractType",
                    "name": "contractType",
                    "type": "uint8"
                },
                {
                    "internalType": "bool",
                    "name": "sellByUnit",
                    "type": "bool"
                }
            ],
            "stateMutability": "view",
            "type": "function"
        },
        {
            "inputs": [],
            "name": "pause",
            "outputs": [],
            "stateMutability": "nonpayable",
            "type": "function"
        },
        {
            "inputs": [],
            "name": "paused",
            "outputs": [
                {
                    "internalType": "bool",
                    "name": "",
                    "type": "bool"
                }
            ],
            "stateMutability": "view",
            "type": "function"
        },
        {
            "inputs": [
                {
                    "internalType": "address",
                    "name": "tokenAddress",
                    "type": "address"
                }
            ],
            "name": "removeTokenAccepted",
            "outputs": [],
            "stateMutability": "nonpayable",
            "type": "function"
        },
        {
            "inputs": [
                {
                    "internalType": "bytes32",
                    "name": "role",
                    "type": "bytes32"
                },
                {
                    "internalType": "address",
                    "name": "account",
                    "type": "address"
                }
            ],
            "name": "renounceRole",
            "outputs": [],
            "stateMutability": "nonpayable",
            "type": "function"
        },
        {
            "inputs": [
                {
                    "internalType": "bytes32",
                    "name": "role",
                    "type": "bytes32"
                },
                {
                    "internalType": "address",
                    "name": "account",
                    "type": "address"
                }
            ],
            "name": "revokeRole",
            "outputs": [],
            "stateMutability": "nonpayable",
            "type": "function"
        },
        {
            "inputs": [
                {
                    "internalType": "bytes4",
                    "name": "interfaceId",
                    "type": "bytes4"
                }
            ],
            "name": "supportsInterface",
            "outputs": [
                {
                    "internalType": "bool",
                    "name": "",
                    "type": "bool"
                }
            ],
            "stateMutability": "view",
            "type": "function"
        },
        {
            "inputs": [],
            "name": "unpause",
            "outputs": [],
            "stateMutability": "nonpayable",
            "type": "function"
        }
    ],
    "bytecode": "60806040523480156200001157600080fd5b506200001c62000022565b620000e4565b600054610100900460ff16156200008f5760405162461bcd60e51b815260206004820152602760248201527f496e697469616c697a61626c653a20636f6e747261637420697320696e697469604482015266616c697a696e6760c81b606482015260840160405180910390fd5b60005460ff9081161015620000e2576000805460ff191660ff9081179091556040519081527f7f26b83ff96e1f2b6a682f133852f6798a09c465da95921460cefb38474024989060200160405180910390a15b565b6124f880620000f46000396000f3fe60806040526004361061014b5760003560e01c80638456cb59116100b6578063d53913931161006f578063d53913931461042b578063d547741f1461045f578063dc2248631461047f578063e63ab1e9146104a1578063ea62ef85146104c3578063f23a6e61146104e357600080fd5b80638456cb591461030857806391d148541461031d578063a217fddf1461033d578063a85c38ef14610352578063bc197c81146103f8578063d3a715e71461041857600080fd5b80633f4ba83a116101085780633f4ba83a146102555780634df87c091461026a578063514fcac71461029b5780635c975abb146102bb57806379d937e2146102d35780638129fc1c146102f357600080fd5b806301ffc9a714610150578063150b7a02146101855780632453ffa8146101be578063248a9ca3146101e35780632f2ff15d1461021357806336568abe14610235575b600080fd5b34801561015c57600080fd5b5061017061016b366004611c82565b610503565b60405190151581526020015b60405180910390f35b34801561019157600080fd5b506101a56101a0366004611d78565b610514565b6040516001600160e01b0319909116815260200161017c565b3480156101ca57600080fd5b506101d56101935481565b60405190815260200161017c565b3480156101ef57600080fd5b506101d56101fe366004611de4565b60009081526097602052604090206001015490565b34801561021f57600080fd5b5061023361022e366004611dfd565b610536565b005b34801561024157600080fd5b50610233610250366004611dfd565b610560565b34801561026157600080fd5b506102336105e3565b34801561027657600080fd5b50610170610285366004611e2d565b6101916020526000908152604090205460ff1681565b3480156102a757600080fd5b506102336102b6366004611de4565b610606565b3480156102c757600080fd5b5060335460ff16610170565b3480156102df57600080fd5b506102336102ee366004611e2d565b6108e2565b3480156102ff57600080fd5b50610233610910565b34801561031457600080fd5b50610233610adb565b34801561032957600080fd5b50610170610338366004611dfd565b610afb565b34801561034957600080fd5b506101d5600081565b34801561035e57600080fd5b506103e161036d366004611de4565b6101926020526000908152604090208054600182015460028301546003840154600485015460058601546006870154600790970154959694959394929391926001600160a01b03918216929082169181169060ff600160a01b8204811691600160a81b8104821691600160b01b909104168b565b60405161017c9b9a99989796959493929190611e84565b34801561040457600080fd5b506101a5610413366004611f7c565b610b26565b61023361042636600461202a565b610b63565b34801561043757600080fd5b506101d57f9f2df0fed2c77648de5860a4cc508cd0818c85b8b8a1ab4ceeef8d981c8956a681565b34801561046b57600080fd5b5061023361047a366004611dfd565b6113a6565b34801561048b57600080fd5b506101d56000805160206124a383398151915281565b3480156104ad57600080fd5b506101d560008051602061248383398151915281565b3480156104cf57600080fd5b506102336104de366004611e2d565b6113cb565b3480156104ef57600080fd5b506101a56104fe366004612065565b6113fc565b600061050e8261141e565b92915050565b600061052584846001600086611443565b50630a85bd0160e11b949350505050565b600082815260976020526040902060010154610551816116e6565b61055b83836116f0565b505050565b6001600160a01b03811633146105d55760405162461bcd60e51b815260206004820152602f60248201527f416363657373436f6e74726f6c3a2063616e206f6e6c792072656e6f756e636560448201526e103937b632b9903337b91039b2b63360891b60648201526084015b60405180910390fd5b6105df8282611776565b5050565b6000805160206124838339815191526105fb816116e6565b6106036117dd565b50565b61060e61182f565b61061661188a565b600081815261019260205260408120906007820154600160a01b900460ff16600281111561064657610646611e4a565b146106935760405162461bcd60e51b815260206004820152601d60248201527f4f72646572206973206e6f206c6f6e67657220617661696c61626c652100000060448201526064016105cc565b6106ab6000805160206124a383398151915233610afb565b806106c2575060058101546001600160a01b031633145b61070e5760405162461bcd60e51b815260206004820181905260248201527f4f6e6c79207468652073656c6c65722063616e2063616e63656c206f7264657260448201526064016105cc565b60008160030154116107515760405162461bcd60e51b815260206004820152600c60248201526b105b1c9958591e481cdbdb1960a21b60448201526064016105cc565b60006007820154600160a81b900460ff16600181111561077357610773611e4a565b036107f057600781015460058201546001830154604051632142170760e11b81526001600160a01b03938416936342842e0e936107b993309392909116916004016120ce565b600060405180830381600087803b1580156107d357600080fd5b505af11580156107e7573d6000803e3d6000fd5b50505050610890565b60016007820154600160a81b900460ff16600181111561081257610812611e4a565b03610890576007810154600582015460018301546003840154604051637921219560e11b81526001600160a01b039485169463f242432a9461085d94309491909216926004016120f2565b600060405180830381600087803b15801561087757600080fd5b505af115801561088b573d6000803e3d6000fd5b505050505b60006003820181905560078201805460ff60a01b1916600160a01b17905560405183917fc41f4ceb2938876c35e61b705e9d2f18a02c4a26ce5e049a6308a943d46851b391a250610603600161015f55565b60006108ed816116e6565b506001600160a01b0316600090815261019160205260409020805460ff19169055565b600054610100900460ff16158080156109305750600054600160ff909116105b8061094a5750303b15801561094a575060005460ff166001145b6109ad5760405162461bcd60e51b815260206004820152602e60248201527f496e697469616c697a61626c653a20636f6e747261637420697320616c72656160448201526d191e481a5b9a5d1a585b1a5e995960921b60648201526084016105cc565b6000805460ff1916600117905580156109d0576000805461ff0019166101001790555b6109d86118da565b6109e0611909565b6109e8611930565b6109f0611909565b6109f8611909565b610a036000336116f0565b610a1b600080516020612483833981519152336116f0565b610a457f9f2df0fed2c77648de5860a4cc508cd0818c85b8b8a1ab4ceeef8d981c8956a6336116f0565b610a5d6000805160206124a3833981519152336116f0565b600080526101916020527fece131a77f67ea9215fcec08eb2adca5672b17a236443a19a4cbf52eb1f837bd805460ff191660011790558015610603576000805461ff0019169055604051600181527f7f26b83ff96e1f2b6a682f133852f6798a09c465da95921460cefb38474024989060200160405180910390a150565b600080516020612483833981519152610af3816116e6565b61060361195f565b60009182526097602090815260408084206001600160a01b0393909316845291905290205460ff1690565b60405162461bcd60e51b815260206004820152600f60248201526e139bdd081a5b5c1b195b595b9d1959608a1b60448201526000906064016105cc565b610b6b61182f565b610b7361188a565b600083815261019260205260409020610b9a6000805160206124a383398151915233610afb565b80610bad57506001600160a01b03851633145b610bf25760405162461bcd60e51b81526020600482015260166024820152754f6e6c79207468652062757965722063616e2070617960501b60448201526064016105cc565b60006007820154600160a01b900460ff166002811115610c1457610c14611e4a565b14610c615760405162461bcd60e51b815260206004820152601d60248201527f4f72646572206973206e6f206c6f6e67657220617661696c61626c652100000060448201526064016105cc565b60008211610ca95760405162461bcd60e51b8152602060048201526015602482015274596f752063616e277420627579206e6f7468696e6760581b60448201526064016105cc565b8181600301541015610cf35760405162461bcd60e51b81526020600482015260136024820152724e6f7420656e6f756768207175616e7469747960681b60448201526064016105cc565b6007810154600160b01b900460ff16610d4d5780600301548214610d4d5760405162461bcd60e51b815260206004820152601160248201527010d85b89dd08189d5e48189e481d5b9a5d607a1b60448201526064016105cc565b6000828260040154610d5f9190612140565b60068301549091506001600160a01b0316610dc857348114610dc35760405162461bcd60e51b815260206004820152601f60248201527f4275792070726963652069736e277420657175616c20746f207072696365210060448201526064016105cc565b610e17565b838114610e175760405162461bcd60e51b815260206004820152601f60248201527f4275792070726963652069736e277420657175616c20746f207072696365210060448201526064016105cc565b6007820154600183015460405163152a902d60e11b815260009283926001600160a01b0390911691632a55205a91610e5c918790600401918252602082015260400190565b6040805180830381865afa158015610e78573d6000803e3d6000fd5b505050506040513d601f19601f82011682018060405250810190610e9c9190612157565b9092509050610eac600584612185565b811115610eea5760405162461bcd60e51b815260206004820152600c60248201526b0a8dede40daeac6d040e8c2f60a31b60448201526064016105cc565b6000610ef682856121a7565b60068601549091506001600160a01b0316611058578115610fb6576000836001600160a01b03168360405160006040518083038185875af1925050503d8060008114610f5e576040519150601f19603f3d011682016040523d82523d6000602084013e610f63565b606091505b5050905080610fb45760405162461bcd60e51b815260206004820152601860248201527f4661696c656420746f2073656e6420746178204574686572000000000000000060448201526064016105cc565b505b60058501546040516000916001600160a01b03169083908381818185875af1925050503d8060008114611005576040519150601f19603f3d011682016040523d82523d6000602084013e61100a565b606091505b50509050806110525760405162461bcd60e51b81526020600482015260146024820152732330b4b632b2103a379039b2b7321022ba3432b960611b60448201526064016105cc565b506111f2565b81156111295760068501546040516323b872dd60e01b81526000916001600160a01b0316906323b872dd90611095908d90889088906004016120ce565b6020604051808303816000875af11580156110b4573d6000803e3d6000fd5b505050506040513d601f19601f820116820180604052508101906110d891906121cf565b9050806111275760405162461bcd60e51b815260206004820152601860248201527f4661696c656420746f2073656e6420746178204572633230000000000000000060448201526064016105cc565b505b600685015460058601546040516323b872dd60e01b81526000926001600160a01b03908116926323b872dd92611167928f92169087906004016120ce565b6020604051808303816000875af1158015611186573d6000803e3d6000fd5b505050506040513d601f19601f820116820180604052508101906111aa91906121cf565b9050806111f05760405162461bcd60e51b815260206004820152601460248201527304661696c656420746f2073656e642045524332360641b60448201526064016105cc565b505b60006007860154600160a81b900460ff16600181111561121457611214611e4a565b036112895760078501546001860154604051632142170760e11b81526001600160a01b03909216916342842e0e916112529130918e916004016120ce565b600060405180830381600087803b15801561126c57600080fd5b505af1158015611280573d6000803e3d6000fd5b5050505061131e565b60016007860154600160a81b900460ff1660018111156112ab576112ab611e4a565b0361131e5760078501546001860154604051637921219560e11b81526001600160a01b039092169163f242432a916112eb9130918e918c906004016120f2565b600060405180830381600087803b15801561130557600080fd5b505af1158015611319573d6000803e3d6000fd5b505050505b600086866003015461133091906121a7565b60038701819055905060008190036113585760078601805460ff60a01b1916600160a11b1790555b60405187815233908a907f7ea4660ae6e06a06faef0a7a090c65be5febb413a3e28f13ba9b6d4a186166c09060200160405180910390a35050505050506113a0600161015f55565b50505050565b6000828152609760205260409020600101546113c1816116e6565b61055b8383611776565b60006113d6816116e6565b506001600160a01b0316600090815261019160205260409020805460ff19166001179055565b600061140c858585600186611443565b5063f23a6e6160e01b95945050505050565b60006001600160e01b03198216630271189760e51b148061050e575061050e8261199c565b61144b61182f565b61145361188a565b60008180602001905181019061146991906121ea565b6020808201516001600160a01b03166000908152610191909152604090205490915060ff166114ca5760405162461bcd60e51b815260206004820152600d60248201526c24b73b30b634b2103a37b5b2b760991b60448201526064016105cc565b61019380549060006114db83612251565b9190505550600060405180610160016040528061019354815260200187815260200186815260200186815260200183600001518152602001886001600160a01b0316815260200183602001516001600160a01b0316815260200161153c3390565b6001600160a01b031681526020016000815260200185600181111561156357611563611e4a565b81526040848101511515602092830152610193546000908152610192835281902083518155918301516001830155820151600280830191909155606083015160038301556080830151600483015560a08301516005830180546001600160a01b03199081166001600160a01b039384161790915560c0850151600685018054831691841691909117905560e08501516007850180549283169190931690811783556101008601519596508695936001600160a81b03199092161790600160a01b90849081111561163557611635611e4a565b021790555061012082015160078201805460ff60a81b1916600160a81b83600181111561166457611664611e4a565b02179055506101408201518160070160166101000a81548160ff021916908315150217905550905050866001600160a01b0316610193547f9245968e41c568f1c1d94eeeb4cfac3ac9e0eab48a2dae966cce919d1acff8cf836040516116ca919061226a565b60405180910390a350506116df600161015f55565b5050505050565b61060381336119d1565b6116fa8282610afb565b6105df5760008281526097602090815260408083206001600160a01b03851684529091529020805460ff191660011790556117323390565b6001600160a01b0316816001600160a01b0316837f2f8788117e7eff1d82e926ec794901d17c78024a50270940304540a733656f0d60405160405180910390a45050565b6117808282610afb565b156105df5760008281526097602090815260408083206001600160a01b0385168085529252808320805460ff1916905551339285917ff6391f5c32d9c69d2a47ea670b442974b53935d1edc7fd64eb21e047a839171b9190a45050565b6117e5611a2a565b6033805460ff191690557f5db9ee0a495bf2e6ff9c91a7834c1ba4fdd244a5e8aa4e537bd38aeae4b073aa335b6040516001600160a01b03909116815260200160405180910390a1565b600261015f54036118825760405162461bcd60e51b815260206004820152601f60248201527f5265656e7472616e637947756172643a207265656e7472616e742063616c6c0060448201526064016105cc565b600261015f55565b60335460ff16156118d05760405162461bcd60e51b815260206004820152601060248201526f14185d5cd8589b194e881c185d5cd95960821b60448201526064016105cc565b565b600161015f55565b600054610100900460ff166119015760405162461bcd60e51b81526004016105cc9061232b565b6118d0611a73565b600054610100900460ff166118d05760405162461bcd60e51b81526004016105cc9061232b565b600054610100900460ff166119575760405162461bcd60e51b81526004016105cc9061232b565b6118d0611aa6565b61196761188a565b6033805460ff191660011790557f62e78cea01bee320cd4e420270b5ea74000d11b0c9f74754ebdbfc544b05a2586118123390565b60006001600160e01b03198216637965db0b60e01b148061050e57506301ffc9a760e01b6001600160e01b031983161461050e565b6119db8282610afb565b6105df576119e881611acd565b6119f3836020611adf565b604051602001611a0492919061239a565b60408051601f198184030181529082905262461bcd60e51b82526105cc9160040161240f565b60335460ff166118d05760405162461bcd60e51b815260206004820152601460248201527314185d5cd8589b194e881b9bdd081c185d5cd95960621b60448201526064016105cc565b600054610100900460ff16611a9a5760405162461bcd60e51b81526004016105cc9061232b565b6033805460ff19169055565b600054610100900460ff166118d25760405162461bcd60e51b81526004016105cc9061232b565b606061050e6001600160a01b03831660145b60606000611aee836002612140565b611af9906002612442565b67ffffffffffffffff811115611b1157611b11611cc1565b6040519080825280601f01601f191660200182016040528015611b3b576020820181803683370190505b509050600360fc1b81600081518110611b5657611b56612455565b60200101906001600160f81b031916908160001a905350600f60fb1b81600181518110611b8557611b85612455565b60200101906001600160f81b031916908160001a9053506000611ba9846002612140565b611bb4906001612442565b90505b6001811115611c2c576f181899199a1a9b1b9c1cb0b131b232b360811b85600f1660108110611be857611be8612455565b1a60f81b828281518110611bfe57611bfe612455565b60200101906001600160f81b031916908160001a90535060049490941c93611c258161246b565b9050611bb7565b508315611c7b5760405162461bcd60e51b815260206004820181905260248201527f537472696e67733a20686578206c656e67746820696e73756666696369656e7460448201526064016105cc565b9392505050565b600060208284031215611c9457600080fd5b81356001600160e01b031981168114611c7b57600080fd5b6001600160a01b038116811461060357600080fd5b634e487b7160e01b600052604160045260246000fd5b604051601f8201601f1916810167ffffffffffffffff81118282101715611d0057611d00611cc1565b604052919050565b600082601f830112611d1957600080fd5b813567ffffffffffffffff811115611d3357611d33611cc1565b611d46601f8201601f1916602001611cd7565b818152846020838601011115611d5b57600080fd5b816020850160208301376000918101602001919091529392505050565b60008060008060808587031215611d8e57600080fd5b8435611d9981611cac565b93506020850135611da981611cac565b925060408501359150606085013567ffffffffffffffff811115611dcc57600080fd5b611dd887828801611d08565b91505092959194509250565b600060208284031215611df657600080fd5b5035919050565b60008060408385031215611e1057600080fd5b823591506020830135611e2281611cac565b809150509250929050565b600060208284031215611e3f57600080fd5b8135611c7b81611cac565b634e487b7160e01b600052602160045260246000fd5b60038110611e7057611e70611e4a565b9052565b60028110611e7057611e70611e4a565b8b8152602081018b9052604081018a905260608101899052608081018890526001600160a01b0387811660a083015286811660c0830152851660e08201526101608101611ed5610100830186611e60565b611ee3610120830185611e74565b8215156101408301529c9b505050505050505050505050565b600082601f830112611f0d57600080fd5b8135602067ffffffffffffffff821115611f2957611f29611cc1565b8160051b611f38828201611cd7565b9283528481018201928281019087851115611f5257600080fd5b83870192505b84831015611f7157823582529183019190830190611f58565b979650505050505050565b600080600080600060a08688031215611f9457600080fd5b8535611f9f81611cac565b94506020860135611faf81611cac565b9350604086013567ffffffffffffffff80821115611fcc57600080fd5b611fd889838a01611efc565b94506060880135915080821115611fee57600080fd5b611ffa89838a01611efc565b9350608088013591508082111561201057600080fd5b5061201d88828901611d08565b9150509295509295909350565b6000806000806080858703121561204057600080fd5b843561204b81611cac565b966020860135965060408601359560600135945092505050565b600080600080600060a0868803121561207d57600080fd5b853561208881611cac565b9450602086013561209881611cac565b93506040860135925060608601359150608086013567ffffffffffffffff8111156120c257600080fd5b61201d88828901611d08565b6001600160a01b039384168152919092166020820152604081019190915260600190565b6001600160a01b0394851681529290931660208301526040820152606081019190915260a06080820181905260009082015260c00190565b634e487b7160e01b600052601160045260246000fd5b808202811582820484141761050e5761050e61212a565b6000806040838503121561216a57600080fd5b825161217581611cac565b6020939093015192949293505050565b6000826121a257634e487b7160e01b600052601260045260246000fd5b500490565b8181038181111561050e5761050e61212a565b805180151581146121ca57600080fd5b919050565b6000602082840312156121e157600080fd5b611c7b826121ba565b6000606082840312156121fc57600080fd5b6040516060810181811067ffffffffffffffff8211171561221f5761221f611cc1565b60405282518152602083015161223481611cac565b6020820152612245604084016121ba565b60408201529392505050565b6000600182016122635761226361212a565b5060010190565b600061016082019050825182526020830151602083015260408301516040830152606083015160608301526080830151608083015260a08301516122b960a08401826001600160a01b03169052565b5060c08301516122d460c08401826001600160a01b03169052565b5060e08301516122ef60e08401826001600160a01b03169052565b506101008084015161230382850182611e60565b50506101208084015161231882850182611e74565b5050610140928301511515919092015290565b6020808252602b908201527f496e697469616c697a61626c653a20636f6e7472616374206973206e6f74206960408201526a6e697469616c697a696e6760a81b606082015260800190565b60005b83811015612391578181015183820152602001612379565b50506000910152565b7f416363657373436f6e74726f6c3a206163636f756e74200000000000000000008152600083516123d2816017850160208801612376565b7001034b99036b4b9b9b4b733903937b6329607d1b6017918401918201528351612403816028840160208801612376565b01602801949350505050565b602081526000825180602084015261242e816040850160208701612376565b601f01601f19169190910160400192915050565b8082018082111561050e5761050e61212a565b634e487b7160e01b600052603260045260246000fd5b60008161247a5761247a61212a565b50600019019056fe65d7a28e3265b37a6474929f336521b332c1681b933f6cb9f3376673440d862a8b8c0776df2c2176edf6f82391c35ea4891146d7a976ee36fd07f1a6fb4ead4ca2646970667358221220f5bff7d1faf43fa82419b618e131a32d171a0bfd4ca313b16e3785c2cf941caa64736f6c63430008130033",
    "sourcePath": "c:/Users/EddyB/source/repos/youtpout/HeroContracts/contracts/Marketplace.sol",
    "compiler": {
        "name": "solc",
        "version": "0.8.19+commit.7dd6d404"
    },
    "functionHashes": {
        "DEFAULT_ADMIN_ROLE()": "a217fddf",
        "MASTER_ROLE()": "dc224863",
        "MINTER_ROLE()": "d5391393",
        "PAUSER_ROLE()": "e63ab1e9",
        "addTokenAccepted(address)": "ea62ef85",
        "approvedToken(address)": "4df87c09",
        "buyOrder(address,uint256,uint256,uint256)": "d3a715e7",
        "cancelOrder(uint256)": "514fcac7",
        "getRoleAdmin(bytes32)": "248a9ca3",
        "grantRole(bytes32,address)": "2f2ff15d",
        "hasRole(bytes32,address)": "91d14854",
        "initialize()": "8129fc1c",
        "onERC1155BatchReceived(address,address,uint256[],uint256[],bytes)": "bc197c81",
        "onERC1155Received(address,address,uint256,uint256,bytes)": "f23a6e61",
        "onERC721Received(address,address,uint256,bytes)": "150b7a02",
        "orderCount()": "2453ffa8",
        "orders(uint256)": "a85c38ef",
        "pause()": "8456cb59",
        "paused()": "5c975abb",
        "removeTokenAccepted(address)": "79d937e2",
        "renounceRole(bytes32,address)": "36568abe",
        "revokeRole(bytes32,address)": "d547741f",
        "supportsInterface(bytes4)": "01ffc9a7",
        "unpause()": "3f4ba83a"
    },
    "gasEstimates": {
        "creation": {
            "codeDepositCost": "1892800",
            "executionCost": "31590",
            "totalCost": "1924390"
        },
        "external": {
            "DEFAULT_ADMIN_ROLE()": "262",
            "MASTER_ROLE()": "infinite",
            "MINTER_ROLE()": "217",
            "PAUSER_ROLE()": "infinite",
            "addTokenAccepted(address)": "infinite",
            "approvedToken(address)": "2559",
            "buyOrder(address,uint256,uint256,uint256)": "infinite",
            "cancelOrder(uint256)": "infinite",
            "getRoleAdmin(bytes32)": "2534",
            "grantRole(bytes32,address)": "infinite",
            "hasRole(bytes32,address)": "2698",
            "initialize()": "infinite",
            "onERC1155BatchReceived(address,address,uint256[],uint256[],bytes)": "infinite",
            "onERC1155Received(address,address,uint256,uint256,bytes)": "infinite",
            "onERC721Received(address,address,uint256,bytes)": "infinite",
            "orderCount()": "2363",
            "orders(uint256)": "infinite",
            "pause()": "infinite",
            "paused()": "2382",
            "removeTokenAccepted(address)": "infinite",
            "renounceRole(bytes32,address)": "29134",
            "revokeRole(bytes32,address)": "infinite",
            "supportsInterface(bytes4)": "infinite",
            "unpause()": "infinite"
        },
        "internal": {
            "_sellNft(address,uint256,uint256,enum Marketplace.ContractType,bytes memory)": "infinite"
        }
    }
}